:020000040800F2
:10000000800D002045010008190A00082D0900088C
:10001000150A000815070008F11D0008000000007F
:10002000000000000000000000000000551600085D
:10003000EB07000800000000290B000885170008E6
:100040005F0100085F0100085F0100085F01000810
:100050005F0100085F0100085F0100085F01000800
:100060005F0100085F0100085F0100085F010008F0
:100070005F0100085F0100085F0100085F010008E0
:100080005F0100085F0100085F0100085F010008D0
:100090005F0100085F0100085F0100085F010008C0
:1000A0005F0100085F0100085F0100085F010008B0
:1000B0005F010008E91700085F0100085F01000800
:1000C0005F0100085F0100085F0100085F01000890
:1000D0005F010008ED1B00085F010008611C0008BB
:1000E0005F0100085F0100085F0100085F01000870
:1000F0005F0100085F0100085F0100085F01000860
:100100005F0100085F0100085F0100085F0100084F
:100110005F0100085F010008411900087919000813
:100120005F0100085F0100085F0100085F0100082F
:10013000DFF80CD000F050FA00480047512F0008BB
:10014000800D00200648804706480047FEE7FEE78E
:10015000FEE7FEE7FEE7FEE7FEE7FEE7FEE7FEE777
:10016000891700083101000840EA01039B0703D00A
:1001700009E008C9121F08C0042AFAD203E011F8E6
:10018000013B00F8013B521EF9D27047D2B201E0A8
:1001900000F8012B491EFBD270470022F6E710B58C
:1001A00013460A4604461946FFF7F0FF204610BDE5
:1001B00030B505462A460B4612F8010B13F8014BE1
:1001C00008B1A042F8D01CB1002802D06D1CF1E7A4
:1001D000284630BD421C10F8011B0029FBD1801AB3
:1001E000704730B50B46014600202022012409E06B
:1001F00021FA02F59D4205D303FA02F5491B04FAE0
:1002000002F52844151EA2F10102F1DC30BD2DE9F2
:10021000F05F0546002092469B468846064681468A
:1002200040241BE0284641464746224600F0F5F9A7
:1002300053465A46C01A914110D3114618462246D9
:1002400000F0DCF92D1A67EB01084F462246012029
:10025000002100F0D3F917EB00094E41201EA4F154
:100260000104DFDC484631462A464346BDE8F09F9C
:100270002DE9FE4F804681EA0300C00F0C46009036
:1002800021F0004123F00045B8EB0200A94105D25E
:100290004046214690461C460B46024623F000404D
:1002A000104347D0270DC7F30A00C3F30A51029049
:1002B000401A019040286BDAC3F3130040F4801B0E
:1002C0000098924620B10023D2EB030A63EB0B0B9C
:1002D00001985946C0F14002504600F08FF9064699
:1002E0000D4650465946019A00F0A7F910EB080058
:1002F0006141002487EA115284EAE7731A4340D02F
:10030000009A62B3019A012A4FEA075215DC001BDA
:1003100061EB02014FF0004202EA0752CDE90042D0
:10032000001C41F5801132462B4600F0A5F903B0C0
:10033000BDE8F08F40462146F9E7001B61EB020162
:10034000001C41F5801300185B412018A2F500172E
:1003500047EB030140EAD570B6196D4111E06D0815
:100360004FEA360645EAC0754FEA0752001B61EBBB
:100370000201001C41F5801149084FEA30000019C4
:10038000514132462B4603B0BDE8F04F00F067B94B
:100390000098012240000023D0EB020263EBE073DF
:1003A000009821464FEAE074B8EB000061EB0401CD
:1003B000E9E783F000435BE781F0004158E72DE96E
:1003C000FE4F81EA030404F0004421F00041009450
:1003D0004FF0000B23F0004350EA01045ED052EAD4
:1003E00003045BD0C3F30A54C1F30A552C44A4F2AE
:1003F000F3340194A0FB0254C1F3130141F48011C2
:10040000C3F3130343F4801301FB024400FB034EC8
:10041000840A970A44EA815447EA8357A4FB076891
:1004200002958D0A05FB07854FEA932C04FB0C54BB
:100430002705029D4FEA065847EA1637B5EB08052F
:100440006EEB070C870E920E47EA811742EA831281
:10045000A7FB0201B6EB0B0164EB00042B0D43EA92
:100460000C335E1844EB1C50DA465146E7FB0201A0
:10047000C5F313044FEA0B3343EA14534FEA043233
:10048000019C43EA0603A4F10C040294009CCDE90C
:1004900000B400F0F1F803B0BDE8F08F0020014691
:1004A000F9E72DE9F04D81EA030404F0004B21F057
:1004B000004514464FF0000A23F0004150EA0502BF
:1004C00020D054EA01021DD0C5F30A570246C5F3F5
:1004D0001303C1F31300C1F30A5640F4801543F42B
:1004E0008013A7EB0608101BD64608F2FD3873EB05
:1004F000050002D308F1010801E092185B41B8F150
:10050000000F03DA00200146BDE8F08D00204FF413
:100510008011064684460EE0171B73EB050705D3D2
:10052000121B63EB050306434CEA010C49084FEA32
:10053000300092185B4150EA0107EDD152EA030006
:1005400012D082EA040083EA0501084305D0101B9B
:10055000AB4106D20122002306E000224FF0004307
:1005600002E06FF0010253101AEB06004CEB085149
:1005700010EB0A0041EB0B01BDE8F04D00F06FB845
:10058000C1F30A52C1F3130140F2FF3341F4801169
:100590009A4202DA00200146704740F233439A4201
:1005A000A2F2334202DC524200F037B800F026B823
:1005B00030B5002904DB4FF00044404264EB0101F8
:1005C000002B04DB4FF00044524264EB03039942DA
:1005D00008BF904230BD0000064C074D06E0E068C1
:1005E00040F0010394E8070098471034AC42F6D37A
:1005F000FFF7A2FD6840000888400008202A04DBBD
:10060000203A00FA02F1002070479140C2F1200325
:1006100020FA03F3194390407047202A04DB203A64
:1006200021FA02F00021704721FA02F3D040C2F112
:1006300020029140084319467047202A06DBCB1759
:10064000203A41FA02F043EAE07306E041FA02F38D
:10065000D040C2F12002914008431946704710B5BE
:10066000002B08DA401C41F1000192185B411A434B
:1006700001D120F0010010BD2DE9F04D92469B46BE
:1006800011B1B1FA81F202E0B0FA80F22032904664
:10069000FFF7B4FF04460F4640EA0A0041EA0B01A7
:1006A00053465A46084313D0114653EA010019D065
:1006B000C8F140025046FFF7B0FF05460E465046CF
:1006C00059464246FFF79AFF084305D0012004E04F
:1006D00020463946BDE8F08D0020054346EAE07625
:1006E0002C4337430A986305E40AA0EB0800002274
:1006F000FD0A44EA47540A3002D500200146E9E7E2
:10070000010510196941DDE9084500196941BDE895
:10071000F04DA4E700BFFEE7002004E00021054AF9
:100720001154411C88B24028F8DB0021024A1170A4
:1007300070470000B40000205B00002070B5024646
:100740000C46FF25FF2309E012F8010B80EA0501A2
:100750000648405C80EA03050548435C2000A4F19C
:100760000104F1D143EA052070BD0000E03D00081E
:10077000E03E0008F0B503460A46002000240021B0
:1007800000270025571000BF0EE013F811404FF668
:10079000FF7606EA0424012606EB41069E5D264408
:1007A000B4B225444E1CB1B2B942EEDB164602EBA0
:1007B000D67C4FEA6C0CA2EB4C0CBCF1000F03D0C2
:1007C00013F8114005EB0425A8B200EB1546F643DB
:1007D000B0B2F0BD10B54FF4966002F01BFE41F6CA
:1007E0001F41632001F0BCF910BD70472DE9F041B5
:1007F000024600250026002000230024002791F84F
:1008000003C00CF00F0591F803C00CF0100CBCF104
:10081000000F03D091F802C04CEA050591F800C022
:10082000BCF1000F31D0146800202BE04FF0010C18
:100830000CFA00F3B1F800C00CEA03069E4220D186
:1008400083004FF00F0C0CFA03F7BC4305FA03FCCE
:100850004CEA040491F803C0BCF1280F06D14FF014
:10086000010C0CFA00FCC2F814C00AE091F803C0B5
:10087000BCF1480F05D14FF0010C0CFA00FCC2F896
:1008800010C0401C0828D1D31460B1F800C0BCF1DE
:10089000FF0F34DD546800202EE000F1080C4FF00B
:1008A000010808FA0CF3B1F800C00CEA03069E42F6
:1008B00021D183004FF00F0C0CFA03F7BC4305FA6B
:1008C00003FC4CEA040491F803C0BCF1280F05D1E5
:1008D00000F1080C08FA0CF8C2F8148091F803C073
:1008E000BCF1480F07D100F1080C4FF0010808FADD
:1008F0000CF8C2F81080401C0828CED35460BDE824
:10090000F0810246002093680B400BB1012000E00B
:1009100000207047416170470161704710B54FF486
:10092000E13002F01BFF01F08FF810BD00BFFEE7C1
:1009300008B50121102000F0F5FA0720ADF80000FD
:1009400048208DF8030069460148FFF74FFF08BDB6
:100950000010014070B506460C46154600201A49A5
:100960000870084601780078401C174A1070174834
:1009700046540522144801780078401C124B187028
:10098000124842542112184602780078401C187010
:100990000E488154184602780078401C18700B48A5
:1009A00084542A12184601780078401C18700748B1
:1009B0004254184602780078401C18700348855449
:1009C00000F006F870BD00005C000020F40000207C
:1009D00010B50E4801780E48FFF7B0FE044621120C
:1009E0000A4802780078401C084B18700848815467
:1009F000184602780078401C187005488454184640
:100A00000178034800F008FB10BD00005C000020E6
:100A1000F400002000BFFEE7704710B54FF4A0605F
:100A200000F064F810BD00F01F020121914042095E
:100A3000920002F1E022C2F800117047F0B50346BF
:100A40000C4603F00701C1F10700042801D9042076
:100A500001E0C1F107000646081D072801D2002069
:100A600000E0C81E05460120B040401E2040A840BE
:100A70000127AF407F1E17403843F0BD70B50021FD
:100A800000230F22C47804B3154C246804F4E064F6
:100A9000C4F5E064210AC1F10403CA40447804FAB1
:100AA00003F184781440214309010E4C0678A155C6
:100AB000047804F01F050124AC4005786D11AD00E9
:100AC00005F1E025C5F8004109E0047804F01F05B0
:100AD0000124AC40044D0678761145F8264070BDDF
:100AE0000CED00E000E400E080E100E00249014399
:100AF000024A1160704700000000FA050CED00E0AA
:100B000010B5002807DA0A07140E054A00F00F0393
:100B10001B1FD45403E00A07130E024A135410BDDE
:100B200018ED00E000E400E070472DE9F05F0646B4
:100B30000F4690469946DDF828A000240325A346D9
:100B4000B100491C2A0202EBC10001F0BDF944B218
:100B5000322C3ED000BF304601F0F6FEB100491CF9
:100B60004FF4A05202EBC100012101F005FA00236D
:100B70003A460321304602F041FE0446322001F09D
:100B80004BFF681EC5B2B44201D0002DE3D1B44280
:100B900003D06FF00200BDE8F09F0F2500BFB10049
:100BA000491C4FF4407202EBC10001F08DF944B2D0
:100BB0000A2001F031FF681EC5B2322C01D0002D91
:100BC000EDD1322C05D0304601F0BEFE6FF00200B0
:100BD000E1E70025322C28D14A464146304600F054
:100BE0003BF90446012C20D11DE0304601F08AFF7C
:100BF0008346BBF1000F0ADD1FFA8BF34A464146DC
:100C0000304600F00BF904468AF800500CE0C82D7D
:100C100004DD8AF800506FF0030405E0681CC5B2DB
:100C2000012001F0F9FEE0E700BF2046B3E72DE91F
:100C3000FC41044600250026002700200190207872
:100C400068B101A840F6B83322461946009000204A
:100C5000FFF76BFFC5B2012D04D0002502E001258E
:100C6000781CC7B22E43207968B101A840F6B8338A
:100C7000221D194600900020FFF757FFC5B2012D35
:100C800004D0002502E00125781CC7B246EA4500E1
:100C9000C6B2207A70B101A840F6B83304F1080258
:100CA000194600900020FFF740FFC5B2012D04D087
:100CB000002502E00125781CC7B246EA8500C6B2CD
:100CC000207B70B101A840F6B83304F10C0219463C
:100CD00000900020FFF729FFC5B2012D04D00025A8
:100CE00002E00125781CC7B246EAC500C6B2207CE6
:100CF00070B101A840F6B83304F110021946009013
:100D00000020FFF712FFC5B2012D04D0002502E03C
:100D10000125781CC7B246EA0510C6B2207D70B125
:100D200001A840F6B83304F11402194600900020DF
:100D3000FFF7FBFEC5B2012D04D0002502E001251E
:100D4000781CC7B246EA4510C6B2207E70B101A831
:100D500040F6B83304F11802194600900020FFF75E
:100D6000E4FEC5B2012D04D0002502E00125781C67
:100D7000C7B246EA8510C6B2207F70B101A840F61E
:100D8000B83304F11C02194600900020FFF7CDFE95
:100D9000C5B2012D04D0002502E00125781CC7B2A0
:100DA00046EAC510C6B2082F02D10020BDE8FC817A
:100DB0003046FBE72DE9FC4705460F4614464FF049
:100DC0000008C246002001900026814600BF18E0BE
:100DD00001A840F6B8333A46194600900020FFF7C4
:100DE000A4FE00F0FF0ABAF1010F06D19DF804003D
:100DF000484400F0FF09701CC6B208F1010000F081
:100E0000FF08A045E4DBA01B6421484390FBF4F0FD
:100E1000E87099FBF6F0A870BDE8FC87FFB587B0D5
:100E200006460C461D460027142102A8FFF7B5F917
:100E300009A823462A4602A90090304602F024F968
:100E400087B29DF8080020B9102F02D101200BB005
:100E5000F0BD6FF00100FAE72DE9F04385B00746D9
:100E60000D4616464FF00008002408208DF80400B7
:100E700000208DF80500214908880988491C1F4B6E
:100E8000198001F0A5FFADF808001D490888098800
:100E9000491C1B4B198001F09BFFADF80A0000BFF5
:100EA0000BE02046E11704EB5171C910A4EBC1011E
:100EB000CAB203A90A55601C84B2082CF1DB0020D9
:100EC000ADF80600102101A8FFF754FC814601F09F
:100ED0007FFFADF806002B46102201A93846009688
:100EE00002F0ECFA4FFA80F8B8F1000F04DC4FF092
:100EF000FF3005B0BDE8F0830120FAE77A0000205A
:100F00007C00002029B1064AD2690243044BDA6111
:100F100004E0034AD2698243014BDA617047000062
:100F20000010024029B1064A92690243044B9A61BB
:100F300004E0034A92698243014B9A6170470000C2
:100F40000010024030B500210022002400232D4D66
:100F50006D6805F00C0121B1042905D0082923D1C1
:100F600005E0294D056022E0274D05601FE0254D75
:100F70006D6805F47012234D6D6805F48034022508
:100F800005EB92421CB9214D554305600BE01D4D08
:100F90006D6805F400351DB11C4D5543056002E038
:100FA000194D5543056002E0174D056000BF00BFB5
:100FB000144D6D6805F0F0010909154D6B5C05686D
:100FC000DD4045600F4D6D6805F4E061090A104D84
:100FD0006B5C4568DD4085600A4D6D6805F46051C5
:100FE000C90A0B4D6B5C4568DD40C560054D6D68F9
:100FF00005F44041890B074D6B5CC568B5FBF3F503
:10100000056130BD0010024000127A0000093D0069
:10101000140000202400002010B5024600200CE03F
:1010200000BF074B1B8803F04003002BF9D0135C73
:10103000034C241D2380431CD8B28842F0DB10BD32
:101040000048004010B5002211460120FFF782FC45
:10105000642001F0E1FC24480078012804D1FFF766
:101060005BFB002020490870642001F0D5FC0022C1
:1010700011460120FFF76EFC642001F0CDFC1A48F8
:101080000078012804D1FFF747FB002016490870BB
:101090004FF4FA7001F0C0FC4FF47F4200210120B0
:1010A000FFF758FC642001F0B7FC0F4800780128D6
:1010B00004D1FFF731FB00200B490870642001F0D8
:1010C000ABFC4FF47F4200210120FFF743FC64207A
:1010D00001F0A2FC04480078012804D1FFF71CFBB2
:1010E00000200149087010BD5A00002010B54FF4CF
:1010F000FA7203A10348006801F08AFD10BD0000E8
:101100004F4B00006800002000B599B0054A06A1C9
:10111000684600F099FFC82210A1684601F078FDEA
:1011200019B000BD3409002041542B434D51434FA9
:101130004E3D302C332C222573222C3630302C306F
:101140002C302C2274686879222C227468687935D6
:101150003530353530220D0A000000004F4B0000BD
:1011600010B54FF47A7202A102A001F051FD10BD3A
:101170004F4B000041542B434D51444953434F4E74
:101180003D300D0A0000000070B5ADF5007D03256F
:1011900001201E4908701E48C0781E494978CDE9D3
:1011A00000101C4803781C4A1CA15AA800F04CFFF0
:1011B00034A95AA802F0DCFB34A8FFF70BF8064666
:1011C00034AB324622A102A800F03EFF14E0681EB4
:1011D000C5B24FF47A7227A102A801F019FD0446A6
:1011E00034B925A000F020FF00202649087005E052
:1011F0004FF4FA6001F010FC002DE8D100BF002090
:10120000024908700DF5007D70BD000061000020EE
:10121000760000204D090020340900207B2249443B
:101220005F494D4549223A222573222C2276696472
:10123000656F223A222564222C22656C65223A22AF
:101240002564222C226E6574223A222564227D00B8
:1012500041542B434D515055423D302C22546F7018
:101260006963222C312C302C302C25642C222573E0
:10127000220D0A004F4B0000B7A2CBCDBDE1CAF84A
:101280000D0A00007300002010B54FF47A7202A11D
:1012900002A001F0BDFC10BD4F4B000041542B4398
:1012A0004D515355423D302C226D79546F70696316
:1012B000222C310D0A00000070B50A2500BF6422FF
:1012C0000AA10BA001F0A4FC044624B94FF47A70E3
:1012D00001F0A2FB07E04FF4487001F09DFB681E8F
:1012E000C0B20500EBD100BF284670BD4F4B0000D7
:1012F00041540D0A0000000010B5142400BF642200
:101300000AA10DA001F084FC20B94FF47A7001F01D
:1013100083FB07E04FF4487001F07EFB601EC0B213
:101320000400ECD100BF204610BD00002B43474114
:1013300043543A20312C310041542B43474143540C
:101340003F0D0A0010B5142400BF64220AA10DA0AD
:1013500001F05EFC20B94FF47A7001F05DFB07E00C
:101360004FF4FA6001F058FB601EC0B20400ECD1EB
:1013700000BF204610BD00002B43475245473A208E
:10138000302C310041542B43475245473F0D0A0052
:1013900010B50A2400BF64220AA10EA001F038FC97
:1013A00020B94FF47A7001F037FB07E04FF4487032
:1013B00001F032FB601EC0B20400ECD100BF204639
:1013C00010BD00002B4350494E3A2052454144592C
:1013D0000000000041542B4350494E3F0D0A0000CD
:1013E00010B53C2400BF64220AA10DA001F010FC3E
:1013F00020B14FF47A7001F00FFB07E04FF4FA6070
:1014000001F00AFB601EC0B20400ECD100BF204610
:1014100010BD00002B4353513A20302C3000000007
:1014200041542B4353510D0A0000000010B50A240B
:1014300000BF64220AA10BA001F0EAFB20B94FF41F
:101440007A7001F0E9FA07E04FF4487001F0E4FA2D
:10145000601EC0B20400ECD100BF204610BD0000E9
:101460004F4B000041542B47534E0D0A0000000023
:1014700010B510210148FFF74FFA10BD00080140D8
:1014800010B510210148FFF745FA10BD00080140D2
:10149000012080F3108800BF7047002080F310887F
:1014A00000BF704700B587B001210420FFF73AFD67
:1014B00001211020FFF736FD01210803FFF732FD5F
:1014C000E020ADF8040003208DF8060018208DF808
:1014D000070001A92A48FFF789F91020ADF8040098
:1014E0008DF8070001A92648FFF780F9102124484C
:1014F000FFF712FA0020ADF81400ADF808004FF421
:101500008270ADF80A000020ADF80C00ADF80E00B6
:10151000ADF810004FF40070ADF812000020ADF8E7
:1015200016000720ADF8180002A9164800F068F868
:101530000121144800F082F80121124800F054F80B
:101540002020ADF8040003208DF8060010208DF84F
:10155000070001A90C48FFF749F920210A48FFF7C5
:10156000DBF91020ADF8040003208DF806004820B8
:101570008DF8070001A90448FFF738F907B000BD4E
:1015800000080140003001400010014000BF0A483F
:10159000008900F002000028F9D0FF200649888168
:1015A00000BF0548008900F001000028F9D002487A
:1015B0008089C0B2704700000030014000BF094977
:1015C000098901F002010029F9D00649888100BF8C
:1015D0000449098901F001010029F9D001498989EB
:1015E000704700000030014021B1028842F0400203
:1015F000028004E002884FF6BF731A4002807047F1
:1016000010B50022028802F441520B884C88234313
:101610008C882343CC8823430C8923434C89234360
:101620008C892343CC8923431A430280838B4FF256
:10163000FF74234083830B8A038210BD21B182880B
:1016400042F00402828004E082884FF6FB731A4065
:1016500082807047704710B500F002F810BD00009E
:101660000CB50020019000903348006840F48030B1
:101670003149086000BF3048006800F40030009035
:101680000198401C0190009818B90198B0F5A06F1E
:10169000F1D12948006800F4003010B10120009019
:1016A00001E0002000900098012843D12348006801
:1016B00040F01000214908600846006820F003004F
:1016C00008600846006840F0020008601A48406858
:1016D000194948600846406848600846406840F438
:1016E000806048600846406820F47C1048600846E6
:1016F000406840F4E81048600846006840F0807098
:10170000086000BF0C48006800F000700028F9D0A5
:101710000948406820F003000749486008464068CF
:1017200040F00200486000BF0348406800F00C0031
:101730000828F9D10CBD0000001002400020024032
:1017400010B5642202A103A001F062FA10BD0000EE
:101750004F4B0000415445300D0A0000042808D1C9
:101760004FF0E021096941F004014FF0E0221161DE
:1017700007E04FF0E021096921F004014FF0E02279
:10178000116170477047000010B51348006840F0C1
:1017900001001149086008464068104908400E4998
:1017A0004860084600680E4908400B490860084632
:1017B000006820F4802008600846406820F4FE009D
:1017C00048604FF41F008860FFF745FF4FF000604E
:1017D0000449086010BD0000001002400000FFF83E
:1017E000FFFFF6FE08ED00E00C48008800F0010065
:1017F00098B10A48008820F001000849088008488C
:101800000088401C0649088008460088142804DD2A
:101810000020088001200349087070471004004030
:1018200058000020560000202DE9F04704460D46E0
:101830003E48C06940F002003C49C8613C48048011
:10184000001D05803A482838008840F0800038495B
:101850002839088036481438008840F0010034499F
:10186000143908804FF6FE70091F0880081F008891
:1018700040F00100091F0880052002462D4B196821
:101880004FF6FF0319402C4B0B4343EA0221294B2F
:10189000196000BF1D200522022637461346C3F1FA
:1018A0000709B9F1040F02D94FF0040901E0C3F1AF
:1018B0000709C84603F10409B9F1070F02D24FF036
:1018C000000901E0A3F10309CC464FF0010909FA30
:1018D00008F9A9F1010909EA060909FA0CF94FF01A
:1018E000010A0AFA0CFAAAF1010A0AEA070A49EA05
:1018F0000A0100BF002808DA0A07160E0D4A0C324A
:1019000000F00F031B1FD65403E00A07130E0B4A07
:10191000135400BF1D20012181404209920002F1B1
:10192000E022C2F8001100BFBDE8F08700100240BD
:10193000280400400CED00E00000FA0500E400E09F
:1019400000B50A48008A00F0010068B1012008498A
:1019500008700020074908700448008A20F0010040
:101960000249088202F044F800BD00000010004067
:101970005A0000205B00002010B52548008800F0C8
:101980000100002842D02248008820F001002049B0
:1019900008802048008840F400401E49088002F07A
:1019A00045F81C4801781C4800F00AF91B480078EB
:1019B000A8B9002017490988C1F30E01164A5054EE
:1019C0001449088016A1104600F0B0FF38B9174935
:1019D000114800F0ABFF10B90120154908701548F7
:1019E0000078012812D114A10B4800F09FFF68B9BC
:1019F00013480078401C12490870084600780228F5
:101A000004DD0020087001200E49087010BD0000A0
:101A1000101400405E0000203405002074000020F7
:101A20002B434D515055423A000000004F09002011
:101A300071000020610000204552524F520000000A
:101A400073000020720000202DE9F0414048C06979
:101A500040F020003E49C8613E48008840F08000C8
:101A60003C4908800846008840F008000880084685
:101A7000008840F0040008800846008820F002003A
:101A8000088037200522022425461346C3F1070C9F
:101A9000BCF1040F02D94FF0040C01E0C3F1070CB4
:101AA000674603F1040CBCF1070F02D24FF0000CA3
:101AB00001E0A3F1030C66464FF0010C0CFA07FCA1
:101AC000ACF1010C0CEA040C0CFA06FC4FF0010816
:101AD00008FA06F8A8F1010808EA05084CEA080126
:101AE00000BF002807DA0A07140E1B4A00F00F0394
:101AF0001B1FD45403E00A07130E184A135400BFE7
:101B0000372000F01F02012191404209920002F1AA
:101B1000E022C2F8001100BF0E480C30008840F0EF
:101B200001000C490C31088041F61F400949283159
:101B3000088042F20F70091D0880064814300088A2
:101B400040F00100034914310880BDE8F081000035
:101B5000001002400014004018ED00E000E400E036
:101B600070B504460D461448C06940F01000124993
:101B7000C861124805858485008840F080000F49BF
:101B800008800846808A40F0010088824FF6FE7087
:101B900008820846808940F00100888102221146AF
:101BA0000520FEF74BFF064631463620FEF7A8FF1C
:101BB0003620FEF738FF70BD0010024000100040D4
:101BC00010B5024600200BE000BF074B1B8803F056
:101BD0004003002BF9D0135C034CA380431CD8B204
:101BE0008842F1DB10BD00000050004010B51248E3
:101BF000008800F02000F0B10F48001D0088C4B23A
:101C00000E480088B0F5806F0FDA01F0FBFE0B483C
:101C1000008808B901F0FCFE084801880088401CD3
:101C2000064A10800648445405E00448008840F401
:101C300000400249088010BD003801405E000020CD
:101C40003405002000BF0549098801F04001002942
:101C5000F9D00249091D0880704700000038014092
:101C600000B51048008800F02000D0B10D48001DDC
:101C70000088C2B20C48007840280FDA01F0A6FEB6
:101C80000A48007808B901F0A7FE074801780078F3
:101C9000401C054B18700648425402E001200349DD
:101CA000087000BD004800405B0000205A00002082
:101CB000B400002021B1828942F40052828104E004
:101CC00082894DF6FF731A4082817047F0B5034652
:101CD000002400260025002040F66A17B94200D1F2
:101CE00000BF1846C1F3421401F01F06012707FA8E
:101CF00006F5012C01D10C3004E0022C01D110308A
:101D000000E014301AB107682F43076002E007684B
:101D1000AF430760F0BD00002DE9F04786B00546EF
:101D20000E460024A24600BFA1460027B08900B19C
:101D300000BF2F462C8A4CF6FF700440F088044305
:101D40002C82AC894EF6F3100440B08831890843E8
:101D5000718908430443AC81AC8A4FF6FF400440CC
:101D6000B0890443AC8201A8FFF7ECF81F48874212
:101D700002D1DDF810A001E0DDF80CA0A88900F484
:101D8000004040B10AEBCA0000EB0A10316849007C
:101D9000B0FBF1F807E00AEBCA0000EB0A1031686B
:101DA0008900B0FBF1F86420B8FBF0F004012009D1
:101DB000642101FB1089A88900F4004040B1322061
:101DC00000EBC900B0FBF1F000F00700044308E0AD
:101DD000322000EB09106421B0FBF1F000F00F009D
:101DE00004432C8106B0BDE8F087000000380140B4
:101DF00000BFFEE730B58BB0002529A103C9CDE9AE
:101E0000090127A103C9CDE907010024264800687C
:101E1000069018222449091D6846FEF7A5F9FFF728
:101E200041FB2249224801F0B3FA2249224801F03D
:101E3000C3FA2249224801F0D3FA20212148FEF7B3
:101E400069FD4FF4167000F029FE20211D48FEF7B1
:101E500063FDC82000F022FE04E00A2000F0DCFD53
:101E6000601C84B201F0AFFF012801D0962CF4DB96
:101E7000962C01DB4FF0FF3507A909A801F0E0FE21
:101E800008B16FF00105684601F022FF06A801F0D5
:101E90004BFF15B128460BB030BD0120FBE7000019
:101EA0000202020202020202FC3F00089B14000828
:101EB000911400087114000881140008BD15000871
:101EC0008D1500080010014070B50446104988685F
:101ED00080470F490869804700BF0D48C169C4F3B6
:101EE000074088470A48C169C4F307208847E0B221
:101EF000074AD169884706498869804705460449E9
:101F0000486980470249C8688047284670BD00007C
:101F10008C0000202DE9F04104460E4617460025AE
:101F2000A84614498868804712490869804700BF5D
:101F30001048C169C4F3074088470E48C169C4F31B
:101F400007208847E0B20B4AD169884700BF06E006
:101F50000849886980477055681C85B200BFBD423A
:101F6000F6DB0449486980470249C8688047BDE8F4
:101F7000F08100008C00002070B504460D46104929
:101F8000886880470E490869804744F004040C487B
:101F9000C169C4F3074088470948C169C4F30720F1
:101FA0008847E0B2064AD16988470548C169284692
:101FB00088470349486980470149C868804770BD20
:101FC0008C0000202DE9F04104460E4617460025FE
:101FD000A84614498868804712490869804744F038
:101FE00004041048C169C4F3074088470D48C1691B
:101FF000C4F307208847E0B20A4AD169884700BF86
:1020000006E0705D074AD1698847681C85B200BF49
:10201000BD42F6DB0349486980470249C8688047EA
:10202000BDE8F0818C0000200FB4054B10B503A96A
:10203000044A029800F0DEF810BC5DF814FB0000C2
:10204000E92A0008500000200FB4084B10B504A97D
:1020500002AA039800F0CEF8044602A9002000F07E
:1020600060FC204610BC5DF814FB0000232900082A
:1020700002E008C8121F08C1002AFAD17047704751
:10208000002001E001C1121F002AFBD170470000AF
:102090002DE9FF5FDDE90220010DDDF838B00243D4
:1020A00018D044F61050A1F2FF3141430D140F989F
:1020B000012820D0A5EB0B00401C5FEA000A4FF07E
:1020C0000004474EDFF81C91A046504616D5CAF1D1
:1020D000000728E00F98012443A2012808D000211E
:1020E00000980F9BC0E90021C0E90243BDE8FF9FB3
:1020F0006FEA0B01F4E7CBF10000DEE7074612E0E0
:10210000F80707D02246334640464946FEF757F9BE
:10211000804689462246334610461946FEF74FF957
:1021200004460E467F10002FEAD1DDE90201BAF124
:10213000000F42464B4602DAFEF741F901E0FEF796
:10214000B0F904460E460022284BFEF731FA03D8B8
:102150004FF0FF30014607E00022254B2046314674
:10216000FEF786F8FEF70CFA102409E0002C0ADBD3
:102170000A220023FEF74BF8019B30321A55641EE9
:1021800050EA0102F2D1641C019AC4F11103144413
:102190000F9A012A03D0012208430DD10AE0084317
:1021A00004D000204FF0110B0F9080E7A3EB0B053C
:1021B0006D1E0DE05B4504DD4FF0000205F10105E9
:1021C00004E003DA4FF00002A5F10105002AECD08B
:1021D00000980F99C0E90231C0E9004586E7000088
:1021E000000024400000F03F300000000000F043F9
:1021F0000000E03F2DE9FF4F95B09B46894606461B
:1022000000250FE2252877D100242746F84A01212E
:10221000059400E0044316F8013F203B01FA03F067
:102220001042F7D130782A2811D06FF02F03307880
:10223000A0F13002092A16D8059A44F0020402EBF4
:10224000820203EB42021044761C0590EFE759F836
:10225000042B0592002A03DA504244F400540590FE
:1022600044F00204761C30782E2816D116F8010F9F
:1022700044F004042A280DD06FF02F023078A0F12A
:102280003003092B09D807EB870302EB4303C71878
:10229000761CF3E759F8047B761C30786C280FD055
:1022A00006DC4C2817D068280DD06A2814D104E029
:1022B000742810D07A280FD10DE044F400140AE0FD
:1022C00044F4801401E044F440147278824202D154
:1022D00004F58014761C761C307866280BD013DC4D
:1022E000582877D009DC002875D04528F6D0462834
:1022F000F4D047281AD19DE118E0632835D064282E
:1023000079D0652812D195E1702873D008DC672850
:10231000F1D069286FD06E280DD06F2806D1B5E0B6
:1023200073282CD0752875D0782874D05A46179900
:1023300090476D1C75E1C4F30250022809D00328B0
:102340000DD0D9F8001004280DD00D6009F1040952
:1023500067E1D9F80010EA17C1E90052F6E7D9F8A9
:1023600000100D80F2E70D70F0E719F8041B8DF8EE
:10237000001000208DF80100EA46012003E059F822
:1023800004AB4FF0FF3061074FF0000102D40DE0C5
:1023900008F101018846B9420FDA8045F8DB1AF8E6
:1023A00008100029F4D108E008F1010188468142B3
:1023B000FADB1AF808100029F6D105985B46A0EB65
:1023C000080721463846179A00F094FA284400EB93
:1023D000080507E04DE029E10DE01AF8010B5A4627
:1023E00017999047B8F10108F7D25B462146384665
:1023F000179A13E142E00A220092C4F302524FF00E
:10240000000A022A08D059F804CB032A4FEAEC71DB
:102410000AD00DE029E02AE009F1070121F00702C6
:10242000F2E802C1914609E00FFA8CFC4FEAEC7128
:10243000042A03D14FFA8CFC4FEAEC71002907DA29
:102440000A460021DCF1000C61EB02012D2202E0C2
:10245000220504D52B228DF80420012203E0E20797
:1024600001D02022F7E7904659E00A2102E010222D
:102470000DE010214FF0000A00910BE010224FF008
:10248000000A44F004040827009203E008224FF0F9
:10249000000A0092C4F30252022A05D059F804CB74
:1024A0000021032A08D009E009F1070121F0070201
:1024B000F2E802C1914605E01FFA8CFC042A01D122
:1024C0000CF0FF0C4FF00008220728D5702806D02A
:1024D000009B83F0100353EA0A0305D00EE040226C
:1024E0008DF80420012208E05CEA010206D03022C7
:1024F0008DF804208DF8050002229046009B83F0A1
:10250000080353EA0A030AD15CEA010201D1620717
:1025100005D530228DF804204FF001087F1E582881
:1025200004D034A003900EA802900DE036A0F9E785
:1025300053466046009AFDF76AFE84460398825C23
:102540000298401E029002705CEA0100F0D10298ED
:1025500006A9081A00F1200A600702D524F4803485
:1025600000E00127574502DDA7EB0A0000E000204C
:1025700000EB0A01009005984144401A0590E003E1
:1025800006D45B462146179A059800F0B3F9054436
:10259000002706E001A85A46C05D179990476D1CB8
:1025A0007F1C4745F6DBE0030CD55B462146179AB6
:1025B000059800F09FF9054404E030205A46179929
:1025C00090476D1C0099481E00900029F5DC08E03A
:1025D000029802995A460078491C0291179990472F
:1025E0006D1CBAF10001AAF1010AF1DC65E10000FD
:1025F00009280100303132333435363738396162D9
:10260000636465660000000030313233343536379C
:1026100038394142434445460000000000F058F973
:102620000544761C307800287FF4ECAD19B02846BC
:10263000BDE8F08F620700D4062709F1070222F0F7
:10264000070CFCE80223E14603F000485FEA080CAF
:1026500002D00FF2702C0DE05FEA045C02D50FF29D
:10266000682C07E05FEAC47C02D00FF2602C01E026
:10267000AFF2700C4FF0FF3823F00043CDF850C09C
:1026800065280CD006DC452809D046281DD04728EF
:102690003DD13DE0662818D067287ED138E0002182
:1026A000112F01DB112000E0781CCDE9000106A903
:1026B0000EA8FFF7EDFCDDE90F010E9A0391002152
:1026C000009207F1010A04914DE04FF0004000979D
:1026D000CDE9011006A90EA8FFF7DAFCDDE90F022B
:1026E00003920E9B11990022DDF80CA00093049236
:1026F00011B9791C00EB010AB7EB0A0004D4C0F150
:10270000FF3007F1010A0490AAEB0700019044E0B2
:10271000012F00DA01270021112F01DD112000E037
:102720003846CDE9000106A90EA8FFF7B1FCDDE9A6
:102730000F010E9A0391002104910092BA462107DD
:102740000CD40399514500DA8A46BAF1010F05DD30
:10275000009AAAF10101515C302908D0B84202DA8E
:1027600010F1040F06DA0121CDE9011015E0AAF1FC
:102770000101E9E7002805DC049901440491AAEB72
:10278000000102E0411C514500DD8A460499401ACF
:10279000401C01904FF000400290200704D40198A3
:1027A000504501DBCDF8048000208DF84F000298E1
:1027B0000DF14F07B0F1004F25D02B200E9002985D
:1027C0004FF0020800280CDA404202902D200E90B3
:1027D00007E00A210298FDF704FD3031029007F866
:1027E000011DB8F10001A8F10108F2DC02980028EF
:1027F000EFD1791E0E980870307800F0200040F07C
:10280000450007F8020D12A8C01B00F10708149834
:10281000007800B1012000EB0A01019801EBE071A2
:1028200005984144401A401E0590E00306D45B46DB
:102830002146179A059800F05DF805441498007831
:1028400018B15A46179990476D1CE00324D55B4692
:102850002146179A059800F04DF805441CE00498AD
:10286000002807DBDDE90301884203DD0098405CB6
:10287000179901E0179930205A469047049805F1BE
:102880000105401C04900198401E019004D12E20A7
:102890005A46179990476D1CBAF10001AAF1010A36
:1028A000DDDC05E017F8010B5A46179990476D1CBF
:1028B000B8F10001A8F10108F4DC5B462146179A43
:1028C0000598ABE62D0000002B0000002000000062
:1028D0002DE9F041044600251E461746880404D41D
:1028E00005E039462020B0476D1C641EF9D5284606
:1028F000BDE8F0812DE9F041044600251E469046D2
:10290000C80301D5302700E02027880404D505E05E
:1029100041463846B0476D1C641EF9D52846BDE8CF
:10292000F0810A68531C0B601070704770B5044644
:102930000D4629462046FDF73BFC08B1002070BD3E
:102940004FF0FF30FBE7000010B5044600BF082C35
:1029500002DD4FF0FF3010BD00BFA100491C4FF455
:10296000807202EBC1001021FFF706FB00BFA1003F
:10297000491C4FF4807202EBC100FFF7A5FA002852
:10298000F5D1A100491C4FF4007202EBC1001F21D8
:10299000FFF7F2FA0120A0400B49098881430A4859
:1029A00001800020094921F814000949085500BF99
:1029B000A100491C4FF4407202EBC100FFF784FAFA
:1029C0000028F5D10120C6E7820000206E09002012
:1029D0008400002010B56FF00400FEF7BFFE0A4827
:1029E00000680A49B0FBF1F0094908700846007810
:1029F00000EB4001C1EBC0104FF6FF7101EAC000CF
:102A00000449088010BD00000000002000127A0078
:102A10004C0000204E00002070B504464FF47A7040
:102A200094FBF0F0C6B24FF47A7094FBF0F100FB27
:102A3000114085B205E04FF47A7000F009F8701E7D
:102A4000C6B2002EF7D115B1284600F001F870BDCE
:102A50000146114A12884A434FF0E0235A6100228E
:102A60009A611A46126942F001021A6100BF4FF0E2
:102A7000E022106900F001021AB100F48032002A4D
:102A8000F5D04FF0E022126922F001024FF0E0236E
:102A90001A6100229A6170474E0000200146114AD7
:102AA00012784A434FF0E0235A6100229A611A4695
:102AB000126942F001021A6100BF4FF0E022106972
:102AC00000F001021AB100F48032002AF5D04FF074
:102AD000E022126922F001024FF0E0231A61002285
:102AE0009A6170474C00002000BF054A128802F02E
:102AF0004002002AF9D0C2B2014B9A807047000010
:102B00000050004070B504460025002600BFA1001B
:102B1000491C4FF4185202EBC100FFF7D5F90646E5
:102B2000A100491C4FF4185202EBC10101F580705D
:102B3000FFF7CAF900EB062086B2AEB1A100491C2E
:102B40004FF4185202EBC100FFF7BEF90546A10091
:102B5000491C4FF4185202EBC10101F58070FFF7D8
:102B6000B3F900EB052085B2B542D0D1284670BD3F
:102B700070B504460025002600BFA100491C4FF493
:102B8000005202EBC100FFF79FF90646A100491C65
:102B90004FF4005202EBC10101F58070FFF794F988
:102BA00000EB062086B2AEB1A100491C4FF40052E2
:102BB00002EBC100FFF788F90546A100491C4FF45C
:102BC000005202EBC10101F58070FFF77DF900EBC7
:102BD000052085B2B542D0D1284670BD70B50446F7
:102BE00000250948008800F4004058B1002006493B
:102BF0000988C1F30E01054A505421461046FDF7DD
:102C0000D7FA0546284670BD5E0000203405002036
:102C10002DE9F04104460E461546002700201849CC
:102C20000880012017490870FF2C02D816490C8033
:102C300003E0214615A000F033F8C6B1BDB10FE0A6
:102C40000B20FFF7E9FE0E48008800F4004038B181
:102C50003046FFF7C3FF00B106E0002008490880B6
:102C6000681E80B20500EBD100BF05B90127002026
:102C700003490880034908703846BDE8F081000028
:102C80005E000020740000200438014025730D0A06
:102C90000000000000B502461046FEF7D3FF00BD5D
:102CA0000FB42DE9F04186B00DA8009081E00C989A
:102CB00000785C281BD10C98401C0C900C98007874
:102CC0006E2808D072280DD10D20FEF7BBFF0C989E
:102CD000401C0C900AE00D20FEF7B4FF0C98401C3D
:102CE0000C9003E00C98401C0C9000BF61E00C9825
:102CF0000078252857D10C98401C0C900C9800782F
:102D0000642804D066281BD0732847D137E0009888
:102D100050F8048B009042462BA101A8FFF794F9CC
:102D2000002404E001A9085DFFF7B4FF641C01A8BA
:102D3000FDF750FAA042F5D80C98401C0C9031E0F9
:102D40000098C01D20F007000090D0E9006708300F
:102D5000009032463B461DA101A8FFF775F90024FB
:102D600004E001A9085DFFF795FF641C01A8FDF7C9
:102D700031FAA042F5D80C98401C0C9012E0009853
:102D800020C8009003E015F8010BFFF783FF2878B7
:102D90000028F8D10C98401C0C9003E00C98401CC3
:102DA0000C9000BF05E00C9911F8010B0C91FFF796
:102DB00071FF0C98007800287FF479AF06B0BDE869
:102DC000F0015DF814FB000025640000256600009A
:102DD000014600200A06100C40EA1120704700004E
:102DE00010B501212048FDF78CFD30B91FA0FFF779
:102DF0001BF901202049087002E000201E490870DC
:102E000002211948FDF77DFD30B91CA0FFF70CF930
:102E100001201D49087002E000201B4908700421B0
:102E20001148FDF76EFD30B918A0FFF7FDF801203D
:102E30001949087002E00020174908700E48007810
:102E400028B91148007810B91348007808B101205A
:102E500000E0002030B911A0FFF7E6F80020134988
:102E6000487010BD0120FCE7001001404649464F64
:102E700031CDA8B5E70D0A00480000204649464F6D
:102E800032CDA8B5E70D0A00490000204649464F5B
:102E900033CDA8B5E70D0A004A000020C3BBD3D04C
:102EA000BCECB2E2323230560D0A00004D0900206F
:102EB00010B5FF241848007848B101211748FDF7E4
:102EC00020FD012803D116A0FFF7AEF80024174813
:102ED000007848B102211148FDF713FD012803D104
:102EE00013A0FFF7A1F800241448007848B104218A
:102EF0000A48FDF706FD012803D111A0FFF794F859
:102F00000024FF2C03D101201049487002E000206A
:102F10000E49487010BD000048000020001001401C
:102F20004649464F31B6CFB5E70D0A0049000020AB
:102F30004649464F32B6CFB5E70D0A004A00002099
:102F40004649464F33B6CFB5E70D0A004D0900207C
:102F500008B500243CA0006800900025FDF75DFD49
:102F6000FDF7E6FCFFF736FD4FF4165000F068FD64
:102F7000FDF730FCFDF7D2FC40F6B830FFF74CFD12
:102F8000FFF72EFF0546FEF735FF40F6B830FFF796
:102F900043FD00F0B5FB00F073FB42F20F7141F608
:102FA0001F40FEF741FC00F0F9FC4BE02748007899
:102FB00001280BD100F000FD00202449087024A056
:102FC000FFF732F8FEF73EF800F0E8FC2248007800
:102FD00001280AD100F0F0FC00201F4908701F49A9
:102FE000087000F04DFB00F0D9FC1D480078012866
:102FF00028D100F0E1FC0020194908701948FDF7BC
:1030000016FE0446FF2C03D101201749087002E088
:103010000020154908700A2269461448FDF7CAFEC7
:103020001248C17812A0FEF7FFFF0DB1FFF740FF75
:103030003220FFF7F1FCFEF7A7F83220FFF7ECFC97
:1030400000F0ACFCB2E70000110DF30171000020AC
:10305000D6D8C6F40D0A00007200002061000020DE
:1030600056000020280000204D0900207600002096
:1030700050696E67204C6F737320526174653A25F6
:103080006425250D0A0000002DE9FC4704468A4608
:1030900016461D46DDF82880002700BF082C02DDFB
:1030A000781EBDE8FC8700BFA100491C002202EB8E
:1030B000C100FEF709FF814600F00F00022804D08E
:1030C000032803D0042803D101E000BF00BF02E0C1
:1030D0006FF00400E5E700BF00BF16B96FF00D0008
:1030E000DFE700BFA74830F81400E8B91AE020462F
:1030F000FFF708FD0746A100491C4FF4407202EBA0
:10310000C100FEF7E1FE10B96FF00300C9E701202E
:10311000A0409D490988084010B10FB90020C0E7C0
:1031200007B100E0E3E700BF00209849085509F027
:103130000700022804D003287DD004287CD157E062
:10314000904830F81400E8BB08226946204600F099
:10315000B7FCA100491C4FF4807202EBC100402172
:10316000FEF70AFF00BFA100491C4FF4807202EB7A
:10317000C100FEF7A9FE0028F5D19DF800002870D7
:103180009DF8010068709DF80200A8709DF803008A
:10319000E8709DF80400A8F800009DF8050098F874
:1031A000001000EB0120A8F800009DF8060075490A
:1031B00021F814009DF8070011F8141000EB01200D
:1031C000704900E004E021F8140080206F490855A0
:1031D0006C4830F81400B04201DD374602E069481F
:1031E00030F814703A465146204600F069FCA0E0E1
:1031F000644830F81400B0BB02226946204600F053
:103200005FFCA100491C4FF4807202EBC100402119
:10321000FEF7B2FE00BFA100491C4FF4807202EB22
:10322000C100FEF751FE0028F5D19DF80000554978
:1032300021F8140001E02AE073E09DF8010011F884
:10324000141000EB01204F4921F81400084630F813
:10325000140040F2EA51884206DD2046FFF774FB75
:103260006FF47A701DE702E0802048490855454810
:1032700030F81400B04201DD374602E0414830F832
:1032800014703A465146204600F01AFC51E03D4881
:1032900030F81400A8BB06226946204600F010FC56
:1032A000A100491C4FF4807202EBC1004021FEF7DF
:1032B00063FE00BFA100491C4FF4807202EBC10005
:1032C000FEF702FE0028F5D19DF8000028709DF859
:1032D000010068709DF80200A8709DF80300E87076
:1032E0009DF80400274921F814009DF8050011F805
:1032F000141000EB0120234921F8140080202349F9
:103300000855204830F81400B04201DD374602E08D
:103310001C4830F814703A465146204600F0D0FB65
:1033200007E03946204600F00DFC164820F81470DE
:1033300000BF00BFA100491C4FF4807202EBC10026
:103340004021FEF719FE00BFA100491C4FF4807216
:1033500002EBC100FEF7B8FD0028F5D1094830F8AE
:103360001400C01B074921F81400084630F8140067
:1033700028B10648005D40F0010004490855384670
:103380008FE600006E0900208000002084000020ED
:1033900000B131B9054A064B9A60064B044AD36026
:1033A00002E0034A9060D16070470000393C000899
:1033B0008C0000203B3C000800B131B9054A064BA7
:1033C0001A61064B044A536102E0034A10615161DD
:1033D000704700003F3C00088C0000203D3C000886
:1033E00000BF094A128802F40072002AF9D000B125
:1033F00031B9064A044B9A61054B034AD36102E096
:10340000014A9061D16170478C0000204F3D000857
:10341000533D000810B586B0044601210920FDF790
:1034200081FD01218804FDF76DFD4FF48060ADF84A
:10343000140018208DF8170003208DF8160005A938
:103440001C48FDF7D3F94FF40060ADF81400482094
:103450008DF8170005A91748FDF7C8F90194002059
:10346000ADF80800ADF80A00ADF80C00ADF810009A
:103470000C20ADF80E0001A90F48FEF74DFC2720E7
:103480008DF8000002208DF801008DF80200012067
:103490008DF803006846FDF7F1FA012240F225514C
:1034A0000548FEF713FC01210348FEF703FC06B0B4
:1034B00010BD0000000C0140004800402DE9F0471D
:1034C00004468A4615469846DDF8209000260027D7
:1034D00000BF082C02DD701EBDE8F08700BFA10010
:1034E000491C002202EBC100FEF7EEFC00F00F00C9
:1034F000022804D0032803D0042803D101E000BF30
:1035000000BF02E06FF00400E6E700BF00BF15B99E
:103510006FF00D00E0E700BFD8F8000010B96FF0C1
:103520000B00D9E7B9F1000F02D16FF00A00D3E721
:10353000A100491C4FF4407202EBC100FEF7C4FC2D
:103540000646422E06D0222E04D0322E02D06FF034
:103550000600C1E7A100491C4FF4406202EBC10024
:1035600004224146FEF72EFD4FEA2921A200521CFB
:103570004FF4805303EBC200FEF7FEFC09F0FF019D
:10358000A200521C4FF4805303EBC20202F580707C
:10359000FEF7F2FCA100491C4FF4F85202EBC10007
:1035A000FEF792FC4FF6FF7101EA8027BD4200DD75
:1035B0003D461CE02046FFF7DBFA0746A100491C08
:1035C0004FF4407202EBC100FEF77EFC10B96FF0C1
:1035D000030081E70120A04028490988084018B16C
:1035E000BD4201DD002077E7BD4200DC00E0E1E7FD
:1035F00000BF2A465146204600F0D7FAA100491CD8
:103600004FF4807202EBC1002021FEF7B5FC00BF31
:10361000A100491C4FF4807202EBC100FEF754FC7C
:103620000028F5D125E0A100491C4FF4007202EBFF
:10363000C100FEF749FC00F01F0606F0100048B17B
:10364000A100491C4FF4007202EBC1001021FEF7EB
:1036500093FC0FE006F0080058B1A100491C4FF49C
:10366000007202EBC1000821FEF786FC6FF00C002F
:1036700032E7D8E700BF28462EE700008000002090
:1036800010B512A0FEF7D0FCFDF76AFD4FF47A707A
:10369000FFF7C2F911A0FEF7C7FCFDF727FD4FF4B5
:1036A0007A70FFF7B9F911A0FEF7BEFCFDF72CFD0B
:1036B0004FF47A70FFF7B0F90FA0FEF7B5FCFDF7F5
:1036C000E3FD4FF47A70FFF7A7F910BDB9D8B1D573
:1036D0006D717474C1ACBDD30D0A0000B4B4BDA843
:1036E000D0C2C1ACBDD30D0A00000000B7A2CBCD43
:1036F000C7EBC7F30D0A0000B6A9D4C40D0A000039
:103700001FB500200090019002900390FDF7D4FDBA
:10371000FEF716F8FDF73CFEFDF762FEFDF712FE20
:10372000FDF7EAFDFDF782FE00240AE00849A01C2F
:10373000085C0DF804001DF8040006490855601CDB
:10374000C4B20F2CF2DB0449684600F011F91FBD2A
:1037500034050020340900204F09002010B586B040
:103760000446012144F20400FDF7DCFB4FF4007035
:10377000ADF8140003208DF8160018208DF81700FE
:1037800005A91C48FDF732F84FF48060ADF814002D
:1037900004208DF8170005A91648FDF727F8252005
:1037A0008DF8000002208DF801008DF80200012044
:1037B0008DF803006846FDF761F901940020ADF82B
:1037C0000800ADF80A00ADF80C00ADF810000C20B0
:1037D000ADF80E0001A90848FEF79EFA012240F25A
:1037E00025510548FEF772FA01210348FEF762FAF7
:1037F00006B010BD00080140003801402DE9F0413D
:1038000004460E4617461D4600BF082C03DD4FF048
:10381000FF30BDE8F08100BF012E06D0022E05D09A
:10382000032E05D0042E04D101E000BF00BF03E049
:1038300002E06FF00400ECE700BF05F0060010B1F5
:103840006FF00500E5E705B3012E02D0022E1AD174
:1038500006E005F0210010B96FF00500D9E713E08C
:1038600005F0200028B105F0800010B96FF00500C8
:10387000CFE705F0100028B105F0800010B96FF017
:103880000500C6E700E000BF00BF2046FFF75CF878
:1038900005F0F00242EA0601A200521C002303EBED
:1038A000C200FEF769FB7FB92C4807880088401CDE
:1038B0002A490880084600884FF6F071884203D1F3
:1038C0004FF44040254908803912A200521C4FF4A1
:1038D000806303EBC200FEF74FFBF9B2A200521C5B
:1038E0004FF4806303EBC20202F58070FEF744FBE5
:1038F000A100491C4FF4807202EBC1000121FEF7C8
:103900003BFB00BFA100491C4FF4807202EBC100D9
:10391000FEF7DAFA0028F5D105F00100A0401049C1
:10392000098808430E4908800120A0400D490988F4
:1039300081430C48018000200B4921F814000B49F9
:10394000085500BFA100491C4FF4407202EBC100B2
:10395000FEF7BAFA0028F5D060B25AE77E000020E0
:1039600080000020820000206E09002084000020DA
:103970002DE9F04105460E462C46002706E014F8D6
:10398000012BF01904A1FEF75FFB07442078002803
:10399000F5D1BDE8F0810000257800000020054940
:1039A000088004482438008840F001000149243987
:1039B00008807047240400400348008820F001007C
:1039C00001490880704700000004004000200149C0
:1039D000888470470010004000200449888408460D
:1039E000008840F00100088070470000001000408F
:1039F0000348008820F0010001490880704700005A
:103A00000010004000200149088070472414004045
:103A100000200549088004482438008840F001004F
:103A20000149243908807047241400400348008865
:103A300020F0010001490880704700000014004098
:103A400010B586B0044601213120FDF76BFA012143
:103A50000805FDF757FA4FF48050ADF81400182010
:103A60008DF8170003208DF8160005A91148FCF702
:103A7000BDFE0420ADF814008DF8170005A90E480E
:103A8000FCF7B4FE01940020ADF80800ADF80A0080
:103A9000ADF80C00ADF810000C20ADF80E0001A937
:103AA0000648FEF739F901210448FEF703F906B08C
:103AB00010BD000000100140001401400050004003
:103AC0002DE9F04704460F4616460025A8460EB9D4
:103AD000BDE8F087A100491C4FF4205202EBC10160
:103AE00001F58070FEF7F0F98146A100491C4FF402
:103AF000205202EBC100FEF7E7F909EB002085B286
:103B00002902A000C01C01EBC008324639464046DD
:103B1000FEF700FAA81985B22912A200521C4FF430
:103B2000205303EBC200FEF727FAE9B2A200521CB1
:103B30004FF4205303EBC20202F58070FEF71CFA2B
:103B400000BFC5E72DE9F04104460E460025A1005F
:103B5000491C4FF4205202EBC10101F58070FEF7C1
:103B6000B3F90746A100491C4FF4205202EBC100F3
:103B7000FEF7AAF907EB002085B2A81985B2291231
:103B8000A200521C4FF4205303EBC200FEF7F4F9DD
:103B9000E9B2A200521C4FF4205303EBC20202F51B
:103BA0008070FEF7E9F9BDE8F0812DE9F0470446A1
:103BB0000F4616460025A8460EB9BDE8F087A100BD
:103BC000491C4FF4105202EBC10101F58070FEF761
:103BD0007BF98146A100491C4FF4105202EBC10051
:103BE000FEF772F909EB002085B22902A000801CC3
:103BF00001EBC008324639464046FEF7E3F9A81902
:103C000085B22912A200521C4FF4105303EBC200DC
:103C1000FEF7B2F9E9B2A200521C4FF4105303EBC5
:103C2000C20202F58070FEF7A7F900BFC5E70146A2
:103C30000878704701707047704770477047704749
:103C40002DE9F04105460E46002700F083F8F5B156
:103C500000BF002404E0285D384447B2601C44B231
:103C6000082CF8DB102F03DD4FF0FF30BDE8F081AA
:103C700000240AE0295DA200521C4FF4F85303EB24
:103C8000C200FEF779F9601C44B2082CF2DBEEB1F9
:103C90000027002404E0305D384447B2601C44B281
:103CA000082CF8DB102F02DD4FF0FF30DEE7002498
:103CB0000AE0315DA200521C4FF4F05303EBC20046
:103CC000FEF75AF9601C44B2082CF2DB0020CDE765
:103CD00010B50446062221464FF41060FEF772F933
:103CE000042204F10E019001FEF76CF9042204F1A4
:103CF0000A014FF4A060FEF765F90422A11D4FF4FC
:103D00007060FEF75FF9A07C05490870E07C4870A0
:103D1000207D8870607DC870A07D0249087010BD4C
:103D2000AC000020B000002010B5044621784FF40C
:103D3000D850FEF721F9608801124FF4C850FEF701
:103D40001BF9A1784FF4D050FEF716F910BD0020F2
:103D50007047704700B585B0062269464FF4106081
:103D6000FEF7D8F8042204A99001FEF7D3F8042244
:103D700003A94FF4A060FEF7CDF8042202A94FF486
:103D80007060FEF7C7F880210020FEF7F5F80020EC
:103D9000FEF79AF8062269464FF41060FEF712F912
:103DA000042204A99001FEF70DF9042203A94FF49F
:103DB000A060FEF707F9042202A94FF47060FEF735
:103DC00001F905B000BD10B54FF43850FEF77CF88E
:103DD00000F0010008B1012400E00024204610BDDD
:103DE00000C1814001C0804101C0804100C18140CB
:103DF00001C0804100C1814000C1814001C08041BB
:103E000001C0804100C1814000C1814001C08041AA
:103E100000C1814001C0804101C0804100C181409A
:103E200001C0804100C1814000C1814001C080418A
:103E300000C1814001C0804101C0804100C181407A
:103E400000C1814001C0804101C0804100C181406A
:103E500001C0804100C1814000C1814001C080415A
:103E600001C0804100C1814000C1814001C080414A
:103E700000C1814001C0804101C0804100C181403A
:103E800000C1814001C0804101C0804100C181402A
:103E900001C0804100C1814000C1814001C080411A
:103EA00000C1814001C0804101C0804100C181400A
:103EB00001C0804100C1814000C1814001C08041FA
:103EC00001C0804100C1814000C1814001C08041EA
:103ED00000C1814001C0804101C0804100C18140DA
:103EE00000C0C101C30302C2C60607C705C5C4049A
:103EF000CC0C0DCD0FCFCE0E0ACACB0BC90908C80A
:103F0000D81819D91BDBDA1A1EDEDF1FDD1D1CDCF9
:103F100014D4D515D71716D6D21213D311D1D01069
:103F2000F03031F133F3F23236F6F737F53534F459
:103F30003CFCFD3DFF3F3EFEFA3A3BFB39F9F838C9
:103F400028E8E929EB2B2AEAEE2E2FEF2DEDEC2CB9
:103F5000E42425E527E7E62622E2E323E12120E029
:103F6000A06061A163A3A26266A6A767A56564A419
:103F70006CACAD6DAF6F6EAEAA6A6BAB69A9A86889
:103F800078B8B979BB7B7ABABE7E7FBF7DBDBC7C79
:103F9000B47475B577B7B67672B2B373B17170B0E9
:103FA00050909151935352929656579755959454D9
:103FB0009C5C5D9D5F9F9E5E5A9A9B5B9959589849
:103FC000884849894B8B8A4A4E8E8F4F8D4D4C8C39
:103FD00044848545874746868242438341818040A9
:103FE00001030008000245C9010500000000CDCA18
:103FF00001050000FF008C3A010200000200C80029
:104000000090F5F88AE5110DF3FDFFFFFF00110D9B
:10401000F30108080808010041542A4D434744456C
:1040200046434F4E543D224950222C2233474E45A1
:1040300054220D0A0000000041542B434D514E45BF
:10404000573D2236312E3138312E3235352E373725
:10405000222C223631363133222C31323030302C82
:104060003230300D0A0000008840000800000020B7
:10407000B4000000702000083C410008B40000209B
:10408000CC0C00008020000800A24A0400000000C0
:1040900000000000010203040607080900000000F8
:1040A00001020304010203040607080902040608CA
:1040B000110DF31A110DF31B110DF31C000000007C
:1040C00000000000000000000000000000000000F0
:1040D00000000000000000000000000000000000E0
:1040E00000000000000000000000000000000000D0
:1040F00038400008184000080000000000000000E0
:1041000000003412214300C0000000000000000045
:10411000000000000102573535303000393C0008FE
:104120003B3C00083F3C00083D3C00082F3C000899
:0C413000353C000800000000000000000A
:0400000508000131BD
:00000001FF
