:020000040800F2
:10000000F00A0020F1010008F9010008FB010008D6
:10001000FD010008FF0100080102000800000000C7
:1000200000000000000000000000000003020008C3
:10003000050200080000000007020008090200088D
:100040000B0200080B0200080B0200080B0200085C
:100050000B0200080B0200080B0200080B0200084C
:100060000B0200080B0200080B0200080B0200083C
:100070000B0200080B0200080B0200080B0200082C
:100080000B0200080B0200080B0200080B0200081C
:100090000B0200080B0200080B0200080B0200080C
:1000A0000B0200080B0200080B0200080B020008FC
:1000B0000B0200080B0200080B0200080B020008EC
:1000C0000B0200080B0200080B0200080B020008DC
:1000D0000B0200080B020008992400080B0200081C
:1000E0000B0200080B0200080B0200080B020008BC
:1000F0000B0200080B0200080B0200080B020008AC
:100100000B0200080B0200080B0200080B0200089B
:100110000B0200080B0200081521000861220008EC
:100120000B0200080B0200080B0200080B0200087B
:1001300000F002F800F04DF80AA090E8000C8244AC
:100140008344AAF10107DA4501D100F042F8AFF289
:10015000090EBAE80F0013F0010F18BFFB1A43F0A5
:10016000010318474834000068340000103A24BFE7
:1001700078C878C1FAD8520724BF30C830C144BF0C
:1001800004680C607047000000230024002500264E
:10019000103A28BF78C1FBD8520728BF30C148BFEA
:1001A0000B607047662903F06080642900F0B2801C
:1001B000732900F06284002070471FB500F09CFC9A
:1001C00004000020002102F011FCE0601FBD10B50A
:1001D00010BD00F08DFD1146FFF7EFFF02F066FB4A
:1001E00000F0ABFD03B4FFF7F2FF03BC02F02FFAFF
:1001F0000948804709480047FEE7FEE7FEE7FEE7BB
:10020000FEE7FEE7FEE7FEE7FEE7FEE704480549F6
:10021000054A064B70470000B52000083101000870
:10022000F0040020F00A0020F0060020F006002074
:10023000704700000FB4044910B503AA029800F0FB
:1002400021FC10BC5DF814FB080000200FB41CB5A5
:10025000074B06AA7B4469460090059800F0E3FB33
:100260000020694600F0F2FB1CBC5DF814FB0000A6
:10027000F507000070B5044685690068C10601D520
:10028000302600E02026C00707D070BDD4E9012148
:1002900030469047206A401C20626D1EF6D570BD26
:1002A00070B5044685690078C00707D170BDD4E9F0
:1002B000012120209047206A401C20626D1EF6D547
:1002C00070BD70B50C460546012A05D02878800619
:1002D00000D5EA69002302E0012305E05B1C93429C
:1002E00002D2E05C0028F9D1A869E618C01AA8611A
:1002F000286A184428622846FFF7BCFF04E0D5E9C5
:10030000012114F8010B9047B442F8D32846FFF7B7
:10031000C7FF70BD2DE9F04106460024106875291D
:10032000314616A510D0AFF30080002802DA404213
:1003300013A507E031688A0701D512A502E0490735
:1003400004D511A5012401E0AFF3008000210A22A9
:1003500006F1240709E0B0FBF2FCB0FBF2F302FB6C
:100360001C00303078541846491C0028F3D123462D
:100370002A463046BDE8F04100F0E9B80000000030
:100380002D0000002B000000200000002DE9F05F90
:10039000894604464FF0000ADFF824B1FB44C0F858
:1003A00020A02046E168884700287DD0252806D077
:1003B000D4E901219047206A401C2062F1E7002522
:1003C0005F462046E16888472028064607DB312E35
:1003D00005D2B81910F8200C08B10543F1E7A807B9
:1003E00001D525F00405C4F81CA00027C4F818A006
:1003F0002A2E09D0304602F023F938B304EB8708DF
:10040000303EC8F8186019E059F8041B204604EB88
:1004100087029161E1688847012F064618D1E0699B
:10042000002820DA25F020051DE0D8F8180000EBA0
:10043000800006EB40003038C8F818002046E1681C
:100440008847064602F0FCF80028EED1012F0AD0BA
:100450002E2E08D12046E16888477F1C0646022FD1
:1004600045F02005C4DBA069002803DA404245F0CE
:100470000105A061E80701D025F01005A6B1A6F19D
:100480004100192802D8203645F400654A46314615
:10049000204625604D46FFF785FE60B1012807D054
:1004A000ED1D25F0070000E007E000F1080978E7FE
:1004B00005F1040975E730467AE7206ABDE8F09F48
:1004C000F830000010B5431C02E010F8011B71B1B8
:1004D0008107FAD14FF0013202C88C1A8C4314EA1A
:1004E000C211F9D0C01A0A0603D0C01E10BDC01A2E
:1004F00010BD0A0401D0801E10BD0902FCD0401EB0
:1005000010BD4FF000020429C0F0128010F0030C5F
:1005100000F0CC82CCF1040CBCF1020F18BF00F843
:10052000012BA8BF20F8022BA1EB0C0100F0BEBAF2
:100530005FEAC17C24BF00F8012B00F8012B48BF03
:1005400000F8012B704770477047704770472DE9DE
:10055000F0470D4699469246044600F1240801688A
:10056000880604D5E06921F01001216000E0012037
:10057000A84201DD471B00E00027A1697A1902EBC0
:100580000900081AA0612078C00602D42046FFF7AF
:1005900071FE002608E0D4E901211AF80600904710
:1005A000206A401C761C20624E45F4DB2078C00691
:1005B0000AD52046FFF75EFE06E0D4E9012130208F
:1005C0009047206A401C2062381EA7F10107F4DC26
:1005D00007E0D4E9012118F805009047206A401C83
:1005E0002062281EA5F10105F3DC2046FFF758FE26
:1005F0002078000602D50220BDE8F0870120FBE745
:1006000070472DE9FF4F0C461E464FF0FF378BB069
:10061000D2E90001DDF860800A908A46C1F30A55EC
:1006200005B93D46002108464FF00000BAF1000F21
:1006300000F4400005DA00EB80004FF4400101EACD
:1006400050004FEA9059B9F1010F00DDB9460A9800
:1006500050EA4A000ED044F61050A5F2FF3545434B
:100660002F14B8F1000F1ED07542291E1EDDC9F1EE
:1006700000021CE0B8F1010F4FF0000001D0302162
:1006800003E0F24305E02154401CB042FBDB30465E
:100690000022002121540B99C1F80880C1E90020F3
:1006A0000FB0BDE8F08FBD1B6D1CDEE74A4600DAD7
:1006B000694206A800F0AAFA06AB93E8070003AB6C
:1006C00083E8070050460A9900F080FB8DE8070098
:1006D000A0F500501F3800900398002D09DD42F26C
:1006E0001F014A46084403A90390684600F0DFFD55
:1006F00008E0A0F500504A461F3803A90390684659
:1007000000F0E9FD8DE807000004000C03D04FF075
:10071000FF30410800E01046B8F1000F03D000227E
:10072000009215461EE0751E05D400F0E9F930323E
:1007300062556D1EF9D5B3460122084302D000224E
:100740007F1C04E02078302801D100227F1E002A7F
:10075000099786D01DE0112D07DA00F0D1F930326B
:1007600062556D1C50EA0102F5D1084302D0009891
:10077000C8B10EE00021681E05E0235C625C635492
:100780002254401E491C8142F7DBAB46A81B401E89
:100790000990002004F80B000B98099AC0F8088013
:1007A000C0E9002B7CE711264FF0000859E72DE93E
:1007B000F04F88460446D21D22F0070191B0D1E9DE
:1007C0000001CDE90A0101F027FF02460B98C00F96
:1007D00001D02D2007E02068810701D52B2002E001
:1007E000202101EAC000032A099001D0072A05DB75
:1007F00003464146204600F0C9F90BE12078800607
:1008000001D5E06900E00620B8F1650F814606D009
:10081000B8F1660F18D0B8F1670F70D131E0002041
:10082000B9F1110F009001DB112301E009F101037F
:100830000AAA01A90CA8FFF7E4FEDDE90C70002666
:1008400009F10105834647E001204B4600904FF037
:1008500000470AAA01A90CA8FFF7D3FEDDE90DB0F5
:100860000C995D46002610B909F101000D18B9EB8D
:10087000050003D4C0F1FF3609F10105A5EB09001D
:100880002BE0B9F1010F01DA4FF001090020B9F1B5
:10089000110F0090484601DD112300E003460AAA2B
:1008A00001A90CA8FFF7ADFEDDE90C704D4600264E
:1008B0008346207800070AD4AB4500DA5D4601A8DC
:1008C000012D04DD411911F8011C302907D04F45D5
:1008D00002DA17F1040F04DA012082460FE06D1EE0
:1008E000EEE7002F02DCED1B3E4403E0781CA8423B
:1008F00000DD7D1CB81B00F1010A4FF00047207895
:10090000000703D4AA4501DB4FF0FF3A0021B7F1FD
:10091000004F0DF143088DF8431024D002202B2303
:10092000002F01DA7F422D230A21021EA0F10100CF
:1009300000DC5FB197FBF1FC97FBF1F201FB1C7C43
:1009400017460CF1300C08F801CDEEE7A8F10100D4
:1009500003702188090501D5452100E06521A0F13A
:10096000010800F8011C09980FA9A1EB0807FF1D59
:1009700000B10120411901EBEA70A1693844081A5D
:10098000401EA0612078C00602D42046FFF772FC0A
:10099000099828B1D4E901219047206A401C2062BF
:1009A0002078C00622D52046FFF764FC1EE0002E0A
:1009B00004DBB34502DD01A8805D00E03020D4E90E
:1009C00001219047206A401C2062761CAAF1010098
:1009D0005FEA000A0AD100F08FF8C0680168405C45
:1009E000D4E901219047206A401C2062281EA5F10D
:1009F0000105DCDC07E0D4E9012118F8010B904780
:100A0000206A401C2062381EA7F10107F3DC204653
:100A1000FFF746FC032011B043E6000001694A1CC1
:100A200002610878704700B58FB0CDE9013100212F
:100A3000059105497944CDE9031011466846FFF751
:100A4000A5FC0FB000BD0000E5FFFFFF0A6802F83B
:100A5000010B0A60704710B5436913B1AFF3008012
:100A600001E0FFF72EFC012010BD127800F12401F7
:100A70000A7000224A700122EDE711684FF0FF3240
:100A8000E9E70000074B70B50D467B44FFF7CBFF4D
:100A90000446284601F038FE10B14FF0FF3070BD1B
:100AA000204670BD831C00004FF0000200B51346C5
:100AB00094469646203922BFA0E80C50A0E80C507E
:100AC000B1F12001BFF4F7AF090728BFA0E80C502F
:100AD00048BF0CC05DF804EB890028BF40F8042B28
:100AE00008BF704748BF20F8022B11F0804F18BF95
:100AF00000F8012B7047000000487047B004002048
:100B000030B5B0F10A024FEA900E71F100034EEADF
:100B1000817EB0EB0E0061EB91014FEA101E4EEAB0
:100B2000017E10EB0E0041EB11114FEA102E4EEA40
:100B3000016E10EB0E0041EB11214FEA104E4EEA10
:100B4000014E10EB0E0041EB1141401841F1000144
:100B50004FEAD00040EA41704FEAD10110EB800526
:100B60004FEA810444EA907444EB01046D1944EBAC
:100B70000404521BA3414FF0000348BF0A3200D5C2
:100B800030BD401C41F1000130BD00002DE9F041B5
:100B90001F46044603260168072A01F4006004DBAF
:100BA00008B116A505E016A503E008B115A500E0FB
:100BB00015A521F010002060A069C01EA0610FB132
:100BC000401EA0612046FFF755FB4FB1D4E901213B
:100BD00038469047206A401C2062C01C206206E014
:100BE000206AFAE7D4E9012115F8010B9047761E37
:100BF000F8D22046FFF754FBBDE8F0814E414E008D
:100C00006E616E00494E4600696E66002DE9F04740
:100C1000814616468AB0334878440DC88DE80D00E9
:100C200030487844801C03AC0DC884E80D0041F6C0
:100C30009B300844372190FBF1F290FBF1F5A5F1D0
:100C4000800501FB12041B3C02D56442012000E038
:100C50000020DFF890A080460027FA44AAF1BE0ADF
:100C60000DE0E00709D03246684607EB47010AEB82
:100C7000810100F030FB8DE8070064107F1C002C20
:100C8000EFD1184F7F44AC3F18E0E80714D007EBD2
:100C900004100DF1180A90E80E008AE80E00C068F2
:100CA000F04201D198190890324606A903A800F035
:100CB00012FB03AB83E807006D10641C002DE4D128
:100CC00032466946B8F1000F03A802D000F0EFFAEF
:100CD00001E000F000FBC9E90001C9F808200AB0F2
:100CE000BDE8F0870C290000004870479004002000
:100CF0007546FFF7F9FFAE4605006946534620F0FA
:100D00000700854618B020B5FFF780FABDE82040FF
:100D10004FF000064FF000074FF000084FF0000BB7
:100D200021F00701AC46ACE8C009ACE8C009ACE86A
:100D3000C009ACE8C0098D46704710B50446AFF352
:100D400000802046BDE81040FFF74CBA4FF0013C50
:100D500050F8042B51F8043B9A4221D1A2EB0C032A
:100D6000934313EACC1317D150F8042B51F8043BEA
:100D70009A4215D1A2EB0C03934313EACC130BD187
:100D800050F8042B51F8043B9A4209D1A2EB0C0312
:100D9000934313EACC13DBD04FF00000704700BF41
:100DA000D01A01BAB1FA81F101F0180122FA01F06A
:100DB000CB40C1F12001DBB2C0B2C01A2CFA01F362
:100DC000D11A914311EAC311E6D170475FEA400C92
:100DD00008BF91F0000F4FEA8C234FEAC12243EA8B
:100DE00051514FEA1C5018BF00F5F0404FEA300057
:100DF00018BF41F000415FEA6C5C00F02980BCF153
:100E0000FF3F08BF40F080407047130C06BF12043C
:100E10004FF0100C4FF0000C130E04BF12020CF137
:100E2000080C130F04BF12010CF1040C930F04BF44
:100E300092000CF1020CD30F04BF52000CF1010C14
:100E400011464FF00002A0F11F00A0EB0C0070470C
:100E500011F0004F08BF704731F000413FF4D5AFAB
:100E60000B0C06BF09044FF0100C4FF0000C0B0EDA
:100E700004BF09020CF1080C0B0F04BF09010CF1AF
:100E8000040C8B0F04BF89000CF1020CCB0F04BFC4
:100E900049000CF1010CCCF12003A0EB0C0022FA6C
:100EA00003F302FA0CF241EA030100F1010070477A
:100EB00020F07F4C80EA030023F07F47ACEB070370
:100EC00003F57C5300F0004003F1FF032DE9804956
:100ED0004FEA154B09B44FEA144325EA0B4E24EAB6
:100EE00003480FF2042606EB132749083E785FEA11
:100EF000320203FB0667C7F5000707FB06F64FEA59
:100F000054374FEAD64606F1020607FB066CCCF1D1
:100F1000005C4FEA1C472CEA074C07FB06F40CFB6D
:100F200006F504EB15464FEA961634BF00204FF045
:100F300000404FEAD13706FB07FC4FEA1C4C0CFB84
:100F40000BF7D21B03FB0CF761EB07010CFB0EF751
:100F5000B0EB074072EB17420CFB08F734BFA2EB73
:100F60000742B2EB074261EB17414FEA0C444FEAEC
:100F7000910706FB07FC4FEA1C4C0CFB0BF7B0EB90
:100F8000C74072EB573203FB0CF734BFA2EBC742EA
:100F9000B2EBC74261EB57310CFB0EF7B0EBC70069
:100FA00072EB57720CFB08F734BFA2EBC702B2EB2F
:100FB000C70261EB5771039F4FEA816141EA9211C9
:100FC00004EBCC044FEAD1374FEA826206FB07FC00
:100FD00042EA90124FEA80604FEA1C4C0CFB0BF780
:100FE000D21B03FB0CF761EB07010CFB0EF7B0EB18
:100FF000074072EB17420CFB08F734BFA2EB074225
:10100000B2EB074261EB17414FEA8C554FEA91076B
:1010100004EB9C2406FB07FC4FEA1C4C0CFB0BF773
:10102000B0EBC74072EB573203FB0CF734BFA2EBB7
:10103000C742B2EBC74261EB57310CFB0EF7B0EB86
:10104000C70072EB57720CFB08F734BFA2EBC70264
:10105000B2EBC70261EB577115EB4C254FEA81618A
:1010600041EA92114FEA82624FEAD13742EA901286
:1010700006FB07FC44F100044FEA80604FEA1C4C79
:101080000CFB0BF7D21B03FB0CF761EB07010CFB0E
:101090000EF7B0EB074072EB17420CFB08F734BFBA
:1010A000A2EB0742B2EB074261EB174115EB1C15AF
:1010B0004FEA813141EA92414FEA823242EA90425C
:1010C0004FEA80304FEA0C7644F1000448EA0343CB
:1010D0004EEA0B484FF0000EB2EB080C71EB030721
:1010E00024BF624639464EEB0E0E4FF0000B00183F
:1010F000524149414BEB0B0BB2EB080C71EB030770
:101100007BF1000B24BF624639464EEB0E0E4FF0CA
:10111000000B0018524149414BEB0B0BB2EB080C92
:1011200071EB03077BF1000B24BF624639464EEB9F
:101130000E0E51EA020718BF46F0010616EB0E76B6
:1011400055F1000254F1000103D5BDE88901BDE865
:101150000088BDE88901BDE80048B619524141EB5D
:101160000101A3F10103704780807F7E7D7C7B7A43
:101170007978777676757473727171706F6E6E6D43
:101180006C6C6B6A6A6968686766666564646363E9
:1011900062616160605F5F5E5E5D5D5C5C5B5B5A6F
:1011A0005A595958585757565655555554545353DC
:1011B00052525251515050504F4F4F4E4E4D4D4D37
:1011C0004C4C4C4B4B4B4A4A4A4949494848484782
:1011D00047474746464645454544444444434343C0
:1011E0004342424242414141002B26D4770021D064
:1011F0001CB54FEA370703B44FF010004FF0100151
:101200004FF000000FBCBDE810400BF1010BBBF12B
:10121000010F08BF5FEA170722BF12F1010211F1A7
:1012200001014FF0004143F1000300F0004043EAA8
:1012300000007047F9D35708DAE746EA064613F18B
:10124000400F4FEA16461FDD13F1200FDFBF164394
:101250000A46002120335B42C8D0C3F1200746EA8A
:10126000064602FA07F74FEA164646EA0706C3F1B2
:10127000200722FA03F201FA07F721FA03F14FF0EF
:10128000000342EA0702B1E746EA020646EA0646DA
:101290004FEA164646EA0106BCBF46EA0646360C49
:1012A0004FF000034FF000024FF000019EE72DE9E0
:1012B000C048934630B491E8380007C831EA400C82
:1012C00048BF34EA430C03D5FFF7F2FDFFF78CFF6C
:1012D000F0BCBDE800882DE9C048934630B491E8E1
:1012E000380007C810F0804F08BF13F0804F03D1BB
:1012F00000F005F8FFF778FFF0BCBDE8008820F0AB
:101300007F4780EA030023F07F4C07EB0C03A3F533
:101310007C5300F00040A3F1FE0392F0000F00F0B8
:10132000B38095F0000F00F077802DE901494FEA76
:1013300011404FEA144621EA004800FB06FC24EA6B
:10134000064708FB06F607FB08F800FB07F718EB53
:1013500006484CEB164C4FEA124B18EB07484FEA85
:1013600015464CEB174022EA0B4E0BFB06FC25EA18
:1013700006470EFB06F607FB0EFE0BFB07F71EEB00
:10138000064E4CEB164C4FF000061EEB074E4CEB96
:10139000174B18EB0B0840F1000018EB0E0B58EB45
:1013A000000840F100008F1A4FF000013CBFC94314
:1013B000661B14BFB5EB040C00213CBFC943F61BF0
:1013C0004FEA17444EEA8E0E27EA04454FEA1C47BF
:1013D00004FB07622CEA074C05FB07F70CFB05F63C
:1013E00004FB0CFC16EB074642EB174216EB0C46CF
:1013F00042EB1C421BEB060658EB0202414146EA57
:101400009E0601D5BDE80189B619524141EB0101A3
:10141000A3F10103BDE801894FEA14454FEA1147E2
:1014200024EA054621EA074C05FB07F406FB07F70B
:101430000CFB06F105FB0CFC11EB074144EB1744D8
:101440004FEA124711EB0C4144EB1C4422EA074CD3
:1014500005FB07F206FB07F70CFB06F605FB0CFC89
:1014600016EB074642EB174216EB0C4642EB1C45C7
:101470006A1854F1000148BF7047B619524141EB58
:101480000101A3F10103704795F0000F37D04FEA37
:1014900011424FEA144721EA024624EA074C02FBB4
:1014A00007F106FB07F70CFB06F402FB0CFC14EB40
:1014B000074441EB17414FEA154714EB0C4441EB4D
:1014C0001C4125EA074C02FB07F506FB07F70CFB5E
:1014D00006F602FB0CFC16EB074645EB174516EB30
:1014E0000C4645EB1C42121951F1000148BF7047F0
:1014F000B619524141EB0101A3F1010370474FEAD4
:1015000014454FEA114724EA054621EA074C05FB3A
:1015100007F106FB07F70CFB06F24FF0000605FB90
:101520000CFC12EB074241EB174112EB0C4251EB62
:101530001C4148BF7047921841EB0101A3F1010320
:101540007047014648780A7840EA02207047000058
:1015500070B502460C46FF25FF2309E012F8010B87
:1015600080EA05010648405C80EA03050548435CC3
:10157000201EA4F10104F1D143EA052070BD000052
:101580006E3200086E3300082DE9F04F93B000F082
:1015900085F82D49886901F081FB04460D462A49EA
:1015A000486901F07BFB06460F462749086901F0B0
:1015B00075FB804689462449C86801F06FFB824666
:1015C0008B462149886801F069FBCDE910011E496D
:1015D000486801F063FBCDE90E011B49086801F082
:1015E0005DFBCDE904ABCDE90689CDE90867CDE91E
:1015F0000A45CDE90C01DDE91001CDE90201DDE983
:101600000E01CDE9000111491148DDE90C23FEF777
:101610001DFE10481049114B0D4ACDE9001010A1D4
:101620001046FEF713FE0123094A10A11046FEF7EB
:101630000DFE074914A001F07FF8054914A0FEF73C
:10164000F9FD13B0BDE8F08F7404002040350008A8
:10165000DA0100203204002000040020CE03002024
:1016600025732573257325737D5D2C002573224416
:1016700065764944223A225447444C253034644527
:10168000502D4143227D000025730D0A000000000B
:10169000456E645374723D25730D0A002DE9FE4FAB
:1016A0007649888801F082FC06467449088801F072
:1016B0007DFC07467149088901F078FC804639466F
:1016C00001F088FC0546314601F084FC04466C4973
:1016D00001F072FB6B4908606849888801F066FC7C
:1016E00006466649088801F061FC07466349488957
:1016F00001F05CFC8046394601F06CFC0546314641
:1017000001F068FC04465E4901F056FB5D49486003
:101710005A49888801F04AFC06465849088801F071
:1017200045FC07465549888901F040FC804639460A
:1017300001F050FC0546314601F04CFC044650498E
:1017400001F03AFB4F4988604C49C88801F02EFCF3
:1017500007464A49488801F029FC80464749C8891C
:1017600001F024FC8146414601F034FC064646491E
:1017700001F022FB0546394601F02CFC04464049A5
:1017800001F01AFB3F49C8603C49C88801F00EFCD3
:1017900007463A49488801F009FC80463749088ADB
:1017A00001F004FC8146414601F014FC064636492E
:1017B00001F002FB0546394601F00CFC04463049B5
:1017C00001F0FAFA2F4908612C49C88801F0EEFBB4
:1017D00007462A49488801F0E9FB80462749488A9C
:1017E00001F0E4FB8146414601F0F4FB0646264940
:1017F00001F0E2FA0546394601F0ECFB04462049C7
:1018000001F0DAFA1F4948611C49C88801F0CEFB93
:101810001A490290488801F0C9FB82461749888816
:1018200001F0C4FB83461549088801F0BFFB13494A
:101830000190B1F9140001F0A1FB0090019901F0B1
:10184000C9FB8146594601F0C5FB8046514601F06F
:10185000C1FB07460C4901F0AFFA0646029901F0B8
:10186000B9FB0546094901F0B5FB0446044901F0FE
:10187000A3FA04498861BDE8FE8F0000C40100207E
:1018800000401C467404002000002041000040403D
:1018900010B54FF4E131242000F02CFE10BD000003
:1018A00010B54648007820B10C286CD040287ED175
:1018B00029E013214248FFF74BFE4149097D404A88
:1018C000D27C41EA0221884219D13D4CE41D2046D8
:1018D000FFF737FE3B490880A41C2046FFF731FE86
:1018E00038494880241D2046FFF72BFE3549888063
:1018F000A41C2046FFF725FE3249C88002E032A032
:10190000FEF798FC54E025212D48FFF721FE2C49D5
:1019100091F826102A4A92F8252041EA02218842AD
:101920002DD1274CE41C2046FFF70BFE25490881EA
:10193000A41C2046FFF705FE22494881A41C20462E
:10194000FFF7FFFD1F498881A41C2046FFF7F9FD22
:101950001C49C881A41C2046FFF7F3FD19490882E1
:10196000A41C2046FFF7EDFD16494882A41C204622
:10197000FFF7E7FD00B213498882A41C02E012A021
:10198000FEF758FC14E00B210D48FFF7E1FD0C4970
:10199000097B0B4AD27A41EA0221884203D1084CE2
:1019A000E41C03E003E008A0FEF744FC00E000BFF5
:1019B00000BF40210248FEF7A4FD10BD1600002024
:1019C00034000020C40100203438350070B50646CC
:1019D0000C46154600201C4908700846017800781E
:1019E000401C194A107019484654032216480178C1
:1019F0000078401C144B18701448425421121846A9
:101A000002780078401C18701048815418460278FB
:101A10000078401C18700D4884542A12184601782A
:101A20000078401C18700948425418460278007823
:101A3000401C18700548855400F00EF804490D70DC
:101A400004490C7070BD000010000020FC00002054
:101A5000150000201600002010B50E4801780E4831
:101A6000FFF776FD044621120A4802780078401CF0
:101A7000084B187008488154184602780078401CBA
:101A800018700548845418460178034800F0F6F8A9
:101A900010BD000010000020FC000020024901439E
:101AA000024A1160704700000000FA050CED00E0EA
:101AB0002DE9F84F04460D4669484443694880695A
:101AC00040F00400674988616748006820F470604E
:101AD000654908600846006840F4306008600846C0
:101AE000006820F4704008600846006840F48040B8
:101AF00008605C48C06940F400305A49C861084633
:101B0000006940F4003008610846006920F40030A4
:101B100008615648008840F400505449088008463F
:101B2000008820F480500880081D008820F4405070
:101B3000091D0880284601F039FA8146204601F047
:101B400035FA8246494601F037F980464FF0834125
:101B500001F032F90646304601F0F0F987B2384616
:101B600001F024FA8246314601F000FB81464FF035
:101B7000834101F02FFA804601F0E0F980B2009035
:101B8000009800EB07103949091F0880262005221C
:101B90004FF0020CE0461346C3F1070BBBF1040FF4
:101BA00002D94FF0040B01E0C3F1070BDA4603F151
:101BB000040BBBF1070F02D24FF0000B01E0A3F1C1
:101BC000030BD9464FF0010B0BFA0AFBABF1010BEB
:101BD0000BEA0C0B0BFA09FB4FF0010E0EFA09FE93
:101BE000AEF1010E0EEA080E4BEA0E0100BF00280E
:101BF00009DA0A074FEA126C1D4A00F00F031B1F97
:101C000002F803C003E00A07130E1A4A135400BF78
:101C1000262000F01F02012191404209920002F1AA
:101C2000E022C2F8001100BF1048008840F02000F8
:101C30000E4908800846008840F0080008800846E1
:101C4000008840F00400088041F61F41632000F046
:101C500021FB00200849088000F0BEFEBDE8F88F97
:101C600040420F0000100240000801400C440040B8
:101C700018ED00E000E400E01200002010B502467C
:101C800000200CE000BF074B1B8803F04003002B33
:101C9000F9D0135C034C241D2380431CD8B2884226
:101CA000F0DB10BD0044004010B5082200210A48B6
:101CB0000078FFF78BFE642000F0ECFC07480088FA
:101CC00000F4004020B1FFF7EBFD0020034908803D
:101CD000322000F0DFFC10BD1400002012000020B4
:101CE00010B5112240210A480078FFF76FFEC82086
:101CF00000F0D0FC0748008800F4004020B1FFF756
:101D0000CFFD002003490880642000F0C3FC10BD13
:101D1000140000201200002010B508211A48FFF717
:101D2000ADFF642000F0B6FC1848008800F40040C5
:101D3000F0B105211648FFF70BFC15498979144AC3
:101D4000527941EA022188420ED111480179C078C6
:101D500001EB002084B222460EA11248FEF776FA6B
:101D6000104911A0FEF766FA00200849088006E035
:101D700010A10C48FEF76AFA11A0FEF75BFA3220B8
:101D800000F088FC10BD000021000020120000209F
:101D90003400002022536D6F6B223A222564222CDE
:101DA0000000000000040020536D6F6B5F737472BD
:101DB0003D25730022536D6F6B223A225F222C0067
:101DC00073656E64636F6D616E64736D6F6B0D0A26
:101DD000000000002DE9FC5F08213048FFF74EFFAE
:101DE000642000F057FC2E48008800F400400028D2
:101DF00048D007212B48FFF7ABFB2A49097A294A2B
:101E0000D27941EA0221884238D126480179C07846
:101E100001EB002084B2204600F02FFE0746224A44
:101E2000224B00F03DFE824600F0F6FD06461D48BE
:101E30008179407901EB002085B2284600F01DFE33
:101E40000746194A194B00F02BFE824600F0E4FDCC
:101E50008146484600F022FF07468846304600F09B
:101E60001DFF824652460B4611A11948CDE9007864
:101E7000FEF7ECF9164917A0FEF7DCF90020084937
:101E8000088006E016A11248FEF7E0F91AA0FEF756
:101E9000D1F9322000F0FEFBBDE8FC9F19000020C4
:101EA00012000020340000209A9999999999B93F1D
:101EB0002254656D70223A2225302E3166222C2262
:101EC00048756D69223A2225302E3166222C000099
:101ED000CE03002054656D705F7374723D257300EE
:101EE0002254656D70223A225F222C2248756D695A
:101EF000223A225F222C000073656E64636F6D616D
:101F00006E6454656D700D0A0000000010B5082164
:101F10001A48FFF7B3FE642000F0BCFB18480088A5
:101F200000F40040F0B105211648FFF711FB1549F8
:101F30008979144A527941EA022188420ED1114826
:101F40000179C07801EB002084B222460EA112482C
:101F5000FEF77CF9104911A0FEF76CF90020084942
:101F6000088006E011A10C48FEF770F912A0FEF7F8
:101F700061F9322000F08EFB10BD00002900002026
:101F80001200002034000020225761746572223A4A
:101F9000222564220000000032040020576174658D
:101FA000725F7374723D25730000000022576174E4
:101FB0006572223A225F220073656E64636F6D6101
:101FC0006E6457617465720D0A00000010B500F070
:101FD00001F810BD0CB50020019000903348006856
:101FE00040F480303149086000BF3048006800F498
:101FF000003000900198401C0190009818B9019899
:10200000B0F5A06FF1D12948006800F4003010B19C
:102010000120009001E0002000900098012843D1A9
:102020002348006840F01000214908600846006815
:1020300020F0030008600846006840F002000860D5
:102040001A48406819494860084640684860084690
:10205000406840F4806048600846406820F47C1086
:1020600048600846406840F4E81048600846006848
:1020700040F08070086000BF0C48006800F00070FD
:102080000028F9D00948406820F00300074948605B
:102090000846406840F00200486000BF03484068BE
:1020A00000F00C000828F9D10CBD0000001002401F
:1020B0000020024010B51348006840F001001149AB
:1020C000086008464068104908400E4948600846C4
:1020D00000680E4908400B4908600846006820F473
:1020E000802008600846406820F4FE0048604FF4F5
:1020F0001F008860FFF76AFF4FF000600449086026
:1021000010BD0000001002400000FFF8FFFFF6FEC7
:1021100008ED00E00C48008A00F0010098B10A4880
:10212000008A20F001000849088208480088401E03
:102130000649088008460088012804D13920088013
:102140000120034908707047001000400E00002075
:102150000C0000202DE9F04704460D463B48C069BD
:1021600040F010003949C8613948048585850088E8
:1021700040F08000364908800846808A40F001001F
:1021800088824FF6FE7008820846808940F0010080
:102190008881052002462F4B19684FF6FF0319402E
:1021A0002D4B0B4343EA02212A4B196000BF362016
:1021B0000522022637461346C3F10709B9F1040F79
:1021C00002D94FF0040901E0C3F10709C84603F141
:1021D0000409B9F1070F02D24FF0000901E0A3F1A1
:1021E0000309CC464FF0010909FA08F9A9F10109E0
:1021F00009EA060909FA0CF94FF0010A0AFA0CFA81
:10220000AAF1010A0AEA070A49EA0A0100BF0028FE
:1022100008DA0A07160E0F4A0C3200F00F031B1FD4
:10222000D65403E00A07130E0C4A135400BF36209D
:1022300000F01F02012191404209920002F1E022C8
:10224000C2F8001100BFBDE8F08700000010024096
:10225000001000400CED00E00000FA0500E400E092
:1022600000B50A48008800F0010068B108480088FD
:1022700040F40040064908800448008820F001002E
:102280000249088000F0A8FB00BD000010140040C7
:10229000120000202DE9F04704460D463848C06979
:1022A00040F020003649C86136480580001D048092
:1022B00034482838008840F08000324928390880A6
:1022C00030481438008840F001002E491439088045
:1022D0004FF6FE70091F0880081F008840F00100BB
:1022E000091F088037200522022637461346C3F10E
:1022F0000709B9F1040F02D94FF0040901E0C3F155
:102300000709C84603F10409B9F1070F02D24FF0DB
:10231000000901E0A3F10309CC464FF0010909FAD5
:1023200008F9A9F1010909EA060909FA0CF94FF0BF
:10233000010A0AFA0CFAAAF1010A0AEA070A49EAAA
:102340000A0100BF002807DA0A07160E0E4A00F03D
:102350000F031B1FD65403E00A07130E0B4A135436
:1023600000BF372000F01F02012191404209920076
:1023700002F1E022C2F8001100BFBDE8F0870000C2
:10238000001002402814004018ED00E000E400E0D6
:102390002DE9F05F04460D463B4844433B488069C5
:1023A00040F00400394988613948006820F0F000A5
:1023B000374908600846006840F0B00008600846E9
:1023C000006820F4706008600846006840F400600F
:1023D00008602F480830006840F480602C490831BC
:1023E00008602A48806940F480402849886108468E
:1023F000C06840F48040C8600846C06820F480404F
:10240000C8602448008840F40050224908800846EB
:10241000008820F480500880081D008820F4405077
:10242000091D0880284600F0C1FD8246204600F0C4
:10243000BDFD8346514600F0BFFC81464FF083410D
:1024400000F0BAFC0646304600F078FD87B2384608
:1024500000F0ACFD8346314600F088FE82464FF026
:10246000834100F0B7FD814600F068FD804608EB2F
:1024700007100849091F0880081D008840F008005F
:10248000091D0880BDE8F09F40420F000010024087
:10249000040801400C38014010B51248008800F0D3
:1024A0002000F0B10F48001D0088C4B20E4800881B
:1024B000C82810DA00200D4908800B48008808B9A8
:1024C00000F07CFA084801880088401C064A108009
:1024D0000748445405E00448008840F4004002499D
:1024E000088010BD00440040120000202414004069
:1024F000340000202DE9F05F04460D463B4844437C
:102500003B48806940F008003949886139480068D3
:1025100020F47060374908600846006840F4306075
:1025200008600846006820F47040086008460068AB
:1025300040F4004008602F480830006840F4006014
:102540002C49083108602A48C06940F48020284995
:10255000C8610846006940F48020086108460069A7
:1025600020F4802008612448008840F4005022496B
:1025700008800846008820F480500880081D0088E4
:1025800020F44050091D0880284600F00FFD8246C7
:10259000204600F00BFD8346514600F00DFC8146BD
:1025A0004FF0834100F008FC0646304600F0C6FCC0
:1025B00087B2384600F0FAFC8346314600F0D6FD7B
:1025C00082464FF0834100F005FD814600F0B6FCE5
:1025D000804608EB07100849091F0880081D00887D
:1025E00040F00800091D0880BDE8F09F40420F0040
:1025F00000100240040C01400C48004000BF054997
:10260000098801F040010029F9D00249091D08801C
:102610007047000000480040490050EAC12018BF40
:1026200004204A0D18BF40F0010040F2FF72B2EBE7
:10263000515F08BF40F00200012808BF0520704725
:1026400030380A2801D20120704700207047014627
:1026500000BF70474FF0E021096921F004014FF0FD
:10266000E0221161C21700EB5272C2F3C702074B9E
:102670001A701946097801EB4102C2EBC1114FF6FD
:10268000FF7202EAC101024A118070470000002077
:102690000200002070B504464FF47A7094FBF0F00D
:1026A000C6B24FF47A7094FBF0F100FB114085B292
:1026B00005E04FF47A7000F009F8701EC6B2002EE3
:1026C000F7D115B1284600F001F870BD01460D4A5A
:1026D00012884A434FF0E0235A6100229A611A4659
:1026E000126942F001021A6100BF4FF0E022106946
:1026F00000F48032002AF8D000224FF0E0231A6163
:102700009A6170470200002001464FF0FF30704789
:10271000054B188000BF044A121F128802F0800285
:10272000002AF8D0704700000438014000B5024686
:102730001046FFF763FF00BD0FB42DE9F0419AB0DA
:1027400021A800909DE0209800785C281BD120985B
:10275000401C2090209800786E2808D072280DD157
:102760000D20FFF74BFF2098401C20900AE00D2021
:10277000FFF744FF2098401C209003E02098401C65
:10278000209000BF7DE020980078252873D1209804
:10279000401C209020980078342806D064281DD052
:1027A000662834D0732860D150E0009850F8048B2C
:1027B0000090424638A101A8FDF748FD002404E03E
:1027C00001A9085DFFF7B2FF641C01A8FDF77AFEBE
:1027D000A042F5D82098401C20904AE0009850F87C
:1027E000048B009042462EA101A8FDF72FFD002486
:1027F00004E001A9085DFFF799FF641C01A8FDF73B
:1028000061FEA042F5D82098401C209031E000984D
:10281000C01D20F007000090D0E90067083000904C
:1028200032463B461FA101A8FDF710FD002404E03D
:1028300001A9085DFFF77AFF641C01A8FDF742FEBD
:10284000A042F5D82098401C209012E0009820C8A3
:10285000009003E015F8010BFFF768FF28780028C7
:10286000F8D12098401C209003E02098401C209034
:1028700000BF06E0FFE7209911F8010B2091FFF758
:1028800055FF2098007800287FF45DAF1AB0BDE8AE
:10289000F0015DF814FB00002530346400000000F6
:1028A00025640000252E31660000000008B54FF4B5
:1028B000A060FFF7F3F84FF416514820FFF768FDCA
:1028C0004820FFF7C7FE42F20F7141F61F40FFF7A5
:1028D00041FC4FF416512420FFF7EAF841F288300A
:1028E000FFF7D8FEFFF7E0F91C4840880A2190FB6B
:1028F000F1F41A48C088009018488388018822465D
:1029000017A0FDF797FCFEF7C3FF4FF4FA60FFF73F
:10291000C1FE00F03DF820E01C48007801281CD1E1
:1029200000F042F8002019490870FFF7D9F94FF478
:102930007A70FFF7AFFEFFF74DFA4FF47A70FFF7AA
:10294000A9FEFFF7E9F94FF47A70FFF7A3FEFFF74E
:10295000DDFAFEF719FE00F01BF8DDE7C4010020E8
:10296000225573223A222564222C224973223A22CC
:102970002564222C22554242223A222564222C220E
:10298000494242223A222564220000000C00002025
:102990000020044988840846008840F0010008802F
:1029A00070470000001000400348008820F001003C
:1029B00001490880704700000010004000200549D0
:1029C000088004482438008840F001000149243977
:1029D00008807047241400400348008820F001005C
:1029E00001490880704700000014004010B500291C
:1029F0000AD00878002807D005487844FEF7A6F9E1
:102A0000002801D0002010BD0248784410BD00000D
:102A1000D20B0000CA0B000021F00042A2F160526C
:102A2000B2F5801F01F0004328BFD2F17F6C0BD9B3
:102A30005FEA001C43EAC20242EB507018BF7047C5
:102A400028BF20F001007047B2F5801FBCBF1846B8
:102A500070474FEA410C1CF5001F02D2084600F0F7
:102A600080BB70B500F0C6F800000089FFF7F6BF24
:102A70004FF00040A0F580007047B0FA80F310FAE4
:102A800003F10AD0C3F11D0303F580634FEA4150FF
:102A90004FEA035202EBD12170474FF0000070471C
:102AA000DFF848C170B51CEA111E1EBF1CEA1315E1
:102AB0009EEA0C0F95EA0C0F00F06F8081EA030488
:102AC00023EA4C134EEAD47E21EA4C1141F48011E2
:102AD00043F48013AE44A1FB024CA0FB0365AEF1AE
:102AE0007F7E361955EB0C05A1FB034C4CF100031E
:102AF000A0FB021C16EB0C06654153F100030942D2
:102B000018BF46F0010613F4007F0BD14FEA0331E2
:102B10004FEA0530340341EA155140EA16506FF090
:102B200003020AE04FEAC3214FEAC520F40241EA5A
:102B3000555140EA56506FF0020202EB2E4201EB73
:102B4000025585EACE710AD05FEA440C18BF24F022
:102B5000004450F1000041F1000120EAD47040F23D
:102B6000FE7C624500D270BDA84214BF4FF0804485
:102B70004FF04044002E08BF0024BEF1806FA8BF74
:102B8000A1F1C041BDE8704080F282804FF00000AA
:102B900001F1C04101F0004170479EEA0C0F0CEAC0
:102BA000131518BF95EA0C0F06D04FF0000081EA0C
:102BB000030E0EF0004170BD00F01CF88900013ECC
:102BC00000F007B800F009B84FEA430C5FEA5C5C1C
:102BD00008D081EA030100F05BB84FEA410C5FEADC
:102BE0005C5CF6D14FF00000014970470000FF0720
:102BF0000000F87F0EF1020E2EF0030E5EF8046B5B
:102C0000364205D4012A43EB030515F5001F12D8FF
:102C1000012841EB010C1CF5001F0CD80ED14FEA26
:102C2000D17C15F5001F0CEB4C0C0CF1020C08BF0D
:102C30004CEBD37C04E04FF0080C01E04FEAD37C6E
:102C40000CEB4C0526FA05F606F00706B6F1040C67
:102C500006D20EEB860CBDE870404CF0010C6047CC
:102C6000DFE80CF0090B02024FF000414FF00000CA
:102C7000A1F5002170BD19461046012851EB010451
:102C800018BFD4F5001484BF002001F0004170BDCE
:102C90000808A0F500114FEA3101704743004FEAE0
:102CA000D30C4FEA3C0C43401FBF40070CF160516E
:102CB00013F0FE4F70471CF0006F03D100200CF0A2
:102CC000004170470CF0004343EA507010B540EAF1
:102CD000CC0000F000FA00BF000000924FEA0001B3
:102CE000FFF7D6BF4FF000414FF00000A1F50021E3
:102CF0007047000090EA010F48BF81F0004100F1E9
:102D00004682421A3CBF801A89184FEAD0524FF0CF
:102D10007F4C1CEA410FA2EBD15318BF9CEA026F13
:102D200000F03B804FF0004C4CEA00204CEA0121BF
:102D300021FA03FC10EB0C0C1ED202F1FF325FEA09
:102D40001C2040EBC25038BF70471CF07F0F4FEA89
:102D5000400C18BFBCF17F4F38BF7047C3F1200350
:102D6000994008BF20F00100BCF17F4F38BF704789
:102D7000A0F1C04000F0F5B94FEA3C00000A40EB7A
:102D8000C25028BF1CF0FF0F4FEA400CE6D018BF1E
:102D9000BCF17F4F38BF7047EAE79CEA026F05D06D
:102DA00010EA5C0F08BF00F00040704710B500F05B
:102DB00092F900BF64FBBE3E4FF47F0C1CEAD012B8
:102DC0001EBF1CEAD11392EA0C0F93EA0C0F00F01D
:102DD000858090EA010F48BF42F4807240F4000CF5
:102DE00041F400002CF07F4120F07F4000B581428B
:102DF000A2EB03020FF2081CACEB504EC0F1000036
:102E00009EF800E04FEA4E0E00FB0EFC38BF490072
:102E10004FEA2C1C02F5FA020CFB0EF34FEACE1E11
:102E20004FEA112C4FEAC1210EEB635E42EB2242C6
:102E30000EFB0CFC4FEA1C5300FB03114FEA112C54
:102E40004FEA01310EFB0CFC4FEADC4C00FB0C118D
:102E5000C14228BF09184CEB03335DF804EB10EBBB
:102E6000410143EBC250B2F57C0F38BF704729D502
:102E700012F0F00F1CBF00F1C04000F0004070479E
:102E8000008182838485868788898B8C8D8E8F9143
:102E90009293959697999A9C9D9FA0A2A3A5A7A867
:102EA000AAACAEB0B2B3B5B7B9BCBEC0C2C5C7C993
:102EB000CCCED1D4D7D9DCDFE2E6E9ECF0F3F7FAF7
:102EC000FE0000004FEA400C0CF1807CBCF17E4F0C
:102ED00028BF7047B0F1C04000F043B990EA010F3D
:102EE0000CEAD11348BF42F48072624538BF634593
:102EF00007D213F47F0F16D080EA010000F00040E3
:102F0000704710B500F0E7F8097EFC3E00F005B808
:102F100080EA010000F00040704780EA010000F004
:102F2000004000F01EB912F47F0F04BF0248704742
:102F300080EA010000F015B90000C07FC10DD1F199
:102F40009E0206DB4FEA002343F0004323FA02F01F
:102F50007047004207D54FEA4001B1F1FE4F02D25F
:102F60004FF00000704710B500F0B5F8499224808A
:102F7000002070476FEA20007047000010F0004109
:102F800048BF4042B0FA80F310FA03F2C3F19D0348
:102F90000BD051EAC35101EB1220530638BF7047E2
:102FA00000F1010008BF20F001007047B0FA80F383
:102FB00010FA03F2C3F19D030AD0D90501EB1220E8
:102FC000530638BF704700F1010008BF20F0010030
:102FD000704700004FF47F0C1CEAD0121EBF1CEAA1
:102FE000D11392EA0C0F93EA0C0F00F0478090EA9D
:102FF000010F48BF42F480724FF0004C4CEA0020B1
:103000004CEA012102EB0302A0FB0113A2F500022E
:10301000002918BF43F001035B0028BF4FEA3303C8
:1030200042EB22425FEA132C4CEBC2502EBFBCEBAA
:10303000436FB2F57C0F70474FEA036CBCF1004F51
:1030400008BF20F00100B2F57C0F38BF70470BD5E8
:1030500082F0FF0212F5803FC8BF704700F1C04008
:10306000D8BF00F00040704700F5000C5FEA4C0C40
:1030700048BF7047B0F1C04000F073B890EA010F4C
:103080000CEAD11348BF42F48072624538BF6345F1
:1030900004D280EA010000F00040704710B500F053
:1030A0001AF800BF8900013E00F007B800F009B827
:1030B0005FEA410C5FEA1C6C08D080EA010000F076
:1030C00050B85FEA400C5FEA1C6CF6D14FF000404C
:1030D000A0F5800070470EF1020E2EF0030E5EF890
:1030E000044B244204D44FEA4102B2F17F4F11D87D
:1030F0004FEA4003B3F17F4F0CD80ED14FEAD07C9A
:10310000B2F17F4F0CEB4C0C0CF1020C08BF4CEBF6
:10311000D17C04E04FF0080C01E04FEAD17C0CEBCD
:103120004C0324FA03F404F00704B4F1040C06D2AF
:103130000EEB840CBDE810404CF0010C6047DFE85A
:103140000CF0070802024FF00040A0F5800010BD0F
:103150000846420018BFD2F1807288BF00F00040DC
:1031600010BDFF2141EAD050C005704780F00040FB
:1031700090EA010F7FF5C5AD81F0004100F007B87E
:1031800090EA010F48BF81F000413FF5BAAD421A05
:1031900004D882F00042A0EB020011444FEAD05262
:1031A0004FF07F4C1CEA410FA2EBD15318BF9CEAB1
:1031B000026F4AD04FF0004C4CEA00204CEA01214B
:1031C00021FA03FCB0EB0C0C0FD412F0FE0F36D03A
:1031D0005FEA4C001DD5001240EBC25038BF70476B
:1031E0001CF03F0F18BF70470BE0A2F101025FEA2D
:1031F0001C2040EBC25038BF70471CF07F0F18BF37
:103200007047C3F12003994014BF401E20F0010015
:10321000704780084FEA122308BF7047B0FA80FC5D
:10322000A2EB0C02CCF1280C60FA0CF093EA122FFE
:1032300004BF00EBC25070474FEAC3707047130AD7
:103240005FEADC1008BF7047F6E79CEA026F04D023
:1032500010EA5C0F08BF0020704710B5FFF73BFF76
:1032600040DFF63E81F000407047FDF7A0BA00C194
:10327000814001C0804101C0804100C1814001C046
:10328000804100C1814000C1814001C0804101C036
:10329000804100C1814000C1814001C0804100C126
:1032A000814001C0804101C0804100C1814001C016
:1032B000804100C1814000C1814001C0804100C106
:1032C000814001C0804101C0804100C1814000C1F6
:1032D000814001C0804101C0804100C1814001C0E6
:1032E000804100C1814000C1814001C0804101C0D6
:1032F000804100C1814000C1814001C0804100C1C6
:10330000814001C0804101C0804100C1814000C1B5
:10331000814001C0804101C0804100C1814001C0A5
:10332000804100C1814000C1814001C0804100C195
:10333000814001C0804101C0804100C1814001C085
:10334000804100C1814000C1814001C0804101C075
:10335000804100C1814000C1814001C0804100C165
:10336000814001C0804101C0804100C1814000C056
:10337000C101C30302C2C60607C705C5C404CC0CFD
:103380000DCD0FCFCE0E0ACACB0BC90908C8D8186D
:1033900019D91BDBDA1A1EDEDF1FDD1D1CDC14D47D
:1033A000D515D71716D6D21213D311D1D010F030AD
:1033B00031F133F3F23236F6F737F53534F43CFCBD
:1033C000FD3DFF3F3EFEFA3A3BFB39F9F83828E86D
:1033D000E929EB2B2AEAEE2E2FEF2DEDEC2CE4243D
:1033E00025E527E7E62622E2E323E12120E0A060AD
:1033F00061A163A3A26266A6A767A56564A46CAC7D
:10340000AD6DAF6F6EAEAA6A6BAB69A9A86878B8EC
:10341000B979BB7B7ABABE7E7FBF7DBDBC7CB474FC
:1034200075B577B7B67672B2B373B17170B05090AC
:1034300091519353529296565797559594549C5C3C
:103440005D9D5F9F9E5E5A9A9B5B995958988848EC
:1034500049894B8B8A4A4E8E8F4F8D4D4C8C4484BC
:1034600085458747468682424383418180400102E9
:10347000030405060708090A0B0C0D0E0F101112A4
:10348000131415161718191A1B1C1D1E1F20212294
:10349000232425262728292A0400000800000000EC
:1034A00000000002000100001000000002400000C7
:1034B000000000A00000000005400000000000C85F
:1034C000000000000C4000000000409C00000000D4
:1034D000194000000020BCBE000000003440000085
:1034E000BFC91B8E00000004B5400000504BCFD078
:1034F0006607E2CF010000006C4100003E8251AA45
:10350000DFEEA73401000000D9420000DCB5A0E2E4
:103510003A301F97FFFFFFFFB4450000FD25A0C80C
:10352000E9A3C14FFFFFFFFFFF3F00000000008045
:1035300000000000FF3F00000000008000000000CD
:103540007B22446174614C697374223A5B7B22551F
:1035500061223A2225302E3166222C225562223AEF
:103560002225302E3166222C225563223A22253024
:103570002E3166222C224961223A2225302E3166D4
:10358000222C224962223A2225302E3166222C2218
:103590004963223A2225302E3166222C2250223ACB
:1035A0002225302E3166222C00000000E83500086C
:1035B00000000020340000006C0100081C360008E8
:1035C00034000020BC0A0000880100081C00000034
:1035D00043000000F8FFFFFF0C0000000E00000099
:1035E0000F0000002E00000000000000000000009E
:1035F0000000000000003900000000000100000091
:1036000000040300000002C45E0203000000018405
:0C36100039030300020001242800000020
:0400000508000131BD
:00000001FF
