:020000040800F2
:10000000B0070020ED010008F5010008F701000825
:10001000F9010008FB010008FD01000800000000D4
:10002000000000000000000000000000FF010008C8
:100030000102000800000000030200080502000899
:10004000070200080702000807020008070200086C
:10005000070200080702000807020008070200085C
:10006000070200080702000807020008070200084C
:10007000070200080702000807020008070200083C
:10008000070200080702000807020008070200082C
:10009000070200080702000807020008070200081C
:1000A000070200080702000807020008070200080C
:1000B00007020008070200080702000807020008FC
:1000C00007020008070200080702000807020008EC
:1000D0000702000895230008B12500080702000860
:1000E00007020008070200080702000807020008CC
:1000F00007020008070200080702000807020008BC
:1001000007020008070200080702000807020008AB
:100110000702000807020008092100086122000800
:10012000070200080702000807020008070200088B
:1001300000F002F800F04AF80AA090E8000C8244AF
:100140008344AAF10107DA4501D100F03FF8AFF28C
:10015000090EBAE80F0013F0010F18BFFB1A43F0A5
:10016000010318470833000028330000103A24BF69
:1001700078C878C1FAD8520724BF30C830C144BF0C
:1001800004680C607047000000230024002500264E
:10019000103A28BF78C1FBD8520728BF30C148BFEA
:1001A0000B607047662902F09087642900F0888010
:1001B000002070471FB500F05BFC04000020002108
:1001C00002F080FCE0601FBD10B510BD00F04AFDDC
:1001D0001146FFF7EFFF02F0F1FB00F068FD03B4FA
:1001E000FFF7F2FF03BC02F0BAFA000009488047AB
:1001F00009480047FEE7FEE7FEE7FEE7FEE7FEE709
:10020000FEE7FEE7FEE7FEE704480549054A064B20
:1002100070470000A920000831010008B00100204B
:10022000B0070020B0030020B0030020704700009A
:100230000FB4044910B503AA029800F0DFFB10BC0C
:100240005DF814FB080000200FB41CB5074B06AA8C
:100250007B4469460090059800F0B7FB0020694692
:1002600000F0C6FB1CBC5DF814FB00009D070000FD
:1002700070B5044685690068C10601D5302600E0E6
:100280002026C00707D070BDD4E901213046904731
:10029000206A401C20626D1EF6D570BD70B5044604
:1002A00085690078C00707D170BDD4E901212020FD
:1002B0009047206A401C20626D1EF6D570BD00007C
:1002C0002DE9F0410646002410687529314615A530
:1002D00010D0AFF30080002802DA404212A507E0F8
:1002E00031688A0701D511A502E0490704D510A598
:1002F000012401E0AFF3008000210A2306F1240766
:1003000007E0B0FBF3F203FB1200303078541046E4
:10031000491C0028F5D123462A463046BDE8F04165
:1003200000F0E9B8000000002D0000002B000000E4
:10033000200000002DE9F05F894604464FF0000AD6
:10034000DFF824B1FB44C0F820A02046E1688847CC
:1003500000287DD0252806D0D4E901219047206AC5
:10036000401C2062F1E700255F462046E16888478F
:100370002028064607DB312E05D2B81910F8200CCC
:1003800008B10543F1E7A80701D525F00405C4F835
:100390001CA00027C4F818A02A2E09D0304602F06D
:1003A000D7F938B304EB8708303EC8F8186019E075
:1003B00059F8041B204604EB87029161E1688847E5
:1003C000012F064618D1E069002820DA25F0200523
:1003D0001DE0D8F8180000EB800006EB4000303834
:1003E000C8F818002046E1688847064602F0B0F9D0
:1003F0000028EED1012F0AD02E2E08D12046E16828
:1004000088477F1C0646022F45F02005C4DBA06903
:10041000002803DA404245F00105A061E80701D059
:1004200025F01005A6B1A6F14100192802D8203602
:1004300045F400654A463146204625604D46FFF7A3
:10044000B1FE60B1012807D0ED1D25F0070000E0E6
:1004500007E000F1080978E705F1040975E730467F
:100460007AE7206ABDE8F09FB02F000010B5431C6A
:1004700002E010F8011B71B18107FAD14FF001328F
:1004800002C88C1A8C4314EAC211F9D0C01A0A06A9
:1004900003D0C01E10BDC01A10BD0A0401D0801EBA
:1004A00010BD0902FCD0401E10BD4FF0000204290F
:1004B000C0F0128010F0030C00F0B482CCF1040CF8
:1004C000BCF1020F18BF00F8012BA8BF20F8022BC7
:1004D000A1EB0C0100F0A6BA5FEAC17C24BF00F8D2
:1004E000012B00F8012B48BF00F8012B7047704723
:1004F0007047704770472DE9F0470D469946924680
:10050000044600F124080168880604D5E06921F05A
:100510001001216000E00120A84201DD471B00E03E
:100520000027A1697A1902EB0900081AA061207856
:10053000C00602D42046FFF79BFE002608E0D4E95F
:1005400001211AF806009047206A401C761C2062A0
:100550004E45F4DB2078C0060AD52046FFF788FE1A
:1005600006E0D4E9012130209047206A401C206237
:10057000381EA7F10107F4DC07E0D4E9012118F8DF
:1005800005009047206A401C2062281EA5F1010545
:10059000F3DC2046FFF782FE2078000602D5022019
:1005A000BDE8F0870120FBE770472DE9FF4F0C46BF
:1005B0001E464FF0FF378BB0D2E90001DDF86080B6
:1005C0000A908A46C1F30A5505B93D4600210846FE
:1005D0004FF00000BAF1000F00F4400005DA00EB24
:1005E00080004FF4400101EA50004FEA9059B9F100
:1005F000010F00DDB9460A9850EA4A000ED044F6D1
:100600001050A5F2FF3545432F14B8F1000F1ED04E
:100610007542291E1EDDC9F100021CE0B8F1010F70
:100620004FF0000001D0302103E0F24305E02154F7
:10063000401CB042FBDB30460022002121540B99C4
:10064000C1F80880C1E900200FB0BDE8F08FBD1BE4
:100650006D1CDEE74A4600DA694206A800F092FA0D
:1006600006AB93E8070003AB83E8070050460A99FE
:1006700000F064FB8DE80700A0F500501F380090E3
:100680000398002D09DD42F21F014A46084403A9E0
:100690000390684600F0C3FD08E0A0F500504A460C
:1006A0001F3803A90390684600F0CDFD8DE80700D0
:1006B0000004000C03D04FF0FF30410800E010466A
:1006C000B8F1000F03D00022009215461EE0751EFF
:1006D00005D400F0D1F9303262556D1EF9D5B3461C
:1006E0000122084302D000227F1C04E02078302839
:1006F00001D100227F1E002A099786D01DE0112D0E
:1007000007DA00F0B9F9303262556D1C50EA010287
:10071000F5D1084302D00098C8B10EE00021681E50
:1007200005E0235C625C63542254401E491C8142F4
:10073000F7DBAB46A81B401E0990002004F80B0015
:100740000B98099AC0F80880C0E9002B7CE71126B5
:100750004FF0000859E72DE9F04F88460446D21DB6
:1007600022F0070191B0D1E90001CDE90A0101F0C1
:10077000DBFF02460B98C00F01D02D2007E0206858
:10078000810701D52B2002E0202101EAC000032AC5
:10079000099001D0072A05DB03464146204600F0B8
:1007A000B1F909E12078800601D5E06900E0062072
:1007B000B8F1650F814606D0B8F1660F18D0B8F1D0
:1007C000670F70D131E00020B9F1110F009001DB0B
:1007D000112301E009F101030AAA01A90CA8FFF7FE
:1007E000E4FEDDE90C70002609F10105834647E0CF
:1007F00001204B4600904FF000470AAA01A90CA81F
:10080000FFF7D3FEDDE90DB00C995D46002610B967
:1008100009F101000D18B9EB050003D4C0F1FF3652
:1008200009F10105A5EB09002BE0B9F1010F01DA8F
:100830004FF001090020B9F1110F0090484601DD89
:10084000112300E003460AAA01A90CA8FFF7ADFE98
:10085000DDE90C704D4600268346207800070AD457
:10086000AB4500DA5D4601A8012D04DD411911F800
:10087000011C302907D04F4502DA17F1040F04DAC2
:10088000012082460FE06D1EEEE7002F02DCED1B1B
:100890003E4403E0781CA84200DD7D1CB81B00F13B
:1008A000010A4FF000472078000703D4AA4501DB76
:1008B0004FF0FF3A0021B7F1004F0DF143088DF8DA
:1008C000431022D002202B23002F01DA7F422D2358
:1008D0004FF00A0C011EA0F1010000DC47B197FBAC
:1008E000FCF10CFB11720F46303208F8012DF1E7D4
:1008F000A8F1010003702188090501D5452100E018
:100900006521A0F1010800F8011C09980FA9A1EBCD
:100910000807FF1D00B10120411901EBEA70A16930
:100920003844081A401EA0612078C00602D4204630
:10093000FFF79EFC099828B1D4E901219047206A6D
:10094000401C20622078C00622D52046FFF790FC8C
:100950001EE0002E04DBB34502DD01A8805D00E04F
:100960003020D4E901219047206A401C2062761C87
:10097000AAF101005FEA000A0AD100F079F8C06824
:100980000168405CD4E901219047206A401C206244
:10099000281EA5F10105DCDC07E0D4E9012118F8E7
:1009A000010B9047206A401C2062381EA7F1010706
:1009B000F3DC2046FFF772FC022011B045E6000090
:1009C00001694A1C02610878704700B58FB0CDE913
:1009D00001310021059105497944CDE90310114603
:1009E0006846FFF7A7FC0FB000BD0000E5FFFFFF62
:1009F0000A6802F8010B0A6070470000074B70B5E7
:100A00000D467B44FFF7E1FF0446284601F004FF52
:100A100010B14FF0FF3070BD204670BD1B1E0000AE
:100A20004FF0000200B5134694469646203922BF87
:100A3000A0E80C50A0E80C50B1F12001BFF4F7AFD2
:100A4000090728BFA0E80C5048BF0CC05DF804EBB4
:100A5000890028BF40F8042B08BF704748BF20F822
:100A6000022B11F0804F18BF00F8012B70470000D7
:100A7000004870476C01002030B5B0F10A024FEA1F
:100A8000900E71F100034EEA817EB0EB0E0061EB37
:100A900091014FEA101E4EEA017E10EB0E0041EB71
:100AA00011114FEA102E4EEA016E10EB0E0041EBD1
:100AB00011214FEA104E4EEA014E10EB0E0041EBB1
:100AC0001141401841F100014FEAD00040EA417065
:100AD0004FEAD10110EB80054FEA810444EA90749B
:100AE00044EB01046D1944EB0404521BA3414FF085
:100AF000000348BF0A3200D530BD401C41F100015F
:100B000030BD00002DE9F0411F4604460326016870
:100B1000072A01F4006004DB08B116A505E016A55C
:100B200003E008B115A500E015A521F01000206034
:100B3000A069C01EA0610FB1401EA0612046FFF752
:100B400097FB4FB1D4E9012138469047206A401CF9
:100B50002062C01C206206E0206AFAE7D4E9012185
:100B600015F8010B9047761EF8D22046FFF796FB4A
:100B7000BDE8F0814E414E006E616E00494E460068
:100B8000696E66002DE9F047814616468AB0324804
:100B900078440DC88DE80D002F487844801C03ACC4
:100BA0000DC884E80D0041F69B303722014491FBCB
:100BB000F2F0A0F1800502FB10141B3C02D5644248
:100BC000012000E00020DFF890A080460027FA44D2
:100BD000AAF1BA0A0DE0E00709D03246684607EBF1
:100BE00047010AEB810100F02EFB8DE8070064103D
:100BF0007F1C002CEFD1184F7F44A83F18E0E80776
:100C000014D007EB04100DF1180A90E80E008AE8E2
:100C10000E00C068F04201D198190890324606A92A
:100C200003A800F010FB03AB83E807006D10641C01
:100C3000002DE4D132466946B8F1000F03A802D076
:100C400000F0EDFA01E000F0FEFAC9E90001C9F890
:100C500008200AB0BDE8F087F4270000004870477C
:100C60004C0100207546FFF7F9FFAE4605006946C6
:100C7000534620F00700854618B020B5FFF7C4FAA8
:100C8000BDE820404FF000064FF000074FF000088D
:100C90004FF0000B21F00701AC46ACE8C009ACE80E
:100CA000C009ACE8C009ACE8C0098D4670470446ED
:100CB000AFF300802046FFF792FA00004FF0013CAE
:100CC00050F8042B51F8043B9A4221D1A2EB0C03BB
:100CD000934313EACC1317D150F8042B51F8043B7B
:100CE0009A4215D1A2EB0C03934313EACC130BD118
:100CF00050F8042B51F8043B9A4209D1A2EB0C03A3
:100D0000934313EACC13DBD04FF00000704700BFD1
:100D1000D01A01BAB1FA81F101F0180122FA01F0FA
:100D2000CB40C1F12001DBB2C0B2C01A2CFA01F3F2
:100D3000D11A914311EAC311E6D170475FEA400C22
:100D400008BF91F0000F4FEA8C234FEAC12243EA1B
:100D500051514FEA1C5018BF00F5F0404FEA3000E7
:100D600018BF41F000415FEA6C5C00F02980BCF1E3
:100D7000FF3F08BF40F080407047130C06BF1204CD
:100D80004FF0100C4FF0000C130E04BF12020CF1C8
:100D9000080C130F04BF12010CF1040C930F04BFD5
:100DA00092000CF1020CD30F04BF52000CF1010CA5
:100DB00011464FF00002A0F11F00A0EB0C0070479D
:100DC00011F0004F08BF704731F000413FF4D5AF3C
:100DD0000B0C06BF09044FF0100C4FF0000C0B0E6B
:100DE00004BF09020CF1080C0B0F04BF09010CF140
:100DF000040C8B0F04BF89000CF1020CCB0F04BF55
:100E000049000CF1010CCCF12003A0EB0C0022FAFC
:100E100003F302FA0CF241EA030100F1010070470A
:100E200020F07F4C80EA030023F07F47ACEB070300
:100E300003F57C5300F0004003F1FF032DE98049E6
:100E40004FEA154B09B44FEA144325EA0B4E24EA46
:100E500003480FF2042606EB132749083E785FEAA1
:100E6000320203FB0667C7F5000707FB06F64FEAE9
:100E700054374FEAD64606F1020607FB066CCCF162
:100E8000005C4FEA1C472CEA074C07FB06F40CFBFE
:100E900006F504EB15464FEA961634BF00204FF0D6
:100EA00000404FEAD13706FB07FC4FEA1C4C0CFB15
:100EB0000BF7D21B03FB0CF761EB07010CFB0EF7E2
:100EC000B0EB074072EB17420CFB08F734BFA2EB04
:100ED0000742B2EB074261EB17414FEA0C444FEA7D
:100EE000910706FB07FC4FEA1C4C0CFB0BF7B0EB21
:100EF000C74072EB573203FB0CF734BFA2EBC7427B
:100F0000B2EBC74261EB57310CFB0EF7B0EBC700F9
:100F100072EB57720CFB08F734BFA2EBC702B2EBBF
:100F2000C70261EB5771039F4FEA816141EA921159
:100F300004EBCC044FEAD1374FEA826206FB07FC90
:100F400042EA90124FEA80604FEA1C4C0CFB0BF710
:100F5000D21B03FB0CF761EB07010CFB0EF7B0EBA8
:100F6000074072EB17420CFB08F734BFA2EB0742B5
:100F7000B2EB074261EB17414FEA8C554FEA9107FC
:100F800004EB9C2406FB07FC4FEA1C4C0CFB0BF704
:100F9000B0EBC74072EB573203FB0CF734BFA2EB48
:100FA000C742B2EBC74261EB57310CFB0EF7B0EB17
:100FB000C70072EB57720CFB08F734BFA2EBC702F5
:100FC000B2EBC70261EB577115EB4C254FEA81611B
:100FD00041EA92114FEA82624FEAD13742EA901217
:100FE00006FB07FC44F100044FEA80604FEA1C4C0A
:100FF0000CFB0BF7D21B03FB0CF761EB07010CFB9F
:101000000EF7B0EB074072EB17420CFB08F734BF4A
:10101000A2EB0742B2EB074261EB174115EB1C153F
:101020004FEA813141EA92414FEA823242EA9042EC
:101030004FEA80304FEA0C7644F1000448EA03435B
:101040004EEA0B484FF0000EB2EB080C71EB0307B1
:1010500024BF624639464EEB0E0E4FF0000B0018CF
:10106000524149414BEB0B0BB2EB080C71EB030700
:101070007BF1000B24BF624639464EEB0E0E4FF05B
:10108000000B0018524149414BEB0B0BB2EB080C23
:1010900071EB03077BF1000B24BF624639464EEB30
:1010A0000E0E51EA020718BF46F0010616EB0E7647
:1010B00055F1000254F1000103D5BDE88901BDE8F6
:1010C0000088BDE88901B619BDE80048524141EBEE
:1010D0000101A3F10103704780807F7E7D7C7B7AD4
:1010E0007978777676757473727171706F6E6E6DD4
:1010F0006C6C6B6A6A69686867666665646463637A
:1011000062616160605F5F5E5E5D5D5C5C5B5B5AFF
:101110005A5959585857575656555555545453536C
:1011200052525251515050504F4F4F4E4E4D4D4DC7
:101130004C4C4C4B4B4B4A4A4A4949494848484712
:101140004747474646464545454444444443434350
:101150004342424242414141002B26D4770021D0F4
:101160001CB54FEA370703B44FF010004FF01001E1
:101170004FF000000FBC0BF1010BBDE81040BBF1BC
:10118000010F08BF5FEA170722BF12F1010211F138
:1011900001014FF0004143F1000300F0004043EA39
:1011A00000007047F9D35708DAE746EA064613F11C
:1011B000400F4FEA16461FDD13F1200FDFBF164325
:1011C0000A46002120335B42C8D0C3F1200746EA1B
:1011D000064602FA07F74FEA164646EA0706C3F143
:1011E000200722FA03F201FA07F721FA03F14FF080
:1011F000000342EA0702B1E746EA020646EA06466B
:101200004FEA164646EA0106BCBF46EA0646360CD9
:101210004FF000034FF000024FF000019EE72DE970
:10122000C048934630B491E8380007C831EA400C12
:1012300048BF34EA430C03D5FFF7F2FDFFF78CFFFC
:10124000F0BCBDE800882DE9C048934630B491E871
:10125000380007C810F0804F08BF13F0804F03D14B
:1012600000F005F8FFF778FFF0BCBDE8008820F03B
:101270007F4780EA030023F07F4C07EB0C03A3F5C4
:101280007C5300F00040A3F1FE0392F0000F00F049
:10129000B38095F0000F00F077802DE901494FEA07
:1012A00011404FEA144621EA004800FB06FC24EAFC
:1012B000064708FB06F607FB08F800FB07F718EBE4
:1012C00006484CEB164C4FEA124B18EB07484FEA16
:1012D00015464CEB174022EA0B4E0BFB06FC25EAA9
:1012E00006470EFB06F607FB0EFE0BFB07F71EEB91
:1012F000064E4CEB164C4FF000061EEB074E4CEB27
:10130000174B18EB0B0840F1000018EB0E0B58EBD5
:10131000000840F100008F1A4FF000013CBFC943A4
:10132000661B14BFB5EB040C00213CBFC943F61B80
:101330004FEA17444EEA8E0E27EA04454FEA1C474F
:1013400004FB07622CEA074C05FB07F70CFB05F6CC
:1013500004FB0CFC16EB074642EB174216EB0C465F
:1013600042EB1C421BEB060658EB0202414146EAE7
:101370009E0601D5BDE80189B619524141EB010134
:10138000A3F10103BDE801894FEA14454FEA114773
:1013900024EA054621EA074C05FB07F406FB07F79C
:1013A0000CFB06F105FB0CFC11EB074144EB174469
:1013B0004FEA124711EB0C4144EB1C4422EA074C64
:1013C00005FB07F206FB07F70CFB06F605FB0CFC1A
:1013D00016EB074642EB174216EB0C4642EB1C4558
:1013E0006A1854F1000148BF7047B619524141EBE9
:1013F0000101A3F10103704795F0000F37D04FEAC8
:1014000011424FEA144721EA024624EA074C02FB44
:1014100007F106FB07F70CFB06F402FB0CFC14EBD0
:10142000074441EB17414FEA154714EB0C4441EBDD
:101430001C4125EA074C02FB07F506FB07F70CFBEE
:1014400006F602FB0CFC16EB074645EB174516EBC0
:101450000C4645EB1C42121951F1000148BF704780
:10146000B619524141EB0101A3F1010370474FEA64
:1014700014454FEA114724EA054621EA074C05FBCB
:1014800007F106FB07F70CFB06F24FF0000605FB21
:101490000CFC12EB074241EB174112EB0C4251EBF3
:1014A0001C4148BF7047921841EB0101A3F10103B1
:1014B0007047014648780A7840EA022070470146A2
:1014C000087800064A7840EA02408A7840EA02201A
:1014D000CA7810437047000070B502460C46FF25DD
:1014E000FF2309E012F8010B80EA05010648405C81
:1014F00080EA03050548435C2000A4F10104F1D112
:1015000043EA052070BD0000CE300008CE3100084F
:101510002DE9F04FA9B03E4840880A2190FBF1F038
:101520003C492890C86B01F0E9FA04460D46394958
:10153000086B01F0E3FA06460F463649C86A01F027
:10154000DDFA804689463349886A01F0D7FA824637
:101550008B463049886901F0D1FACDE926012D4941
:10156000486901F0CBFACDE924012A49086901F064
:10157000C5FACDE922012749C86801F0BFFACDE9D3
:1015800020012449886801F0B9FACDE91E012149FA
:10159000486801F0B3FACDE91C011E49086801F062
:1015A000ADFACDE91A011A48C08819498988184B43
:1015B0001B88289ACDE91532CDE917103B20CDE9DB
:1015C0000CABCDE90E89CDE91067CDE91245149039
:1015D000DDE92601CDE90A01DDE92401CDE90801B3
:1015E000DDE92201CDE90601DDE92001CDE90401B3
:1015F000DDE91E01CDE90201DDE91C01CDE90001B3
:101600000548DDE91A2301F01FF929B0BDE8F08F84
:10161000D00000200C010020A033000800B58DB0E0
:10162000FE488088099001F0F1FB0B90FB48008890
:10163000079001F0EBFB0990F8480089079001F052
:10164000E5FB0890099901F0F5FB0A900B9901F070
:10165000F1FBF3490C9001F0DFFAF2490860EF4822
:101660008088099001F0D2FB0B90EC48008807902D
:1016700001F0CCFB0990E9484089079001F0C6FBD6
:101680000890099901F0D6FB0A900B9901F0D2FB62
:10169000E3490C9001F0C0FAE2494860DF488088D5
:1016A000099001F0B3FB0B90DC480088079001F033
:1016B000ADFB0990D9488089079001F0A7FB0890FD
:1016C000099901F0B7FB0A900B9901F0B3FBD449DB
:1016D0000C9001F0A1FAD3498860D048C0880990E5
:1016E00001F094FB0B90CD484088069001F08EFBF2
:1016F0000890CA48C089069001F088FB07900899B5
:1017000001F098FBC849099001F086FA0A900B99FC
:1017100001F090FBC2490C9001F07EFAC149C8600B
:10172000BE48C088099001F071FB0B90BB4840880F
:10173000069001F06BFB0890B848008A069001F013
:1017400065FB0790089901F075FBB749099001F016
:1017500063FA0A900B9901F06DFBB1490C9001F00E
:101760005BFAB0490861AD48C088099001F04EFBB2
:101770000B90AA484088069001F048FB0890A748C3
:10178000408A069001F042FB0790089901F052FB55
:10179000A549099001F040FA0A900B9901F04AFB23
:1017A0009F490C9001F038FA9E4948619B48C088D7
:1017B000089001F02BFB0A9098484088059001F0B2
:1017C00025FB079095488088039001F01FFB05904A
:1017D00092480088019001F019FB03908F48B0F9FE
:1017E0001400019001F0FAFA0290039901F022FB33
:1017F0000490059901F01EFB0690079901F01AFB71
:101800008949089001F008FA09900A9901F012FB41
:1018100086490B9001F00EFB81490C9001F0FCF918
:1018200080F000407F4988617C48C088099001F0C1
:10183000EDFA0B9079484088069001F0E7FA08909D
:1018400076488088049001F0E1FA06907348008899
:10185000029001F0DBFA04907048B0F91C0002908D
:1018600001F0BCFA0390049901F0E4FA059006999E
:1018700001F0E0FA0790089901F0DCFA6A49099052
:1018800001F0CAF90A900B9901F0D4FA64490C905E
:1018900001F0C2F980F00040624988625F48C08868
:1018A000099001F0B3FA0B905C484088069001F073
:1018B000ADFA089059488088049001F0A7FA069084
:1018C00056480088029001F0A1FA04905348B0F9FC
:1018D0001E00029001F082FA0390049901F0AAFA26
:1018E0000590069901F0A6FA0790089901F0A2FA6E
:1018F0004D49099001F090F90A900B9901F09AFA7C
:1019000047490C9001F088F980F000404549C862D1
:101910004248C088099001F079FA0B903F4840880E
:10192000069001F073FA08903C488088049001F01A
:101930006DFA069039480088029001F067FA049029
:101940003648B0F92000029001F048FA039004995B
:1019500001F070FA0590069901F06CFA0790089969
:1019600001F068FA3049099001F056F90A900B9994
:1019700001F060FA2A490C9001F04EF980F0004025
:10198000284908632548C088099001F03FFA0B9068
:1019900022488088079001F039FA09901F48408852
:1019A000049001F033FA06901C480088029001F080
:1019B0002DFA04901948406A029001F027FA03902A
:1019C000049901F037FA0590069901F033FA1649A7
:1019D000079001F021F90890099901F02BFA0A907B
:1019E0000B9901F027FA12490C9001F015F90D49F5
:1019F00048630A48C088099001F008FA0B9007482C
:101A00008088079001F002FA099004484088049009
:101A100001F0FCF90690014800880BE0D00000209E
:101A200000401C460C010020000020410000404006
:101A300080CB244B029001F0E9F904901648806AAB
:101A4000029001F0E3F90390049901F0F3F9059095
:101A5000069901F0EFF91149079001F0DDF80890BF
:101A6000099901F0E7F90A900B9901F0E3F90C49A3
:101A70000C9001F0D1F80B4988630846806B0C90FC
:101A80000846406B0B900C9901F0AAFA80F00040D8
:101A90000449C8630DB000BDD00000200000204103
:101AA00080CB244B0C01002010B54FF4E1312420F1
:101AB00000F0A8FD10BD000010B56148007820B10D
:101AC0000C287DD040287CD129E013215D48FFF708
:101AD00003FD5C49097D5B4AD27C41EA02218842D0
:101AE00019D1584CE41D2046FFF7E3FC5649088005
:101AF000A41C2046FFF7DDFC53494880241D2046E6
:101B0000FFF7D7FC50498880A41C2046FFF7D1FC82
:101B10004D49C88002E04DA0FEF78AFB8AE02521EE
:101B20004848FFF7D9FC474991F82610454A92F8F2
:101B3000252041EA0221884258D1424CE41C20462B
:101B4000FFF7B7FC40490881A41C2046FFF7B1FC11
:101B50003D494881A41C2046FFF7ABFC3A498881E7
:101B6000A41C2046FFF7A5FC3749C881A41C2046C9
:101B7000FFF79FFC34490882A41C2046FFF799FC1C
:101B800031494882A41C2046FFF793FC00B22E493D
:101B90008882A41C2046FFF78CFC00B22A49C88228
:101BA000A41C2046FFF785FC27490883A41C204677
:101BB000FFF77FFC00B2244948830A34204601E045
:101BC00018E036E0FFF775FC00B21F498883A41CBB
:101BD0002046FFF76EFC00B21B49C883A41C2046B8
:101BE000FFF767FC00B21849088402E017A0FEF76F
:101BF0001FFB1FE00B211348FFF76EFC1149097B07
:101C0000104AD27A41EA022188420ED10D4CE41CDE
:101C10002046FFF754FC0C494862241D2046FFF77C
:101C20004EFC09498862241D02E008A0FEF700FB73
:101C300000E000BF00BF40210248FEF736FC10BDA7
:101C4000190000204E000020D0000020343835005C
:101C500070B506460C46154600201C49087008461B
:101C600001780078401C194A107019484654032224
:101C7000164801780078401C144B187014484254E0
:101C80002112184602780078401C187010488154C0
:101C9000184602780078401C18700D4884542A12A7
:101CA000184601780078401C1870094842541846BC
:101CB00002780078401C18700548855400F00EF832
:101CC00004490D7004490C7070BD0000160000201E
:101CD0008E000020180000201900002010B50E48CA
:101CE00001780E48FFF7F8FB044621120A480278F3
:101CF0000078401C084B1870084881541846027838
:101D00000078401C18700548845418460178034830
:101D100000F0ECF810BD0000160000208E0000203E
:101D200002490143024A1160704700000000FA05B1
:101D30000CED00E02DE9F84F04460D46654844439C
:101D40006548806940F00400634988616348006821
:101D500020F47060614908600846006840F4306013
:101D600008600846006820F4704008600846006873
:101D700040F4804008605848C06940F4003056493B
:101D8000C8610846006940F40030086108460069EF
:101D900020F4003008615248008840F40050504957
:101DA00008800846008820F480500880081D0088BC
:101DB00020F44050091D0880284601F027F881468C
:101DC000204601F023F88246494600F025FF804670
:101DD0004FF0834100F020FF0646304600F0DEFF62
:101DE00087B2384601F012F88246314601F0EEF82B
:101DF00081464FF0834101F01DF8804600F0CEFF90
:101E000080B20090009800EB07103549091F088048
:101E1000262005224FF0010C4FF002081346C3F1B3
:101E2000070BBBF1040F02D94FF0040B01E0C3F123
:101E3000070BDA4603F1040BBBF1070F02D24FF098
:101E4000000B01E0A3F1030BD9464FF0010B0BFA95
:101E50000AFBABF1010B0BEA0C0B0BFA09FB4FF081
:101E6000010E0EFA09FEAEF1010E0EEA080E4BEA63
:101E70000E0100BF002809DA0A074FEA126C194A5E
:101E800000F00F031B1F02F803C003E00A07130E44
:101E9000154A135400BF262000F01F020121914073
:101EA0004209920002F1E022C2F8001100BF0C4882
:101EB000008840F020000A4908800846008840F069
:101EC000080008800846008840F004000880BDE84B
:101ED000F88F000040420F0000100240000801404F
:101EE0000C44004018ED00E000E400E010B50246AC
:101EF00000200CE000BF074B1B8803F04003002BC1
:101F0000F9D0135C034C241D2380431CD8B28842B3
:101F1000F0DB10BD0044004010B5082200210A4843
:101F20000078FFF795FE642000F03CFC074800783D
:101F3000012804D1FFF7C0FD0020044908703220B9
:101F400000F030FC10BD000017000020140000203D
:101F500010B504220C210A480078FFF779FE6420AE
:101F600000F020FC07480078012804D1FFF7A4FD09
:101F7000002004490870322000F014FC10BD00005D
:101F8000170000201400002010B5112240210A483B
:101F90000078FFF75DFEC82000F004FC07480078D9
:101FA000012804D1FFF788FD002004490870322081
:101FB00000F0F8FB10BD0000170000201400002006
:101FC00010B500F001F810BD0CB500200190009094
:101FD0003348006840F480303149086000BF304821
:101FE000006800F4003000900198401C01900098B7
:101FF00018B90198B0F5A06FF1D12948006800F434
:10200000003010B10120009001E000200090009805
:10201000012843D12348006840F01000214908609E
:102020000846006820F0030008600846006840F099
:10203000020008601A48406819494860084640682C
:1020400048600846406840F4806048600846406840
:1020500020F47C1048600846406840F4E81048606E
:102060000846006840F08070086000BF0C480068B7
:1020700000F000700028F9D00948406820F0030003
:10208000074948600846406840F00200486000BFC9
:102090000348406800F00C000828F9D10CBD00008E
:1020A000001002400020024010B51348006840F0C4
:1020B00001001149086008464068104908400E496F
:1020C0004860084600680E4908400B490860084609
:1020D000006820F4802008600846406820F4FE0074
:1020E00048604FF41F008860FFF76AFF4FF0006000
:1020F0000449086010BD0000001002400000FFF815
:10210000FFFFF6FE08ED00E010B51048008A00F071
:102110000100D0B10E48006801280BD1FFF734FF51
:10212000FFF716FFFFF77AFAFFF7F2F93C200849AC
:10213000086004E006480068401E0549086003483E
:10214000008A20F001000149088210BD0010004003
:102150000C0000202DE9F04704460D463B48C069BD
:1021600040F010003949C8613948048585850088E8
:1021700040F08000364908800846808A40F001001F
:1021800088824FF6FE7008820846808940F0010080
:102190008881052002462F4B19684FF6FF0319402E
:1021A0002D4B0B4343EA02212A4B196000BF362016
:1021B0000522022637461346C3F10709B9F1040F79
:1021C00002D94FF0040901E0C3F10709C84603F141
:1021D0000409B9F1070F02D24FF0000901E0A3F1A1
:1021E0000309CC464FF0010909FA08F9A9F10109E0
:1021F00009EA060909FA0CF94FF0010A0AFA0CFA81
:10220000AAF1010A0AEA070A49EA0A0100BF0028FE
:1022100008DA0A07160E0F4A0C3200F00F031B1FD4
:10222000D65403E00A07130E0C4A135400BF36209D
:1022300000F01F02012191404209920002F1E022C8
:10224000C2F8001100BFBDE8F08700000010024096
:10225000001000400CED00E00000FA0500E400E092
:1022600000B50A48008800F0010068B10120084963
:1022700008700020074908700448008820F0010019
:102280000249088000F014FC00BD0000101400405A
:1022900014000020150000202DE9F04704460D46EB
:1022A0003848C06940F020003649C861364805808A
:1022B000001D048034482838008840F080003249EE
:1022C0002839088030481438008840F001002E4931
:1022D000143908804FF6FE70091F0880081F008817
:1022E00040F00100091F088037200522012602273F
:1022F0001346C3F10709B9F1040F02D94FF00409DD
:1023000001E0C3F10709C84603F10409B9F1070F59
:1023100002D24FF0000901E0A3F10309CC464FF0CF
:10232000010909FA08F9A9F1010909EA060909FAF6
:102330000CF94FF0010A0AFA0CFAAAF1010A0AEAAA
:10234000070A49EA0A0100BF002807DA0A07160E41
:102350000E4A00F00F031B1FD65403E00A07130EAA
:102360000B4A135400BF372000F01F020121914097
:102370004209920002F1E022C2F8001100BFBDE85C
:10238000F0870000001002402814004018ED00E023
:1023900000E400E01248008800F02000F8B1104886
:1023A000001D00880F49104A127888540E480078A2
:1023B000401C0D49087008460078401E0949085C19
:1023C0000A280CD1002108480078401E054A115403
:1023D00005480078801E115400200349087070479A
:1023E000003801401C000020040000202DE9F84FB7
:1023F00004460D46684844436848806940F004003C
:10240000664988616648006820F0F0006449086009
:102410000846006840F0B00008600846006820F4F4
:10242000706008600846006840F4006008605C481E
:102430000830006840F48060594908310860574806
:10244000806940F48040554988610846C06840F47E
:102450008040C8600846C06820F48040C860514889
:10246000008840F400504F4908800846008820F456
:1024700080500880081D008820F44050091D088005
:10248000284600F0C3FC8146204600F0BFFC82468F
:10249000494600F0C1FB80464FF0834100F0BCFB91
:1024A0000646304600F07AFC87B2384600F0AEFCB3
:1024B0008246314600F08AFD81464FF0834100F0AC
:1024C000B9FC804600F06AFC80B20090009800EBF6
:1024D00007103449091F0880252005224FF0020CFF
:1024E000E0461346C3F1070BBBF1040F02D94FF0CE
:1024F000040B01E0C3F1070BDA4603F1040BBBF157
:10250000070F02D24FF0000B01E0A3F1030BD946F5
:102510004FF0010B0BFA0AFBABF1010B0BEA0C0BB2
:102520000BFA09FB4FF0010E0EFA09FEAEF1010E97
:102530000EEA080E4BEA0E0100BF002809DA0A076E
:102540004FEA126C184B00F00F02121F03F802C082
:1025500003E00A07130E154A135400BF252000F0AC
:102560001F02012191404209920002F1E022C2F8CB
:10257000001100BF0B48008840F020000949088086
:102580000846008840F0080008800846008840F0AF
:1025900004000880BDE8F88F40420F0000100240A0
:1025A000040801400C38014018ED00E000E400E0B0
:1025B00010B51048008800F02000D0B10D48001D73
:1025C0000088C4B20C48007840280FDA00F05CFAAA
:1025D0000A48007808B900F05DFA074801780078E9
:1025E000401C054A10700648445402E0012003498B
:1025F000087010BD004400401500002014000020A9
:102600004E0000202DE9F05F04460D463B48444350
:102610003B48806940F008003949886139480068C2
:1026200020F47060374908600846006840F4306064
:1026300008600846006820F470400860084600689A
:1026400040F4004008602F480830006840F4006003
:102650002C49083108602A48C06940F48020284984
:10266000C8610846006940F4802008610846006996
:1026700020F4802008612448008840F4005022495A
:1026800008800846008820F480500880081D0088D3
:1026900020F44050091D0880284600F0B7FB824610
:1026A000204600F0B3FB8346514600F0B5FA814660
:1026B0004FF0834100F0B0FA0646304600F06EFB62
:1026C00087B2384600F0A2FB8346314600F07EFC1C
:1026D00082464FF0834100F0ADFB814600F05EFB87
:1026E000804608EB07100849091F0880081D00886C
:1026F00040F00800091D0880BDE8F09F40420F002F
:1027000000100240040C01400C48004000BF054985
:10271000098801F040010029F9D00249091D08800B
:102720007047000000480040490050EAC12018BF2F
:1027300004204A0D18BF40F0010040F2FF72B2EBD6
:10274000515F08BF40F00200012808BF0520704714
:1027500030380A2801D20120704700207047014616
:1027600000BF70474FF0E021096921F004014FF0EC
:10277000E0221161C21700EB5272C2F3C702074B8D
:102780001A701946097801EB4102C2EBC1114FF6EC
:10279000FF7202EAC101024A118070470000002066
:1027A0000200002070B504464FF47A7094FBF0F0FC
:1027B000C6B24FF47A7094FBF0F100FB114085B281
:1027C00005E04FF47A7000F009F8701EC6B2002ED2
:1027D000F7D115B1284600F001F870BD01460D4A49
:1027E00012884A434FF0E0235A6100229A611A4648
:1027F000126942F001021A6100BF4FF0E022106935
:1028000000F48032002AF8D000224FF0E0231A6151
:102810009A6170470200002001464FF0FF30704778
:10282000054B188000BF044A121F128802F0800274
:10283000002AF8D0704700000438014000B5024675
:102840001046FFF763FF00BD0FB42DE9F0419AB0C9
:1028500021A800909DE0209800785C281BD120984A
:10286000401C2090209800786E2808D072280DD146
:102870000D20FFF74BFF2098401C20900AE00D2010
:10288000FFF744FF2098401C209003E02098401C54
:10289000209000BF7DE020980078252873D12098F3
:1028A000401C209020980078342806D064281DD041
:1028B000662834D0732860D150E0009850F8048B1B
:1028C0000090424638A101A8FDF7BEFC002404E0B8
:1028D00001A9085DFFF7B2FF641C01A8FDF7C6FD62
:1028E000A042F5D82098401C20904AE0009850F86B
:1028F000048B009042462EA101A8FDF7A5FC002400
:1029000004E001A9085DFFF799FF641C01A8FDF729
:10291000ADFDA042F5D82098401C209031E00098F1
:10292000C01D20F007000090D0E90067083000903B
:1029300032463B461FA101A8FDF786FC002404E0B7
:1029400001A9085DFFF77AFF641C01A8FDF78EFD61
:10295000A042F5D82098401C209012E0009820C892
:10296000009003E015F8010BFFF768FF28780028B6
:10297000F8D12098401C209003E02098401C209023
:1029800000BF06E0FFE7209911F8010B2091FFF747
:1029900055FF2098007800287FF45DAF1AB0BDE89D
:1029A000F0015DF814FB00002530346400000000E5
:1029B00025640000252E31660000000008B54FF4A4
:1029C000A060FFF7ADF94820FFF7CCFE42F20F718F
:1029D00041F61F40FFF7BEFB41F61F416320FFF7A2
:1029E0005BFC4FF416514820FFF700FD4FF41651E1
:1029F0002420FFF79FF941F28830FFF7D3FEFFF75D
:102A00008BFA0E4840880A2190FBF1F40B48C088ED
:102A100000900A4883880188224609A0FDF708FC37
:102A2000FFF742F84FF4FA60FFF7BCFE3C200F4975
:102A3000086000F01DF800BFFEE70000D000002095
:102A4000225573223A222564222C224973223A22EB
:102A50002564222C22554242223A222564222C222D
:102A6000494242223A222564220000000C00002044
:102A70000020044988840846008840F0010008804E
:102A80007047000000100040002001490880704796
:102A90002414004000200549088004482438008898
:102AA00040F0010001492439088070472414004097
:102AB0000348008820F001000149088070470000A9
:102AC0000014004010B500290AD00878002807D06B
:102AD00005487844FEF7F2F8002801D0002010BD28
:102AE0000248784410BD0000BA090000B209000095
:102AF0000808A0F500114FEA3101704743004FEA82
:102B0000D30C4FEA3C0C43401FBF40070CF160510F
:102B100013F0FE4F70471CF0006F03D100200CF043
:102B2000004170470CF0004343EA507010B540EA92
:102B3000CC0000F000FA00BF000000924FEA000154
:102B4000FFF7D6BF4FF000414FF00000A1F5002184
:102B50007047000090EA010F48BF81F0004100F18A
:102B60004682421A3CBF801A89184FEAD0524FF071
:102B70007F4C1CEA410FA2EBD15318BF9CEA026FB5
:102B800000F03B804FF0004C4CEA00204CEA012161
:102B900021FA03FC10EB0C0C1ED202F1FF325FEAAB
:102BA0001C2040EBC25038BF70471CF07F0F4FEA2B
:102BB000400C18BFBCF17F4F38BF7047C3F12003F2
:102BC000994008BF20F00100BCF17F4F38BF70472B
:102BD000A0F1C04000F0F5B94FEA3C00000A40EB1C
:102BE000C25028BF1CF0FF0F4FEA400CE6D018BFC0
:102BF000BCF17F4F38BF7047EAE79CEA026F05D00F
:102C000010EA5C0F08BF00F00040704710B500F0FC
:102C100092F900BF64FBBE3E4FF47F0C1CEAD01259
:102C20001EBF1CEAD11392EA0C0F93EA0C0F00F0BE
:102C3000858090EA010F48BF42F4807240F4000C96
:102C400041F400002CF07F4120F07F4000B581422C
:102C5000A2EB03020FF2081CACEB504EC0F10000D7
:102C60009EF800E04FEA4E0E00FB0EFC38BF490014
:102C70004FEA2C1C02F5FA020CFB0EF34FEACE1EB3
:102C80004FEA112C4FEAC1210EEB635E42EB224268
:102C90000EFB0CFC4FEA1C5300FB03114FEA112CF6
:102CA0004FEA01310EFB0CFC4FEADC4C00FB0C112F
:102CB000C14228BF09184CEB03335DF804EB10EB5D
:102CC000410143EBC250B2F57C0F38BF704729D5A4
:102CD00012F0F00F1CBF00F1C04000F00040704740
:102CE000008182838485868788898B8C8D8E8F91E5
:102CF0009293959697999A9C9D9FA0A2A3A5A7A809
:102D0000AAACAEB0B2B3B5B7B9BCBEC0C2C5C7C934
:102D1000CCCED1D4D7D9DCDFE2E6E9ECF0F3F7FA98
:102D2000FE0000004FEA400C0CF1807CBCF17E4FAD
:102D300028BF7047B0F1C04000F043B990EA010FDE
:102D40000CEAD11348BF42F48072624538BF634534
:102D500007D213F47F0F16D080EA010000F0004084
:102D6000704710B500F0E7F8097EFC3E00F005B8AA
:102D700080EA010000F00040704780EA010000F0A6
:102D8000004000F01EB912F47F0F04BF02487047E4
:102D900080EA010000F015B90000C07FC10DD1F13B
:102DA0009E0206DB4FEA002343F0004323FA02F0C1
:102DB0007047004207D54FEA4001B1F1FE4F02D201
:102DC0004FF00000704710B500F0B5F8499224802C
:102DD000002070476FEA20007047000010F00041AB
:102DE00048BF4042B0FA80F310FA03F2C3F19D03EA
:102DF0000BD051EAC35101EB1220530638BF704784
:102E000000F1010008BF20F001007047B0FA80F324
:102E100010FA03F2C3F19D030AD0D90501EB122089
:102E2000530638BF704700F1010008BF20F00100D1
:102E3000704700004FF47F0C1CEAD0121EBF1CEA42
:102E4000D11392EA0C0F93EA0C0F00F0478090EA3E
:102E5000010F48BF42F480724FF0004C4CEA002052
:102E60004CEA012102EB0302A0FB0113A2F50002D0
:102E7000002918BF43F001035B0028BF4FEA33036A
:102E800042EB22425FEA132C4CEBC2502EBFBCEB4C
:102E9000436FB2F57C0F70474FEA036CBCF1004FF3
:102EA00008BF20F00100B2F57C0F38BF70470BD58A
:102EB00082F0FF0212F5803FC8BF704700F1C040AA
:102EC000D8BF00F00040704700F5000C5FEA4C0CE2
:102ED00048BF7047B0F1C04000F073B890EA010FEE
:102EE0000CEAD11348BF42F48072624538BF634593
:102EF00004D280EA010000F00040704710B500F0F5
:102F00001AF800BF8900013E00F007B800F009B8C8
:102F10005FEA410C5FEA1C6C08D080EA010000F017
:102F200050B85FEA400C5FEA1C6CF6D14FF00040ED
:102F3000A0F5800070470EF1020E2EF0030E5EF831
:102F4000044B244204D44FEA4102B2F17F4F11D81E
:102F50004FEA4003B3F17F4F0CD80ED14FEAD07C3B
:102F6000B2F17F4F0CEB4C0C0CF1020C08BF4CEB98
:102F7000D17C04E04FF0080C01E04FEAD17C0CEB6F
:102F80004C0324FA03F404F00704B4F1040C06D251
:102F90000EEB840CBDE810404CF0010C6047DFE8FC
:102FA0000CF0070802024FF00040A0F5800010BDB1
:102FB0000846420018BFD2F1807288BF00F000407E
:102FC00010BDFF2141EAD050C005704780F000409D
:102FD00090EA010F7FF5C5AD81F0004100F007B820
:102FE00090EA010F48BF81F000413FF5BAAD421AA7
:102FF00004D882F00042A0EB020011444FEAD05204
:103000004FF07F4C1CEA410FA2EBD15318BF9CEA52
:10301000026F4AD04FF0004C4CEA00204CEA0121EC
:1030200021FA03FCB0EB0C0C0FD412F0FE0F36D0DB
:103030005FEA4C001DD5001240EBC25038BF70470C
:103040001CF03F0F18BF70470BE0A2F101025FEACE
:103050001C2040EBC25038BF70471CF07F0F18BFD8
:103060007047C3F12003994014BF401E20F00100B7
:10307000704780084FEA122308BF7047B0FA80FCFF
:10308000A2EB0C02CCF1280C60FA0CF093EA122FA0
:1030900004BF00EBC25070474FEAC3707047130A79
:1030A0005FEADC1008BF7047F6E79CEA026F04D0C5
:1030B00010EA5C0F08BF0020704710B5FFF73BFF18
:1030C00040DFF63E81F000407047FDF744BB00C191
:1030D000814001C0804101C0804100C1814001C0E8
:1030E000804100C1814000C1814001C0804101C0D8
:1030F000804100C1814000C1814001C0804100C1C8
:10310000814001C0804101C0804100C1814001C0B7
:10311000804100C1814000C1814001C0804100C1A7
:10312000814001C0804101C0804100C1814000C197
:10313000814001C0804101C0804100C1814001C087
:10314000804100C1814000C1814001C0804101C077
:10315000804100C1814000C1814001C0804100C167
:10316000814001C0804101C0804100C1814000C157
:10317000814001C0804101C0804100C1814001C047
:10318000804100C1814000C1814001C0804100C137
:10319000814001C0804101C0804100C1814001C027
:1031A000804100C1814000C1814001C0804101C017
:1031B000804100C1814000C1814001C0804100C107
:1031C000814001C0804101C0804100C1814000C0F8
:1031D000C101C30302C2C60607C705C5C404CC0C9F
:1031E0000DCD0FCFCE0E0ACACB0BC90908C8D8180F
:1031F00019D91BDBDA1A1EDEDF1FDD1D1CDC14D41F
:10320000D515D71716D6D21213D311D1D010F0304E
:1032100031F133F3F23236F6F737F53534F43CFC5E
:10322000FD3DFF3F3EFEFA3A3BFB39F9F83828E80E
:10323000E929EB2B2AEAEE2E2FEF2DEDEC2CE424DE
:1032400025E527E7E62622E2E323E12120E0A0604E
:1032500061A163A3A26266A6A767A56564A46CAC1E
:10326000AD6DAF6F6EAEAA6A6BAB69A9A86878B88E
:10327000B979BB7B7ABABE7E7FBF7DBDBC7CB4749E
:1032800075B577B7B67672B2B373B17170B050904E
:1032900091519353529296565797559594549C5CDE
:1032A0005D9D5F9F9E5E5A9A9B5B9959589888488E
:1032B00049894B8B8A4A4E8E8F4F8D4D4C8C44845E
:1032C000854587474686824243834181804001028B
:1032D000030405060708090A0B0C0D0E0F10111246
:1032E000131415161718191A1B1C1D1E1F20212236
:1032F000232425262728292A04000008000000008E
:103300000000000200010000100000000240000068
:10331000000000A00000000005400000000000C800
:10332000000000000C4000000000409C0000000075
:10333000194000000020BCBE000000003440000026
:10334000BFC91B8E00000004B5400000504BCFD019
:103350006607E2CF010000006C4100003E8251AAE6
:10336000DFEEA73401000000D9420000DCB5A0E286
:103370003A301F97FFFFFFFFB4450000FD25A0C8AE
:10338000E9A3C14FFFFFFFFFFF3F000000000080E7
:1033900000000000FF3F000000000080000000006F
:1033A0007B22446174614C697374223A5B7B2255C1
:1033B00061223A22256656222C225562223A222583
:1033C0006656222C225563223A22256656222C224A
:1033D0004961223A22256641222C224962223A2260
:1033E000256641222C224963223A22256641222C5D
:1033F0002250223A22256657222C225061223A225C
:10340000256657222C225062223A22256657222C0A
:10341000225063223A22256657222C225748223A0C
:103420002225664B5768227D5D2C224465764944EF
:10343000223A2248594842253445502D4143222CF6
:10344000225573223A222564222C224973223A22E1
:103450002564222C22554242223A222564222C2223
:10346000494242223A222564227D0A00A8340008FB
:10347000000000201C0000006C010008C43400089B
:103480001C00002094070000880100081C000000B8
:1034900043000000F8FFFFFF0C0000000E000000DA
:1034A0000F0000002E0000000000000000000000DF
:1034B000000000000000000000000000000000010B
:0434C0000000000008
:0400000508000131BD
:00000001FF
