:020000040800F2
:100000004804002095130008B9120008BB1200082C
:10001000BD120008BF120008C11200080000000055
:10002000000000000000000000000000C3120008F3
:10003000C512000800000000C7120008C91200081D
:10004000B1130008B5130008B9130008BD13000868
:10005000C1130008D5120008C5130008C913000811
:10006000CD130008D1130008D5130008D9130008D8
:10007000DD130008E1130008E5130008E913000888
:10008000ED130008F1130008F5130008F913000838
:10009000FD130008011400080514000809140008E5
:1000A0000D14000811140008151400081914000894
:1000B0001D14000821140008251400082914000844
:1000C0002D140008311400083514000839140008F4
:1000D0003D140008411400084514000849140008A4
:1000E0004D14000851140008551400085914000854
:1000F0005D14000861140008651400086914000804
:100100006D140008711400087514000879140008B3
:100110007D14000881140008D71200088514000817
:10012000891400088D140008911400089514000823
:10013000991400089D140008A1140008A5140008D3
:10014000A9140008AD140008B1140008B514000883
:10015000B9140008BD140008C1140008C514000833
:10016000C9140008CD140008D1140008D5140008E3
:10017000D9140008DD140008E11400080000000094
:10018000E5140008E914000838B5040000252078BB
:10019000C0076FD5DFF82406006810F00C000428B3
:1001A0000BD0DFF81806006810F00C0008280ED1FC
:1001B000DFF80C060068400209D5DFF80806006881
:1001C000800357D56068002854D10120CFE16068D2
:1001D000B0F5803F08D1DFF8EC05006850F48030BE
:1001E000DFF8E015086024E06068B0F5A02F10D1BA
:1001F000DFF8D005006850F48020DFF8C8150860EB
:10020000DFF8C005006850F48030DFF8B8150860EA
:100210000FE0DFF8B005006830F48030DFF8A41597
:100220000860DFF8A005006830F48020DFF894153E
:100230000860606800280ED000F017FB0500DFF8AA
:1002400084050068800315D400F00FFB401B65286F
:10025000F5D303208BE100F008FB0500DFF864050F
:100260000068800306D500F000FB401B6528F5D32D
:1002700003207CE1207880072BD5DFF8400500685B
:1002800010F00C0F0BD0DFF83405006810F00C00F4
:10029000082837D1DFF828050068400232D4DFF89B
:1002A00024050068800704D5E068012801D00120FA
:1002B0005DE1DFF8100500685FF0F851B1FA81F1F7
:1002C00030F0F800226912FA01F10843DFF8F41463
:1002D00008602078000762D5606900284CD00120B2
:1002E000DFF8E414086000F0C0FA0500DFF8DC0471
:1002F0000068800753D400F0B8FA401B0328F5D3F8
:10030000032034E1E068002823D00120DFF8C01486
:10031000086000F0AAFA0500DFF8A804006880076A
:1003200006D400F0A2FA401B0328F5D303201EE1F7
:10033000DFF8900400685FF0F851B1FA81F130F015
:10034000F800226912FA01F10843DFF87814086016
:10035000BFE70020DFF87814086000F086FA050097
:10036000DFF8600400688007B3D500F07EFA401B18
:100370000328F5D30320FAE00020DFF84C140860CE
:1003800000F073FA0500DFF844040068800706D522
:1003900000F06BFA401B0328F5D30320E7E0207838
:1003A00040077CD500200090DFF82804006850F05A
:1003B0008050DFF820140860DFF81804006810F09F
:1003C000805000900098DFF81004006850F48070AE
:1003D000DFF80414086000F048FA0500DFF8F803BD
:1003E0000068C00506D400F040FA401B0328F5D38E
:1003F0000320BCE0A068012808D1DFF8E003006812
:1004000050F00100DFF8D413086023E0A06805284D
:1004100010D1DFF8C803006850F00400DFF8BC1307
:100420000860DFF8B803006850F00100DFF8AC1393
:1004300008600FE0DFF8A403006840084000DFF820
:100440009C130860DFF89403006830F00400DFF8C4
:100450008C130860A068002810D000F006FA050090
:10046000DFF878030068800719D400F0FEF9401B1C
:1004700041F289318842F3D3032078E000F0F5F9A6
:100480000500DFF858030068800708D500F0EDF993
:10049000401B41F289318842F3D3032067E0A06911
:1004A000002863D0DFF81403006810F00C0008285F
:1004B0005AD0A069022844D10020DFF82413086034
:1004C00000F0D3F90500DFF8FC020068800106D5D2
:1004D00000F0CBF9401B0328F5D3032047E0DFF8F9
:1004E0000403B0FA80F14FF44040B0FA80F2F020FB
:1004F000B0FA80F0E369256A2B43656A15FA01F1C9
:100500001943A36A5B085B1E13FA02F21143E26A05
:1005100012FA00F00843DFF8A81208600120DFF8A3
:10052000C012086000F0A1F90500DFF89802006829
:1005300080011BD400F099F9401B0328F5D3032058
:1005400015E00020DFF89812086000F08EF9050031
:10055000DFF870020068800108D500F086F9401BC2
:100560000328F5D3032002E0012000E0002032BD83
:1005700070B504000D000026DFF86C02006810F072
:100580000F00A8420BD2DFF860020570DFF85802B6
:10059000006810F00F00A84201D00120C0E02078D0
:1005A000800709D5DFF81402006830F0F000A16878
:1005B0000843DFF8081208602078C00772D5606829
:1005C000012806D1DFF8FC010068800315D4012062
:1005D000A6E06068022802D06068032806D1DFF830
:1005E000E4010068800108D4012099E0DFF8D4011B
:1005F0000068800701D4012092E0DFF8C0010068A4
:100600008008800061680843DFF8B011086000F0DE
:100610002CF90600606801280FD1DFF8A0010068FE
:1006200010F00C0004283DD000F01FF9801B41F2AF
:1006300089318842F1D3032072E0606802280FD12B
:10064000DFF87801006810F00C0008282AD000F0CC
:100650000CF9801B41F289318842F1D303205FE01D
:10066000606803280FD1DFF85401006810F00C0017
:100670000C2817D000F0F9F8801B41F2893188422C
:10068000F1D303204CE0DFF83401006810F00C0FC8
:1006900008D000F0EAF8801B41F289318842F2D399
:1006A00003203DE0DFF84001006810F00F008542B4
:1006B0000BD2DFF834010570DFF82C01006810F070
:1006C0000F00A84201D001202AE02078400707D57A
:1006D0003A48006830F4E050E16808433749086060
:1006E0002078000708D53548006830F4604021695B
:1006F00050EAC1003149086000F017F82F49096835
:100700005FF07062B2FA82F2384B11F0F001D14022
:10071000C95CC84036490860002000F08EF800200F
:1007200070BD01203349086070470020002000217F
:1007300000202248006810F00C00002804D0042893
:1007400004D0082804D034E02B4833E02B4831E0B3
:100750001B48006810F03F001949096849020DD58F
:1007600017490968254AB2FBF0F047F6C0721140FC
:100770001C4AB2FA82F2D14048430CE010490968A1
:100780001D4AB2FBF0F047F6C0721140154AB2FAAA
:1007900082F2D14048430A49096811F440314FF4CC
:1007A0004042B2FA82F2D140491C4900B0FBF1F05C
:1007B00000E0114870470E48006870470838024052
:1007C0000438024000380240800E4742743802402C
:1007D000000047424038024000700040703802403C
:1007E000600047420000FE03003C02408413000802
:1007F000000000204C0047420024F40000127A0060
:1008000080B51B48006850F400701949086018480A
:10081000006850F48060164908601548006850F47C
:10082000807013490860032000F08CF8002000F06D
:1008300004F800F0CCF8002002BD10B504000D480B
:1008400000684FF47A71B0FBF1F000F095F80022E7
:1008500021005FF0FF3000F079F8002010BD06485D
:100860000068401C044908607047034800687047EE
:10087000003C0240000000204000002010F0070172
:10088000484800684FF6FF021040474A52EA0121EB
:10089000084344490860704742480068C0F302209A
:1008A0007047012110F01F029140404A40B24009B8
:1008B00042F82010704740B2002808D509013C4A90
:1008C00040B210F00F00801800F8041C03E009018A
:1008D000384A40B28154704710B410F00700D0F18C
:1008E0000703052B01D3042301E0D0F10703041D06
:1008F000072C01D2002000E0C01E012414FA03F3EB
:100900005B1E19408140012313FA00F0401E104085
:10091000084310BC704780B5411EB1F1807F01D300
:1009200001200EE0401E244908600F215FF0FF30D7
:10093000FFF7C1FF00202149086007202049086017
:10094000002002BD80B5FFF799FF01BD70B504001E
:100950000D0016000020FFF79FFF32002900FFF76F
:10096000BBFF0100200040B2FFF7A5FF70BD80B5BE
:1009700040B2FFF796FF01BD80B5FFF7CCFF02BD87
:10098000042806D10E48006850F004000C490860A5
:1009900005E00B48006830F0040009490860704722
:1009A000000000000CED00E00000FA0500E100E0AE
:1009B00018ED00E000E400E014E000E018E000E0E2
:1009C00010E000E080B500F001F801BD704780B58F
:1009D0000320FFF7B7FF002200217FF00B00FFF795
:1009E000B5FF002200217FF00A00FFF7AFFF0022D1
:1009F00000217FF00900FFF7A9FF002200217FF00E
:100A00000400FFF7A3FF002200217FF00300FFF79F
:100A10009DFF002200217FF00100FFF797FF0022D9
:100A200000215FF0FF30FFF791FF00220021052039
:100A3000FFF78CFF0520FFF79AFF01BD10B50400FA
:100A4000002C01D1012014E094F93900002805D1CF
:100A5000002084F83800200000F07DF9022084F89E
:100A60003900211D206800F0D2F8012084F83900F7
:100A7000002010BD0168C96851F001010268D16011
:100A80000168096851F001010068016000207047A9
:100A900010B504002068006980071AD52068C06876
:100AA000800716D57FF002002168086101202076BA
:100AB0002068806910F0030F03D0200000F0A4F834
:100AC00005E0200000F09FF8200000F09EF80020D4
:100AD00020762068006940071AD52068C068400762
:100AE00016D57FF004002168086102202076206876
:100AF000806910F4407F03D0200000F085F805E005
:100B0000200000F080F8200000F07FF80020207620
:100B10002068006900071AD52068C068000716D54C
:100B20007FF0080021680861042020762068C069F1
:100B300010F0030F03D0200000F066F805E020005D
:100B400000F061F8200000F060F8002020762068B6
:100B50000069C0061AD52068C068C00616D57FF0A7
:100B6000100021680861082020762068C06910F410
:100B7000407F03D0200000F047F805E0200000F09F
:100B800042F8200000F041F800202076206800693B
:100B9000C0070AD52068C068C00706D57FF00100ED
:100BA00021680861200000F079F9206800690006DA
:100BB0000AD52068C068000606D57FF0800021684D
:100BC0000861200000F0A9F92068006940060AD5F4
:100BD0002068C068400606D57FF0400021680861A3
:100BE000200000F013F82068006980060AD520680C
:100BF000C068800606D57FF02000216808612000CB
:100C000000F08AF910BD70477047704770470022A6
:100C10000268DFF8E030984212D0B0F1804F0FD078
:100C2000DFF8D43098420BD0DFF8D030984207D0AC
:100C3000DFF8CC30984203D0DFF8C830984201D1B9
:100C4000012300E00023DBB2002B03D032F070025E
:100C50004B681A43DFF89C3098422AD0B0F1804F9D
:100C600027D0DFF89430984223D0DFF890309842B4
:100C70001FD0DFF88C3098421BD0DFF888309842C4
:100C800017D0DFF88430984213D0DFF880309842D4
:100C90000FD0DFF87C3098420BD0DFF878309842E4
:100CA00007D0DFF87430984203D0DFF870309842F4
:100CB00001D1012300E00023DBB2002B03D032F48A
:100CC0004072CB681A4302608A68C2620A68826214
:100CD000084A904202D00B4A904201D1012200E022
:100CE0000022D2B2002A01D00969016301214161C9
:100CF0007047000000000140000400400008004070
:100D0000000C00400004014000400140004401404C
:100D10000048014000180040001C00400020004036
:100D200000B583B01A481B49086053201949486030
:100D30000020184988604FF47A701649C860154839
:100D4000FFF77CFE002000900020019069461148CA
:100D500000F0B6F807BD80B500680D49884215D18E
:100D6000002000900C48006850F010000A4908600C
:100D70000948006810F0100000900098002201213E
:100D80003620FFF7E3FD3620FFF7F1FD01BD00003F
:100D900000100040040000204038024080B5FFF7FA
:100DA0002FFD00F022F800F0B9F8FFF7B9FF3E4838
:100DB000FFF760FE012220213C4800F000FA3C4889
:100DC0000088B0F57A7FFAD10020394908804FF4C5
:100DD0000071384800F0FDF92021344800F0F9F99D
:100DE0004021324800F0F5F9E9E700B593B0002062
:100DF00000903148006850F080502F4908602E481C
:100E0000006810F0805000900098002000902B485F
:100E1000006850F48040294908602848006810F4B0
:100E2000804000900098012006905FF48030079089
:100E300002200C905FF480000D9008200E904FF47B
:100E4000A8700F90022010900720119006A8FFF7BD
:100E50009BF90F20019002200290002003904FF494
:100E6000A05004904FF480500590052101A8FFF791
:100E70007FFBFFF756FCFFF79EFC4FF47A71B0FB47
:100E8000F1F0FFF779FD0420FFF77AFD0022002141
:100E90005FF0FF30FFF75AFD13B000BD0448008833
:100EA000401C0349088070470400002000100240E5
:100EB00044000020001C0240403802400070004006
:100EC00090F93820012A01D1022024E0012280F883
:100ED0003820022280F839200268526832F070020D
:100EE00003685A60026852680B681A4303685A60C4
:100EF0000268926832F0800203689A600268926821
:100F00004968114302689160012180F8391000217D
:100F100080F83810002070477047704700B587B0E0
:100F2000002000902C48006850F080002A4908609A
:100F30002948006810F08000009000980020009080
:100F40002548006850F010002349086022480068D6
:100F500010F0100000900098002000901E480068DB
:100F600050F010001C4908601B48006810F0100089
:100F70000090009800224FF40071184800F01FF90B
:100F800000222021164800F01AF9002240211448BE
:100F900000F015F94FF4007001900120029002203A
:100FA000049001A90D4800F01DF8202001900120B7
:100FB00002900220049001A9094800F013F8402093
:100FC0000190012002900220049001A9044800F041
:100FD00009F807B000BD000030380240001C024094
:100FE0000010024078B4002400230024002237E0DF
:100FF0000825EDB212F00306F6B2B600B5402C4358
:10100000DFF8D851960845F82640DFF8D441246827
:101010009C434D68ED0300D51C43DFF8C4512C60A0
:10102000DFF8C04124689C434D68AD0300D51C43E4
:10103000DFF8B0512C60DFF8B04124689C434D6864
:10104000ED0200D51C43DFF8A0512C60674C2468EA
:101050009C434D68AD0200D51C43644B1C60521C80
:10106000102A80F0AA80012313FA02F40B682340AF
:10107000A342F4D14C68022C02D04C68122C15D13A
:10108000D40810EB8404246A0F2512F00706F6B288
:10109000B600B540AC430D6912F00706F6B2B600D3
:1010A000B5402C43D50810EB85052C620468032558
:1010B0001600F6B27600B540AC430D7915F0030585
:1010C0001600F6B27600B5402C4304604C68012C43
:1010D00008D04C68022C05D04C68112C02D04C680A
:1010E000122C17D1846803251600F6B27600B5409D
:1010F000AC43CD681600F6B27600B5402C43846050
:10110000446801259540AC434D68C5F300159540F2
:101110002C434460C46803251600F6B27600B5403F
:10112000AC438D681600F6B27600B5402C43C4601F
:101130004C68E40093D5002400942D4C246854F4AA
:1011400080442B4D2C602A4C246814F48044009475
:10115000009C224C950854F825400F2512F00306F8
:10116000F6B2B600B540AC43224DA84201D10025ED
:101170003FE7214DA84201D101253AE71F4DA84282
:1011800001D1022535E71E4DA84201D1032530E7E4
:101190001C4DA84201D104252BE71B4DA84201D1CB
:1011A000052526E7194DA84201D1062521E7184D4E
:1011B000A8427FF41DAF07251BE771BC704752B2F0
:1011C000002A02D089B2816102E089B209048161FA
:1011D0007047426989B25140416170470838014007
:1011E000003C0140043C0140083C01400C3C0140F3
:1011F000443802400000024000040240000802405F
:10120000000C02400010024000140240001802408E
:10121000001C02401248006850F470001049086039
:101220001048006850F001000E49086000200E4987
:1012300008600C4800680D4908400A4908600C48DD
:101240000C4908600748006830F4802005490860B0
:101250000020094908605FF0006008490860704795
:1012600088ED00E00038024008380240FFFFF6FE3B
:1012700010300024043802400C38024008ED00E031
:1012800030B5016842688468091801EB5203D2073F
:1012900048BF4C440C30994200D130BD11F9012BAC
:1012A00011F8015B002A04F8015B02D5521CF9D148
:1012B000F1E7521EF4D5EEE77047FEE7FEE7FEE7E2
:1012C000FEE770477047704780B5FFF7C8FAFFF731
:1012D00079FB01BD704780B50148FFF7D9FB01BD1F
:1012E0000400002010B5074979441831064C7C44AD
:1012F000163404E00A68081D511888470146A142C7
:10130000F8D110BD2C000000380000004EF68851C6
:10131000CEF20001086840F470000860BFF34F8F00
:10132000BFF36F8F4FF00070E1EE100A70470000BE
:1013300051FFFFFFB80100000C000000000000207A
:1013400000F00BF8002801D0FFF7CCFF0020C046CA
:10135000C046FFF723FD00F002F80120704700F0BF
:1013600001B800000746384600F002F8FBE700002D
:1013700080B5C046C046024A11001820ABBEFBE74C
:10138000260002000000000000000000010203042B
:101390000607080901488047014800471512000860
:1013A000A5130008C046C046FFF7B0FFFFF7C8FF0F
:1013B000FFF7FEBFFFF7FEBFFFF7FEBFFFF7FEBF61
:1013C000FFF7FEBFFFF7FEBFFFF7FEBFFFF7FEBF51
:1013D000FFF7FEBFFFF7FEBFFFF7FEBFFFF7FEBF41
:1013E000FFF7FEBFFFF7FEBFFFF7FEBFFFF7FEBF31
:1013F000FFF7FEBFFFF7FEBFFFF7FEBFFFF7FEBF21
:10140000FFF7FEBFFFF7FEBFFFF7FEBFFFF7FEBF10
:10141000FFF7FEBFFFF7FEBFFFF7FEBFFFF7FEBF00
:10142000FFF7FEBFFFF7FEBFFFF7FEBFFFF7FEBFF0
:10143000FFF7FEBFFFF7FEBFFFF7FEBFFFF7FEBFE0
:10144000FFF7FEBFFFF7FEBFFFF7FEBFFFF7FEBFD0
:10145000FFF7FEBFFFF7FEBFFFF7FEBFFFF7FEBFC0
:10146000FFF7FEBFFFF7FEBFFFF7FEBFFFF7FEBFB0
:10147000FFF7FEBFFFF7FEBFFFF7FEBFFFF7FEBFA0
:10148000FFF7FEBFFFF7FEBFFFF7FEBFFFF7FEBF90
:10149000FFF7FEBFFFF7FEBFFFF7FEBFFFF7FEBF80
:1014A000FFF7FEBFFFF7FEBFFFF7FEBFFFF7FEBF70
:1014B000FFF7FEBFFFF7FEBFFFF7FEBFFFF7FEBF60
:1014C000FFF7FEBFFFF7FEBFFFF7FEBFFFF7FEBF50
:1014D000FFF7FEBFFFF7FEBFFFF7FEBFFFF7FEBF40
:1014E000FFF7FEBFFFF7FEBFFFF7FEBF020024F4C9
:0214F000BD003D
:04000005080013A537
:00000001FF
