:020000040800F2
:10000000F00C00204501000845080008170800080A
:1000100041080008D9060008591200080000000035
:10002000000000000000000000000000610B00085C
:10003000DD06000800000000D9080008B50C000823
:100040005F0100085F0100085F0100085F01000810
:100050005F0100085F0100085F0100085F01000800
:100060005F0100085F0100085F0100085F010008F0
:100070005F0100085F0100085F0100085F010008E0
:100080005F0100085F0100085F0100085F010008D0
:100090005F0100085F0100085F0100085F010008C0
:1000A0005F0100085F0100085F0100085F010008B0
:1000B0005F010008190D00085F0100085F010008DA
:1000C0005F0100085F0100085F0100085F01000890
:1000D0005F010008551000085F010008C910000802
:1000E0005F0100085F0100085F0100085F01000870
:1000F0005F0100085F0100085F0100085F01000860
:100100005F0100085F0100085F0100085F0100084F
:100110005F0100085F0100089D0E0008D50E000871
:100120005F0100085F0100085F0100085F0100082F
:10013000DFF80CD000F030FA00480047551E0008E8
:10014000F00C00200648804706480047FEE7FEE71F
:10015000FEE7FEE7FEE7FEE7FEE7FEE7FEE7FEE777
:10016000B90C00083101000830B505462A460B4697
:1001700012F8010B13F8014B08B1A042F8D01CB1E2
:10018000002802D06D1CF1E7284630BD421C10F853
:10019000011B0029FBD1801A704730B50B46014680
:1001A00000202022012409E021FA02F59D4205D316
:1001B00003FA02F5491B04FA02F52844151EA2F1C0
:1001C0000102F1DC30BD2DE9F05F054600209246CA
:1001D0009B4688460646814640241BE02846414609
:1001E0004746224600F0F9F953465A46C01A914153
:1001F00010D311461846224600F0E0F92D1A67EB9D
:1002000001084F4622460120002100F0D7F917EBE4
:1002100000094E41201EA4F10104DFDC48463146AE
:100220002A464346BDE8F09F2DE9FE4F804681EA0D
:100230000300C00F0C46009021F0004123F0004560
:10024000B8EB0200A94105D24046214690461C4623
:100250000B46024623F00040104347D0270DC7F35A
:100260000A00C3F30A510290401A019040286BDA49
:10027000C3F3130040F4801B0098924620B1002382
:10028000D2EB030A63EB0B0B01985946C0F1400215
:10029000504600F093F906460D4650465946019ADD
:1002A00000F0ABF910EB08006141002487EA11521D
:1002B00084EAE7731A4340D0009A62B3019A012A94
:1002C0004FEA075215DC001B61EB02014FF00042C0
:1002D00002EA0752CDE90042001C41F58011324686
:1002E0002B4600F0ABF903B0BDE8F08F4046214645
:1002F000F9E7001B61EB0201001C41F580130018B7
:100300005B412018A2F5001747EB030140EAD570C6
:10031000B6196D4111E06D084FEA360645EAC07521
:100320004FEA0752001B61EB0201001C41F58011EE
:1003300049084FEA30000019514132462B4603B0BC
:10034000BDE8F04F00F06BB9009801224000002397
:10035000D0EB020263EBE073009821464FEAE074B1
:10036000B8EB000061EB0401E9E783F000435BE7D1
:1003700081F0004158E72DE9FE4F81EA030404F0C3
:10038000004421F0004100944FF0000B23F00043A3
:1003900050EA01045ED052EA03045BD0C3F30A546E
:1003A000C1F30A552C44A4F2F3340194A0FB025487
:1003B000C1F3130141F48011C3F3130343F4801319
:1003C00001FB024400FB034E840A970A44EA81546D
:1003D00047EA8357A4FB076802958D0A05FB07854A
:1003E0004FEA932C04FB0C542705029D4FEA065854
:1003F00047EA1637B5EB08056EEB070C870E920E31
:1004000047EA811742EA8312A7FB0201B6EB0B0110
:1004100064EB00042B0D43EA0C335E1844EB1C50D4
:10042000DA465146E7FB0201C5F313044FEA0B33EA
:1004300043EA14534FEA0432019C43EA0603A4F151
:100440000C040294009CCDE900B400F0F7F803B06E
:10045000BDE8F08F00200146F9E72DE9F04D81EA73
:10046000030404F0004B21F0004514464FF0000A4D
:1004700023F0004150EA050220D054EA01021DD0C9
:10048000C5F30A570246C5F31303C1F31300C1F3C2
:100490000A5640F4801543F48013A7EB0608101B9E
:1004A000D64608F2FD3873EB050002D308F10108C7
:1004B00001E092185B41B8F1000F03DA0020014619
:1004C000BDE8F08D00204FF48011064684460EE012
:1004D000171B73EB050705D3121B63EB05030643DC
:1004E0004CEA010C49084FEA300092185B4150EA8F
:1004F0000107EDD152EA030012D082EA040083EA38
:100500000501084305D0101BAB4106D20122002390
:1005100006E000224FF0004302E06FF001025310AA
:100520001AEB06004CEB085110EB0A0041EB0B01F3
:10053000BDE8F04D00F073B8C1F30A52C1F31301E6
:1005400040F2FF3341F480119A4202DA0020014662
:10055000704740F233439A42A2F2334202DC5242E5
:1005600000F03BB800F02AB830B5041E71F1000469
:1005700004DB4FF00044404264EB0101141E73F1B0
:10058000000405DB1C464FF00043524263EB0403BA
:10059000994208BF904230BD064C074D06E0E06826
:1005A00040F0010394E8070098471034AC42F6D3BA
:1005B000FFF7C2FD5821000878210008202A04DB3B
:1005C000203A00FA02F1002070479140C2F1200366
:1005D00020FA03F3194390407047202A04DB203AA5
:1005E00021FA02F00021704721FA02F3D040C2F153
:1005F00020029140084319467047202A06DBCB179A
:10060000203A41FA02F043EAE07306E041FA02F3CD
:10061000D040C2F12002914008431946704710B5FE
:10062000141E73F1000408DA401C41F10001921815
:100630005B411A4301D120F0010010BD2DE9F04DBE
:1006400092469B4611B1B1FA81F202E0B0FA80F213
:1006500020329046FFF7B2FF04460F4640EA0A00F8
:1006600041EA0B0153465A46084313D0114653EA58
:10067000010019D0C8F140025046FFF7AEFF054611
:100680000E46504659464246FFF798FF084305D0AC
:10069000012004E020463946BDE8F08D00200543E6
:1006A00046EAE0762C4337430A986305E40AA0EB58
:1006B00008000022FD0A44EA47540A3002D500200F
:1006C0000146E9E7010510196941DDE9084500190E
:1006D0006941BDE8F04DA2E700BFFEE770472DE994
:1006E000F0410246002500260020002300240027B8
:1006F00091F803C00CF00F0591F803C00CF0100C3A
:10070000BCF1000F03D091F802C04CEA050591F846
:1007100000C0BCF1000F31D0146800202BE04FF076
:10072000010C0CFA00F3B1F800C00CEA03069E427B
:1007300020D183004FF00F0C0CFA03F7BC4305FAED
:1007400003FC4CEA040491F803C0BCF1280F06D165
:100750004FF0010C0CFA00FCC2F814C00AE091F84A
:1007600003C0BCF1480F05D14FF0010C0CFA00FC9E
:10077000C2F810C0401C0828D1D31460B1F800C0E2
:10078000BCF1FF0F34DD546800202EE000F1080CAE
:100790004FF0010808FA0CF3B1F800C00CEA0306A8
:1007A0009E4221D183004FF00F0C0CFA03F7BC439B
:1007B00005FA03FC4CEA040491F803C0BCF1280FCD
:1007C00005D100F1080C08FA0CF8C2F8148091F871
:1007D00003C0BCF1480F07D100F1080C4FF001082D
:1007E00008FA0CF8C2F81080401C0828CED35460D8
:1007F000BDE8F0810246002093680B400BB1012058
:1008000000E00020704710B54FF4E13001F09CFB90
:1008100000F080FB10BD00BFFEE7000008B501211D
:10082000102000F06BF80F20ADF8000048208DF884
:10083000030069460148FFF752FF08BD0010014060
:1008400000BFFEE7704710B54FF4A06000F03AF823
:1008500010BD000070B5002100230F22C47804B33E
:10086000154C246804F4E064C4F5E064210AC1F185
:100870000403CA40447804FA03F184781440214305
:1008800009010E4C0678A155047804F01F050124D7
:10089000AC4005786D11AD0005F1E025C5F80041CB
:1008A00009E0047804F01F050124AC40044D0678EB
:1008B000761145F8264070BD0CED00E000E400E044
:1008C00080E100E002490143024A116070470000E4
:1008D0000000FA050CED00E07047000029B1064A5F
:1008E000D2690243044BDA6104E0034AD2698243CD
:1008F000014BDA61704700000010024029B1064A3E
:1009000092690243044B9A6104E0034A926982436C
:10091000014B9A61704700000010024030B5002181
:100920000022002400232D4D6D6805F00C0121B13B
:10093000042905D0082923D105E0294D056022E0CE
:10094000274D05601FE0254D6D6805F47012234D9D
:100950006D6805F48034022505EB92421CB9214DE7
:10096000554305600BE01D4D6D6805F400351DB164
:100970001C4D5543056002E0194D5543056002E0EA
:10098000174D056000BF00BF144D6D6805F0F00104
:100990000909154D6B5C0568DD4045600F4D6D68BC
:1009A00005F4E061090A104D6B5C4568DD40856027
:1009B0000A4D6D6805F46051C90A0B4D6B5C4568C2
:1009C000DD40C560054D6D6805F44041890B074D5C
:1009D0006B5CC568B5FBF3F5056130BD00100240E6
:1009E00000127A0000093D001400002024000020BD
:1009F000F0B5DBB008211B48FFF7FCFE04460421DC
:100A00001848FFF7F7FE054602211648FFF7F2FEE9
:100A1000064601211348FFF7EDFE07463B46124A02
:100A2000124935A8CDE90065029400F027FC35A8ED
:100A3000FFF7ACFB044622460DA103A800F01EFC04
:100A400035A912A000F00AFC4FF47A7210A103A895
:100A500001F022F94FF47A720EA135A801F01CF9C9
:100A60005BB0F0BD00100140DF0800200C21000841
:100A700041542B5055424C4953483D225448485903
:100A80004F4D54222C25642C320D000025730D008F
:100A90003E0000004F4B000070B50A2500BF6422E5
:100AA0000AA10BA001F0F8F8044624B94FF47A70BB
:100AB00001F088F807E04FF4487001F083F8681EF1
:100AC000C0B2051EEBD100BF284670BD4F4B0000E1
:100AD00041540D0010B50A2400BF64220AA10DA0E4
:100AE00001F0DAF820B94FF47A7001F06BF807E002
:100AF0004FF4487001F066F8601EC0B2041EECD1DD
:100B000000BF204610BD00002B4350494E3A5245CD
:100B10004144590041542B4350494E3F0D000000C1
:100B200010B50A2400BF64220AA10BA001F0B4F89A
:100B300020B94FF47A7001F045F807E04FF448709F
:100B400001F040F8601EC0B2041EECD100BF204688
:100B500010BD00004F4B000041542B47534E0D0079
:100B6000704710B500F002F810BD00000CB5002071
:100B7000019000903348006840F4803031490860AB
:100B800000BF3048006800F4003000900198401C1D
:100B90000190009818B90198B0F5A06FF1D12948DB
:100BA000006800F4003010B10120009001E0002046
:100BB00000900098012843D12348006840F01000BD
:100BC000214908600846006820F0030008600846D4
:100BD000006840F0020008601A48406819494860FF
:100BE0000846406848600846406840F480604860B5
:100BF0000846406820F47C1048600846406840F48D
:100C0000E81048600846006840F08070086000BF47
:100C10000C48006800F000700028F9D009484068CE
:100C200020F00300074948600846406840F0020091
:100C3000486000BF0348406800F00C000828F9D164
:100C40000CBD0000001002400020024070B50A25D3
:100C500000BF64220AA10BA001F01EF8044624B9CB
:100C60004FF47A7000F0AEFF07E04FF4487000F0E8
:100C7000A9FF681EC0B2051EEBD100BF284670BD9B
:100C80004F4B0000415445300D000000042808D1AE
:100C90004FF0E021096941F004014FF0E0221161B9
:100CA00007E04FF0E021096921F004014FF0E02254
:100CB000116170477047000010B51348006840F09C
:100CC00001001149086008464068104908400E4973
:100CD0004860084600680E4908400B49086008460D
:100CE000006820F4802008600846406820F4FE0078
:100CF00048604FF41F008860FFF733FF4FF000603B
:100D00000449086010BD0000001002400000FFF818
:100D1000FFFFF6FE08ED00E01548008800F0010036
:100D200020B31348008820F00100114908801148C1
:100D30000088401C0F4908800F480088401C0E495D
:100D400008800C480088142805DD00200949088027
:100D500001200A49087008480088B0F5E15F05DD08
:100D600000200549088001200549087070470000EF
:100D70001004004034000020360000203200002023
:100D8000330000202DE9F04704460D463E48C06977
:100D900040F002003C49C8613C480480001D0580C9
:100DA0003A482838008840F08000384928390880BF
:100DB00036481438008840F001003449143908805E
:100DC0004FF6FE70091F0880081F008840F00100E0
:100DD000091F0880052002462D4B19684FF6FF03B6
:100DE00019402C4B0B4343EA0221294B196000BFE9
:100DF0001D200522022637461346C3F10709B9F123
:100E0000040F02D94FF0040901E0C3F10709C846F5
:100E100003F10409B9F1070F02D24FF0000901E014
:100E2000A3F10309CC464FF0010909FA08F9A9F129
:100E3000010909EA060909FA0CF94FF0010A0AFA50
:100E40000CFAAAF1010A0AEA070A49EA0A0100BFF4
:100E5000002808DA0A07160E0D4A0C3200F00F03BC
:100E60001B1FD65403E00A07130E0B4A135400BF8E
:100E70001D20012181404209920002F1E022C2F8C6
:100E8000001100BFBDE8F0870010024028040040B8
:100E90000CED00E00000FA0500E400E000B50A48AF
:100EA000008A00F0010068B10120084908700020A4
:100EB000074908700448008A20F0010002490882AE
:100EC00001F0BCF800BD0000001000403800002018
:100ED0003900002010B50C48008800F0010090B1E6
:100EE0000948008820F00100074908800748008869
:100EF00040F400400549088001F0BEF8034801783D
:100F0000034800F091F810BD101400403C00002090
:100F1000C40400202DE9F0413F48C06940F02000A2
:100F20003D49C8613D48008840F080003B49088049
:100F30000846008840F0080008800846008840F015
:100F4000040008800846008820F00200088037204E
:100F50000522022425461346C3F1070CBCF1040FF9
:100F600002D94FF0040C01E0C3F1070C674603F10E
:100F7000040CBCF1070F02D24FF0000C01E0A3F10A
:100F8000030C66464FF0010C0CFA07FCACF1010CA7
:100F90000CEA040C0CFA06FC4FF0010808FA06F8FB
:100FA000A8F1010808EA05084CEA080100BF00287A
:100FB00007DA0A07140E1A4A00F00F031B1FD45455
:100FC00003E00A07130E174A135400BF372000F03E
:100FD0001F02012191404209920002F1E022C2F871
:100FE000001100BF0D480C30008840F001000B4993
:100FF0000C31088041F61F400849283108806320E1
:10100000091D088005481430008840F0010003499C
:1010100014310880BDE8F081001002400014004047
:1010200018ED00E000E400E010B5024600200BE0FF
:1010300000BF074B1B8803F04003002BF9D0135C63
:10104000034CA380431CD8B28842F1DB10BD0000E2
:101050000050004010B51248008800F02000F0B1A8
:101060000F48001D0088C4B20E480088B0F5806F9C
:101070000FDA00F0EDFF0B48008808B900F0EEFF32
:10108000084801880088401C064A108006484454DD
:1010900005E00448008840F400400249088010BD83
:1010A000003801403C000020C404002000BF054976
:1010B000098801F040010029F9D00249091D088082
:1010C000704700000038014000B51048008800F06B
:1010D0002000D0B10D48001D0088C2B20C48007835
:1010E00040280FDA00F098FF0A48007808B900F0AD
:1010F00099FF074801780078401C054B1870064896
:10110000425402E001200349087000BD004800403D
:1011100039000020380000204400002021B18289DD
:1011200042F40052828104E082894DF6FF731A4036
:1011300082817047F0B50346002400260025002078
:1011400040F66A17B94200D100BF1846C1F34214F5
:1011500001F01F06012707FA06F5012C01D10C301A
:1011600004E0022C01D1103000E014301AB10768FD
:101170002F43076002E00768AF430760F0BD00003F
:101180002DE9F04786B005460E460024A24600BF72
:10119000A1460027B08900B100BF2F462C8A4CF62B
:1011A000FF700440F08804432C82AC894EF6F310A3
:1011B0000440B08831890843718908430443AC81F5
:1011C000AC8A4FF6FF400440B0890443AC8201A8CA
:1011D000FFF7A4FB1F48874202D1DDF810A001E011
:1011E000DDF80CA0A88900F4004040B10AEBCA0069
:1011F00000EB0A1031684900B0FBF1F807E00AEB98
:10120000CA0000EB0A1031688900B0FBF1F86420D5
:10121000B8FBF0F004012009642101FB1089A889C2
:1012200000F4004040B1322000EBC900B0FBF1F007
:1012300000F00700044308E0322000EB09106421AD
:10124000B0FBF1F000F00F0004432C8106B0BDE8C4
:10125000F08700000038014000BFFEE70FB4054BE7
:1012600010B503A9044A029800F0EEF810BC5DF82E
:1012700014FB0000491C00082C0000200FB4084B90
:1012800010B504A902AA039800F0DEF8044602A9EA
:10129000002000F070FC204610BC5DF814FB00003C
:1012A000771B000802E008C8121F08C1002AFAD103
:1012B00070477047002001E001C1121F002AFBD1D6
:1012C000704700002DE9FF5F82B00021DDE90430A6
:1012D000020DDDF840B0034318D044F61050A2F2DE
:1012E000FF3242431514119801281FD0A5EB0B00C3
:1012F000401C5FEA000A4FF000064E4FDFF83891BD
:10130000B046504615D5CAF1000413E011980124E7
:101310004AA3012801D16FEA0B010298119AC0E992
:101320000031C0E9024206B0BDE8F09FCBF10000F9
:10133000DFE704460021404A491842EB0450CDE95A
:10134000001012E0E00707D032463B4640464946CF
:10135000FFF711F88046894632463B46104619464B
:10136000FFF709F806460F466410002CEAD1DDE9C4
:101370000401DDE90023BAF1000F06DAFEF7FBFFF6
:1013800042464B46FEF7F7FF05E0FFF766F8424698
:101390004B46FFF762F804460E460022284BFFF743
:1013A000E3F803D84FF0FF30014607E00022254B59
:1013B00020463146FEF738FFFFF7BEF8102409E05B
:1013C000002C0ADB0A220023FEF7FDFE039B3032CD
:1013D0001A55641E50EA0102F2D1641C039AC4F14A
:1013E00011031444119A012A03D0012208430DD19C
:1013F0000AE0084304D000204FF0110B119072E76F
:10140000A3EB0B056D1E0DE05B4504DD4FF0000204
:1014100005F1010504E003DA4FF00002A5F1010532
:10142000002AECD002981199C0E90231C0E90045C8
:1014300079E70000000014400000F03F3000000099
:101440000000F0430000E03F2DE9FF4F95B09B46C0
:101450008946064600250FE2252877D10024274635
:10146000F84A0121059400E0044316F8013F203BAF
:1014700001FA03F01042F7D130782A2811D06FF02A
:101480002F033078A0F13002092A16D8059A44F0CB
:10149000020402EB820203EB42021044761C059028
:1014A000EFE759F8042B0592002A03DA504244F47E
:1014B0000054059044F00204761C30782E2816D192
:1014C00016F8010F44F004042A280DD06FF02F0203
:1014D0003078A0F13003092B09D807EB870302EB22
:1014E0004303C718761CF3E759F8047B761C307861
:1014F0006C280FD006DC4C2817D068280DD06A283D
:1015000014D104E0742810D07A280FD10DE044F4EF
:1015100000140AE044F4801401E044F440147278AA
:10152000824202D104F58014761C761C307866283D
:101530000BD013DC582877D009DC002875D045285B
:10154000F6D04628F4D047281AD19DE118E0632848
:1015500035D0642879D0652812D195E1702873D0F0
:1015600008DC6728F1D069286FD06E280DD06F286D
:1015700006D1B5E073282CD0752875D0782874D0A2
:101580005A46179990476D1C75E1C4F30250022822
:1015900009D003280DD0D9F8001004280DD00D6013
:1015A00009F1040967E1D9F80010EA17C1E900520E
:1015B000F6E7D9F800100D80F2E70D70F0E719F8A2
:1015C000041B8DF8001000208DF80100EA46012070
:1015D00003E059F804AB4FF0FF3061074FF0000112
:1015E00002D40DE008F101018846B9420FDA8045C6
:1015F000F8DB1AF808100029F4D108E008F101011D
:1016000088468142FADB1AF808100029F6D10598BD
:101610005B46A0EB080721463846179A00F094FA7B
:10162000284400EB080507E04DE029E10DE01AF839
:10163000010B5A4617999047B8F10108F7D25B465B
:1016400021463846179A13E142E00A220092C4F379
:1016500002524FF0000A022A08D059F804CB032A9C
:101660004FEAEC710AD00DE029E02AE009F1070108
:1016700021F00702F2E802C1914609E00FFA8CFC62
:101680004FEAEC71042A03D14FFA8CFC4FEAEC715B
:10169000002907DA0A460021DCF1000C61EB0201A7
:1016A0002D2202E0220504D52B228DF804200122F0
:1016B00003E0E20701D02022F7E7904659E00A2133
:1016C00002E010220DE010214FF0000A00910BE023
:1016D00010224FF0000A44F004040827009203E0AF
:1016E00008224FF0000A0092C4F30252022A05D0E9
:1016F00059F804CB0021032A08D009E009F10701B9
:1017000021F00702F2E802C1914605E01FFA8CFCC5
:10171000042A01D10CF0FF0C4FF00008220728D555
:10172000702806D0009B83F0100353EA0A0305D00B
:101730000EE040228DF80420012208E05CEA01025C
:1017400006D030228DF804208DF805000222904644
:10175000009B83F0080353EA0A030AD15CEA010202
:1017600001D1620705D530228DF804204FF0010821
:101770007F1E582804D034A003900EA802900DE0DC
:1017800036A0F9E753466046009AFEF71CFD8446F2
:101790000398825C0298401E029002705CEA01008D
:1017A000F0D1029806A9081A00F1200A600702D5B4
:1017B00024F4803400E00127574502DDA7EB0A003E
:1017C00000E0002000EB0A01009005984144401A17
:1017D0000590E00306D45B462146179A059800F071
:1017E000B3F90544002706E001A85A46C05D1799E1
:1017F00090476D1C7F1C4745F6DBE0030CD55B462C
:101800002146179A059800F09FF9054404E030201E
:101810005A46179990476D1C0099481E0090002960
:10182000F5DC08E0029802995A460078491C0291BA
:10183000179990476D1CBAF10001AAF1010AF1DC79
:1018400065E1000009280100303132333435363784
:1018500038396162636465660000000030313233FC
:10186000343536373839414243444546000000009C
:1018700000F058F90544761C307800287FF4ECAD70
:1018800019B02846BDE8F08F620700D4062709F199
:10189000070222F0070CFCE80223E14603F00048AF
:1018A0005FEA080C02D00FF2702C0DE05FEA045CD6
:1018B00002D50FF2682C07E05FEAC47C02D00FF279
:1018C000602C01E0AFF2700C4FF0FF3823F00043C2
:1018D000CDF850C065280CD006DC452809D0462834
:1018E0001DD047283DD13DE0662818D067287ED11D
:1018F00038E00021112F01DB112000E0781CCDE938
:10190000000106A90EA8FFF7DDFCDDE90F010E9A24
:1019100003910021009207F1010A04914DE04FF07C
:1019200000400097CDE9011006A90EA8FFF7CAFCF8
:10193000DDE90F0203920E9B11990022DDF80CA045
:101940000093049211B9791C00EB010AB7EB0A006D
:1019500004D4C0F1FF3007F1010A0490AAEB07009C
:10196000019044E0012F00DA01270021112F01DD51
:10197000112000E03846CDE9000106A90EA8FFF7C6
:10198000A1FCDDE90F010E9A039100210491009260
:10199000BA4621070CD40399514500DA8A46BAF1B8
:1019A000010F05DD009AAAF10101515C302908D030
:1019B000B84202DA10F1040F06DA0121CDE9011074
:1019C00015E0AAF10101E9E7002805DC04990144CA
:1019D0000491AAEB000102E0411C514500DD8A465A
:1019E0000499401A401C01904FF0004002902007DB
:1019F00004D40198504501DBCDF8048000208DF817
:101A00004F0002980DF14F07B0F1004F25D02B2069
:101A10000E9002984FF0020800280CDA4042029023
:101A20002D200E9007E00A210298FEF7B6FB303118
:101A3000029007F8011DB8F10001A8F10108F2DCDD
:101A400002980028EFD1791E0E980870307800F0C7
:101A5000200040F0450007F8020D12A8C01B00F15D
:101A600007081498007800B1012000EB0A010198E2
:101A700001EBE07105984144401A401E0590E003D7
:101A800006D45B462146179A059800F05DF8054498
:101A90001498007818B15A46179990476D1CE003C6
:101AA00024D55B462146179A059800F04DF8054469
:101AB0001CE00498002807DBDDE90301884203DD10
:101AC0000098405C179901E0179930205A469047DA
:101AD000049805F10105401C04900198401E0190F6
:101AE00004D12E205A46179990476D1CBAF1000177
:101AF000AAF1010ADDDC05E017F8010B5A46179937
:101B000090476D1CB8F10001A8F10108F4DC5B46B8
:101B10002146179A0598ABE62D0000002B00000027
:101B2000200000002DE9F041044600251E4617461E
:101B3000880404D405E039462020B0476D1C641E9B
:101B4000F9D52846BDE8F0812DE9F041044600258D
:101B50001E469046C80301D5302700E020278804A0
:101B600004D505E041463846B0476D1C641EF9D5E2
:101B70002846BDE8F0810A68531C0B60107070475E
:101B800010B56FF00400FFF781F80A4800680A49B1
:101B9000B0FBF1F0094908700846007800EB4001FD
:101BA000C1EBC0104FF6FF7101EAC0000449088084
:101BB00010BD00000000002000127A002800002064
:101BC0002A00002070B504464FF47A7094FBF0F0C0
:101BD000C6B24FF47A7094FBF0F100FB114085B26D
:101BE00005E04FF47A7000F009F8701EC6B2002EBE
:101BF000F7D115B1284600F001F870BD0146114A31
:101C000012884A434FF0E0235A6100229A611A4633
:101C1000126942F001021A6100BF4FF0E022106920
:101C200000F001021AB100F48032002AF5D04FF022
:101C3000E022126922F001024FF0E0231A61002233
:101C40009A6170472A00002000BF054A128802F0FE
:101C50004002002AF9D0C2B2014B9A8070470000BE
:101C60000050004070B5044600250948008800F483
:101C7000004058B1002006490988C1F30E01054A09
:101C8000505421461046FEF76FFA0546284670BDAF
:101C90003C000020C40400202DE9F04104460E461B
:101CA00015460027002018490880012017490870B0
:101CB000FF2C02D816490C8003E0214615A000F045
:101CC00031F8C6B1BDB10FE00B20FFF77BFF0E4826
:101CD000008800F4004038B13046FFF7C3FF00B180
:101CE00006E0002008490880681E80B2051EEBD17E
:101CF00000BF05B901270020034908800349087087
:101D00003846BDE8F08100003C0000204000002083
:101D1000043801402573000000B502461046FFF765
:101D2000C5F900BD0FB42DE9F04186B00DA80090B3
:101D300081E00C9800785C281BD10C98401C0C901A
:101D40000C9800786E2808D072280DD10D20FFF76E
:101D5000ADF90C98401C0C900AE00D20FFF7A6F995
:101D60000C98401C0C9003E00C98401C0C9000BF99
:101D700061E00C980078252857D10C98401C0C90F5
:101D80000C980078642804D066281BD0732847D1AB
:101D900037E0009850F8048B009042462BA101A830
:101DA000FFF76CFA002404E001A9085DFFF7B4FF17
:101DB000641C01A8FEF7EAF9A042F5D80C98401C73
:101DC0000C9031E00098C01D20F007000090D0E991
:101DD00000670830009032463B461DA101A8FFF77E
:101DE0004DFA002404E001A9085DFFF795FF641C8B
:101DF00001A8FEF7CBF9A042F5D80C98401C0C9036
:101E000012E0009820C8009003E015F8010BFFF7DE
:101E100083FF28780028F8D10C98401C0C9003E030
:101E20000C98401C0C9000BF05E00C9911F8010BB8
:101E30000C91FFF771FF0C98007800287FF479AFC0
:101E400006B0BDE8F0015DF814FB00002564000059
:101E500025660000FEF7F7FCFEF7E0FCFFF790FEBA
:101E60004FF4165000F012F9FEF7CDFC40F6B830F2
:101E7000FFF7A8FE1BA0FFF7F1F900F04BF844F6BE
:101E80002060FFF79FFE42F20F7141F61F40FEF700
:101E900079FF00F0A9F823E01A480078012808D15A
:101EA00000F0B0F8002017490870FEF7A1FD00F01F
:101EB0009BF815480078012812D100BF80F31388E1
:101EC00000BF00BF1148006800F4E06010490843FB
:101ED000001D0E490860BFF34F8F00BF00BFFEE733
:101EE000DAE700007265737461727420776F726B49
:101EF00021212121212121212121212121210D0AFD
:101F00000000000032000020330000200CED00E053
:101F10000000FA0510B5FEF7BFFDFEF797FEFEF7CD
:101F2000FFFD002406E00649A01C085C0549085591
:101F3000601CC4B20F2CF6DBFEF7CCFD10BD000018
:101F4000C4040020DF08002010B586B0044601213B
:101F500044F20400FEF7D2FC4FF40070ADF8140018
:101F600003208DF8160018208DF8170005A91C48CD
:101F7000FEF7B5FB4FF48060ADF8140004208DF837
:101F8000170005A91648FEF7AAFB25208DF80000CA
:101F900002208DF801008DF8020001208DF8030069
:101FA0006846FEF757FC01940020ADF80800ADF834
:101FB0000A00ADF80C00ADF810000C20ADF80E00D2
:101FC00001A90848FFF7DCF8012240F22551054835
:101FD000FFF7B0F801210348FFF7A0F806B010BDE5
:101FE00000080140003801400020054908800448ED
:101FF0002438008840F001000149243908807047E6
:10200000240400400348008820F0010001490880B2
:102010007047000000040040002001498884704798
:10202000001000400020044988840846008840F0E1
:10203000010008807047000000100040034800883D
:1020400020F00100014908807047000000100040A6
:1020500000200149088070472414004000200549F1
:10206000088004482438008840F0010001492439E0
:1020700008807047241400400348008820F00100C5
:1020800001490880704700000014004010B586B078
:10209000044601213120FEF731FC01210805FEF73D
:1020A0001DFC4FF48050ADF8140018208DF8170077
:1020B00003208DF8160005A91148FEF710FB042037
:1020C000ADF814008DF8170005A90E48FEF707FBC0
:1020D00001940020ADF80800ADF80A00ADF80C003E
:1020E000ADF810000C20ADF80E0001A90648FFF76E
:1020F00047F801210448FFF711F806B010BD0000B1
:102100000010014000140140005000407B2249446F
:102110005F494D4549223A222573222C22636C6582
:10212000616E657231223A222564222C2266616E2C
:1021300031223A222564222C22636C65616E65721D
:1021400032223A222564222C2266616E32223A2201
:102150002564227D00000000782100080000002096
:1021600044000000A4120008BC2100084400002024
:10217000AC0C0000B412000800A24A0400000000E9
:102180000000000001020304060708090000000027
:1021900001020304010203040607080902040608F9
:1021A000000000000000000000000000000000002F
:0C21B00000000000000000000000000023
:0400000508000131BD
:00000001FF
