:020000040800F2
:10000000D0A4002045010008FD270008C51F0008F6
:10001000AD270008B70A0008D13D00080000000025
:100020000000000000000000000000006332000833
:10003000290F000800000000B529000875330008EA
:100040005F0100085F0100085F0100085F01000810
:100050005F0100085F0100085F0100085F01000800
:100060005F0100085F0100085F0100085F010008F0
:100070005F0100085F0100085F0100085F010008E0
:100080005F0100085F0100085F0100085F010008D0
:100090005F0100085F0100085F0100082D0F0008E4
:1000A0005F0100085F0100085F0100085F010008B0
:1000B0005F010008D9330008913400085F0100088F
:1000C0005F0100085F0100085F0100085F01000890
:1000D0005F01000881380008F53800085F0100085A
:1000E0005F0100085F0100085F0100085F01000870
:1000F0005F0100085F0100085F0100085F01000860
:100100005F0100085F0100085F0100085F0100084F
:10011000393700085F0100083D35000869350008DF
:100120005F0100085F0100085F0100085F0100082F
:10013000DFF80CD000F018FC004800479D6E000866
:10014000D0A400200648804706480047FEE7FEE7A7
:10015000FEE7FEE7FEE7FEE7FEE7FEE7FEE7FEE777
:10016000793300083101000840EA01039B0703D0FE
:1001700009E008C9121F08C0042AFAD203E011F8E6
:10018000013B00F8013B521EF9D27047D2B201E0A8
:1001900000F8012B491EFBD270470022F6E710B58C
:1001A00013460A4604461946FFF7F0FF204610BDE5
:1001B00030B505462A460B4612F8010B13F8014BE1
:1001C00008B1A042F8D01CB1002802D06D1CF1E7A4
:1001D000284630BD421C10F8011B0029FBD1801AB3
:1001E000704710B5002200E0521C835C8C5CA34277
:1001F00001D1002BF8D1D8B2E1B2401A10BDF0B451
:1002000080EA0102D40F4200B2EB410F02D2024653
:10021000084611464A0042D0C30DDDB2C1F3C752B1
:10022000AD1A202D35DAC1F3160141F4000204B1F4
:100230005242C5F1200602FA06F12A411044B3EBFE
:10024000D05F23D0C4B1012DA0EBC35009DCF0BCBA
:100250004FF0004202EAC352DBB200F5000000F0AA
:10026000CBB9400000F1807000EBC350A0F180706A
:1002700040EAD170490009E0490841EAC071A0EBA9
:10028000C35000F50000400800EBC350F0BC00F084
:10029000AAB96142012202EB4101001BF6E7F0BC62
:1002A000704781F00041AAE780F00040A7E780EAAC
:1002B000010210B502F00043400022D04A001FD0D6
:1002C000010E01EB1261C0F35600C2F3560240F476
:1002D000000042F40002A0FB022000047F39140455
:1002E00000D0401C50EA124001D44000491EC2B266
:1002F0000C0604EBD010401C4008802A02D003E01A
:10030000002010BD20F00100002900DA0020184371
:1003100010BD30B480EA010202F0004530F0004226
:1003200021F0004013D090B1C30DD40DC2F31601DB
:10033000C0F31600E41A41F4000140F400027D34D9
:10034000914201D3641C00E04900002C02DA30BC69
:10035000002070474FF400000023914201D3891A16
:10036000034340084FEA4101F7D151B1914202D114
:100370004FF0004105E002D24FF0010101E06FF0C3
:10038000010103EBC450284430BC00F02CB92DE926
:10039000FE4F81EA030404F0004421F00041009480
:1003A0004FF0000B23F0004350EA01045ED052EA04
:1003B00003045BD0C3F30A54C1F30A552C44A4F2DE
:1003C000F3340194A0FB0254C1F3130141F48011F2
:1003D000C3F3130343F4801301FB024400FB034EF9
:1003E000840A970A44EA815447EA8357A4FB0768C2
:1003F00002958D0A05FB07854FEA932C04FB0C54EC
:100400002705029D4FEA065847EA1637B5EB08055F
:100410006EEB070C870E920E47EA811742EA8312B1
:10042000A7FB0201B6EB0B0164EB00042B0D43EAC2
:100430000C335E1844EB1C50DA465146E7FB0201D0
:10044000C5F313044FEA0B3343EA14534FEA043263
:10045000019C43EA0603A4F10C040294009CCDE93C
:1004600000B400F004F903B0BDE8F08F00200146AD
:10047000F9E7C10F80EAE0700844CA07962300211B
:1004800000F0BAB896230022114600F0B5B800F08B
:10049000004220F00040C10DC0F3160040F40000FF
:1004A0007F2901DA00207047962903DCC1F196010B
:1004B000C84001E096398840002AF4D04042704795
:1004C00020F00040C10DC0F3160040F400007F2969
:1004D00001DA00207047962903DCC1F19601C8407B
:1004E000704796398840704700F0004230F0004075
:1004F0000AD0C10D01F56071C0F3160042EA015146
:10050000C2084007114370470020014670470000B1
:1005100030B5002904DB4FF00044404264EB010198
:10052000002B04DB4FF00044524264EB030399427A
:1005300008BF904230BD000030B50B460146002098
:100540002022012409E021FA02F59D4205D303FA95
:1005500002F5491B04FA02F52844151EA2F1010216
:10056000F1DC30BD2DE9F05F0546002092469B4648
:1005700088460646814640241BE0284641464746B9
:10058000224600F020F853465A46C01A914110D333
:1005900011461846224600F0F9F92D1A67EB0108BA
:1005A0004F4622460120002100F0F0F917EB000928
:1005B0004E41201EA4F10104DFDC484631462A46A4
:1005C0004346BDE8F09F202A04DB203A21FA02F0DE
:1005D0000021704721FA02F3D040C2F1200291407D
:1005E0000843194670470029A8BF7047401C4900BE
:1005F00008BF20F00100704710B4B0FA80FC00FA88
:100600000CF050EA010404BF10BC704749B1CCF1B2
:10061000200421FA04F411FA0CF118BF012121433E
:100620000843A3EB0C01CB1D4FEA00614FEA1020F9
:1006300042BF002010BC704700EBC350104400299B
:10064000A4BF10BC7047401C490008BF20F0010047
:1006500010BC704710B5002B08DA401C41F10001B6
:1006600092185B411A4301D120F0010010BD2DE921
:10067000F04D92469B4611B1B1FA81F202E0B0FA18
:1006800080F22032904600F081F904460F4640EA9D
:100690000A0041EA0B0153465A46084313D011465B
:1006A00053EA010019D0C8F140025046FFF78BFF12
:1006B00005460E4650465946424600F067F9084343
:1006C00005D0012004E020463946BDE8F08D002029
:1006D000054346EAE0762C4337430A986305E40A6B
:1006E000A0EB08000022FD0A44EA47540A3002D574
:1006F00000200146E9E7010510196941DDE90845D7
:1007000000196941BDE8F04DA4E72DE9FE4F804690
:1007100081EA0300C00F0C46009021F0004123F055
:100720000045B8EB0200A94105D24046214690465B
:100730001C460B46024623F00040104347D0270DCD
:10074000C7F30A00C3F30A510290401A01904028EF
:100750006BDAC3F3130040F4801B0098924620B17B
:100760000023D2EB030A63EB0B0B01985946C0F14F
:100770004002504600F00AF906460D4650465946DA
:10078000019A00F012F910EB08006141002487EA99
:10079000115284EAE7731A4340D0009A62B3019A77
:1007A000012A4FEA075215DC001B61EB02014FF0F2
:1007B000004202EA0752CDE90042001C41F58011D7
:1007C00032462B46FFF753FF03B0BDE8F08F40469B
:1007D0002146F9E7001B61EB0201001C41F5801383
:1007E00000185B412018A2F5001747EB030140EA0F
:1007F000D570B6196D4111E06D084FEA360645EA2D
:10080000C0754FEA0752001B61EB0201001C41F565
:10081000801149084FEA30000019514132462B46F9
:1008200003B0BDE8F04FFFF715BF0098012240006C
:100830000023D0EB020263EBE073009821464FEAFD
:10084000E074B8EB000061EB0401E9E783F00043DA
:100850005BE781F0004158E72DE9F04D81EA0304A0
:1008600004F0004B21F0004514464FF0000A23F03D
:10087000004150EA050220D054EA01021DD0C5F320
:100880000A570246C5F31303C1F31300C1F30A5616
:1008900040F4801543F48013A7EB0608101BD646DE
:1008A00008F2FD3873EB050002D308F1010801E0FE
:1008B00092185B41B8F1000F03DA00200146BDE851
:1008C000F08D00204FF48011064684460EE0171B81
:1008D00073EB050705D3121B63EB050306434CEAD4
:1008E000010C49084FEA300092185B4150EA0107B9
:1008F000EDD152EA030012D082EA040083EA050136
:10090000084305D0101BAB4106D20122002306E0AC
:1009100000224FF0004302E06FF0010253101AEB87
:1009200006004CEB085110EB0A0041EB0B01BDE84F
:10093000F04DFFF78FBEC1F30A52C1F3130140F22D
:10094000FF3341F480119A4202DA002001467047D9
:1009500040F233439A42A2F2334202DC5242FFF7A2
:1009600032BE00F013B80000064C074D06E0E06808
:1009700040F0010394E8070098471034AC42F6D3E6
:10098000FFF7DAFB5487000874870008202A04DB8D
:10099000203A00FA02F1002070479140C2F1200392
:1009A00020FA03F3194390407047202A06DBCB1747
:1009B000203A41FA02F043EAE07306E041FA02F31A
:1009C000D040C2F1200291400843194670472DE9FA
:1009D000F0410546884614461E4601F0A9FBA021B9
:1009E00041EA4501C8B201F0EFFB08F0FF0001F059
:1009F000EBFB01F09DFBA02141EA4501491CC8B277
:100A000001F0E2FB01270DE0B74204DA002001F01B
:100A100059FB207003E0012001F054FB2070641C9E
:100A2000781C87B2B742EFDD01F0AAFBBDE8F08188
:100A30002DE9F04180460D4616461F46002408E089
:100A4000325D2946404600F008F8681C85B2601CFB
:100A500084B2BC42F4DBBDE8F08170B504460D46BB
:100A6000164601F065FBA02141EA4401C8B201F03D
:100A7000ABFBE8B201F0A8FB304601F0A5FB01F0AA
:100A80007FFB0A2004F02EFA70BD10B501F0D6FBF2
:100A900010BD014648780A7840EA022070470146B6
:100AA000087800064A7840EA02408A7840EA022044
:100AB000CA781043704700BFFEE7000070B50246D9
:100AC0000C46FF25FF2309E012F8010B80EA05011F
:100AD0000648405C80EA03050548435C2000A4F119
:100AE0000104F1D143EA052070BD0000247D000817
:100AF000247E00082DE9F04705460026544C554851
:100B00000068D0F80C9054480068C76853480068E3
:100B1000D0F80C80A1450DD20120514908702A4619
:100B20004C4801684F48006800F0BAFB0646304662
:100B3000BDE8F087A7420CD20220494908702A4636
:100B4000454801684848006800F0AAFB0646304660
:100B5000EEE7A0450CD20320414908702A463F48E1
:100B600001684248006800F09BFB06463046DFE71C
:100B70003B480078032802D039480078F0B939485A
:100B8000006800F05FFB4FF47A7004F0ABF9314875
:100B900001683448006800F062FB4FF47A7004F09A
:100BA000A1F901202E4908702A462A4801682D48DB
:100BB000006800F075FB06463046B9E72848007823
:100BC00001281ED12848006800F03CFB4FF47A70E1
:100BD00004F088F9204801682348006800F03FFBD2
:100BE0004FF47A7004F07EF902201D4908702A46FD
:100BF000194801681C48006800F052FB0646304660
:100C000096E71748007802281ED11848006800F0BF
:100C100019FB4FF47A7004F065F910480168134825
:100C2000006800F01CFB4FF47A7004F05BF90320BD
:100C30000B4908702A46094801680C48006800F012
:100C40002FFB0646304673E76FF0010070E70000A7
:100C500000CA9A3B480000204C00002050000020B1
:100C60004400002054000020580000205C000020B8
:100C700030B595B08848C0795A287DD18648047A25
:100C8000214686A003F0F6F9834840798249097924
:100C900040EA012543F21F51681A8D426DD00CDCE9
:100CA000A5F54450A0F1FF00002867D0B0F5407FC3
:100CB0000CD0B0F5447F7DD144E0E0287BD0B0F586
:100CC0007E6F21D0B0F57F6FF5D15DE001207649D0
:100CD000087020210DA8FFF760FA22466E490931FD
:100CE0000DA8FFF741FA6C48027A01210020FFF7B6
:100CF000B4FE23460DAA1E210020FFF799FE0DA980
:100D00006AA003F0B7F9C3E001206B490870202105
:100D10000DA8FFF742FA22465F4909310DA8FFF7F7
:100D200023FA5D48027A05210020FFF796FE23464C
:100D30000DAA32210020FFF77BFE0DA95FA003F072
:100D400099F9A5E001206049087020210DA8FFF75E
:100D500024FA2246504909310DA8FFF705FA4E48FA
:100D6000027A02210020FFF778FE23460DAA2821EF
:100D70000020FFF75DFE02E08BE026E061E00DA9B8
:100D800052A003F077F983E0012053490870202135
:100D90000DA8FFF702FA22463F4909310DA8FFF7D7
:100DA000E3F93D48027A06210020FFF756FE23466C
:100DB0000DAA01E06BE026E03C210020FFF738FEA1
:100DC0000DA946A003F056F962E0012046490870DB
:100DD00020210DA8FFF7E1F922462F4909310DA87E
:100DE000FFF7C2F92C48027A03210020FFF735FEF5
:100DF00023460DAA64210020FFF71AFE0DA93BA08F
:100E000003F038F944E001203A49087020210DA888
:100E1000FFF7C3F92246204909310DA8FFF7A4F9CD
:100E20001D48027A04210020FFF717FE23460DAA71
:100E300096210020FFF7FCFD0DA92FA003F01AF961
:100E400026E020210DA8FFF7A8F922461249093112
:100E50000DA8FFF789F90DAA16A1684603F01AF943
:100E600027A16846FFF7BDF960B927A003F002F992
:100E70000A21284802F068FD142004F033F800200D
:100E800025490880694625A003F0F4F800E000BF7A
:100E900000BF15B030BD00003B9F00206C656E3D6B
:100EA00025640D0A00000000E1000020B5E7C1F74D
:100EB000B1C8313D25730000E3000020B5E7C1F75C
:100EC000B1C8323D25730000E0000020B5E7D1B97C
:100ED000B1C8313D25730000E2000020B5E7D1B96B
:100EE000B1C8323D25730000DE0000206970313D3D
:100EF00025730000DF0000206970323D257300007B
:100F00003636363636360000C3DCC2EBC6A5C5E43D
:100F10000D0A00004E7F0008E6000020C3DCC2EB93
:100F20003D25730D0A0000007047000000B599B020
:100F30000A2003F0D7FF4FF48071154800F09BFAA8
:100F400060B914A003F096F80223002214A16846A9
:100F500003F0A0F8694620A005F0C0FE4FF48071B0
:100F60000B4800F088FA01280CD11CA003F082F88D
:100F7000022301220AA1684603F08CF8694616A0F4
:100F800005F0ACFE4FF4807000F056F819B000BDCB
:100F9000000C0140CFE4CCE5B4F2BFAA0D0A00007A
:100FA0007B22446174614C697374223A5B7B2273C7
:100FB000746174223A222564227D5D2C2244657678
:100FC0004944223A224859444C2530346445502D36
:100FD0004143227D0D0A000025730000CFE4CCE5DB
:100FE000B9D8B1D50D0A00000EB50121084601F0AF
:100FF000F3FC0821012000F093F94FF48070019078
:1010000000208DF8080010208DF8090001208DF8CF
:101010000A0001A800F016F817208DF80000022041
:101020008DF801008DF8020001208DF8030068465C
:1010300001F042FC0EBD000001490860704700004D
:1010400014040140002123498279002A3AD00A463B
:10105000126803689A430B461A600A1D12680368F7
:101060009A430B1D1A60027911440A6803681A43F7
:101070000A60184A0832126803689A43154B08330D
:101080001A601A1D126803689A43124B0C331A60D7
:101090004279102A0ED11A1F126803681A430D4BA9
:1010A00008331A601A1D126803681A43094B0C337F
:1010B0001A600DE00749427911440A6803681A432F
:1010C0000A6005E0027911440A6803689A430A60DD
:1010D000704700000004014010B500241248016868
:1010E0001248006800F0BBF8C4B21148016811480A
:1010F000006800F0B4F8C4B20F4801680F480068F7
:1011000000F0ADF8C4B20E4801680E48006800F067
:10111000A6F8C4B20C4801680C48006800F09FF8BB
:10112000C4B260B210BD00003C000020600000208E
:1011300038000020640000204800002054000020F7
:101140004C00002058000020500000205C000020CF
:1011500070B5044600254FF40D7001F035FB33499E
:1011600008604FF40B7001F02FFB314908604FF419
:101170000B7001F029FB2F4908604FF40B7001F050
:1011800023FB2D4908604FF40B7001F01DFB2B4928
:1011900008604FF40B7001F017FB294908602348E1
:1011A000006838B32248006820B32248006808B3BA
:1011B000002221461D48006804F0E0FD0546BDB14F
:1011C0001D48006801F0F4FA1C48006801F0F0FACC
:1011D0001B48006801F0ECFA1648006801F0E8FAD4
:1011E0001348006801F0E4FA1048006801F0E0FAE2
:1011F00068B270BD1048006801F0DAFA0F48006864
:1012000001F0D6FA0E48006801F0D2FA09480068E9
:1012100001F0CEFA0648006801F0CAFA03480068F7
:1012200001F0C6FA4FF0FF30E3E700004000002075
:10123000380000203C000020480000204C00002026
:101240005000002070B504460025204604F055FFEC
:1012500005460DB9012070BD6FF00500FBE72DE9D3
:10126000F04105460C460026002714B9701EBDE863
:10127000F0813146284604F0C4FE10B96FF0060034
:10128000F5E704222946204604F0A2FD0746204641
:1012900004F00AFC0FB90120E9E74FF0FF30E6E760
:1012A0002DE9F04705460C461646DFF870900027FA
:1012B000B846BA4614B9B81EBDE8F087E7684F458E
:1012C00029D202222946204604F082FD8046B8F148
:1012D000000F1DD13946204604F0F7FB8046B8F1D7
:1012E000000F0FD12146304604F075FE824620469D
:1012F00004F0DAFBBAF1000F02DA6FF00100DBE76D
:101300000120D9E7204604F0CFFB6FF00100D3E7BE
:101310006FF00300D0E76FF00700CDE700CA9A3BFB
:1013200030B500228B071C0F0F2303FA04F20B4B7E
:101330008C1053F824309343084C8D1044F825301A
:1013400023468C1053F824308C07240F00FA04F441
:101350002343024C8D1044F8253030BD0800014075
:101360002DE9F0410246002500260020002300243C
:10137000002791F803C00CF00F0591F803C00CF0A2
:10138000100CBCF1000F03D091F802C04CEA050527
:1013900091F800C0BCF1000F31D0146800202BE0A0
:1013A0004FF0010C0CFA00F3B1F800C00CEA030690
:1013B0009E4220D183004FF00F0C0CFA03F7BC4380
:1013C00005FA03FC4CEA040491F803C0BCF1280FB1
:1013D00006D14FF0010C0CFA00FCC2F814C00AE070
:1013E00091F803C0BCF1480F05D14FF0010C0CFA85
:1013F00000FCC2F810C0401C0828D1D31460B1F81A
:1014000000C0BCF1FF0F34DD546800202EE000F175
:10141000080C4FF0010808FA0CF3B1F800C00CEA10
:1014200003069E4221D183004FF00F0C0CFA03F704
:10143000BC4305FA03FC4CEA040491F803C0BCF178
:10144000280F05D100F1080C08FA0CF8C2F8148036
:1014500091F803C0BCF1480F07D100F1080C4FF020
:10146000010808FA0CF8C2F81080401C0828CED3F6
:101470005460BDE8F0810246002093680B400BB138
:10148000012000E0002070470161704710B54FF463
:10149000E13006F067FA02F095F810BD2DE9F04F43
:1014A000F5B0414840880A2190FBF1F03F4928906F
:1014B000C86BFFF719F804460D463C49086BFFF767
:1014C00013F806460F463949C86AFFF70DF88046FB
:1014D00089463649886AFFF707F882468B463349C2
:1014E0008869FFF701F8CDE9260130494869FEF720
:1014F000FBFFCDE924012D490869FEF7F5FFCDE991
:1015000022012A49C868FEF7EFFFCDE920012749EB
:101510008868FEF7E9FFCDE91E0124494868FEF717
:10152000E3FFCDE91C0121490868FEF7DDFFCDE9A5
:101530001A011D48C0881C4989881B4B1B88289AA2
:10154000CDE91532CDE917100120CDE90CABCDE97D
:101550000E89CDE91067CDE912451490DDE9260129
:10156000CDE90A01DDE92401CDE90801DDE9220127
:10157000CDE90601DDE92001CDE90401DDE91E0127
:10158000CDE90201DDE91C01CDE90001084929A8E6
:10159000DDE91A2302F07EFD29A906A005F09EFBD5
:1015A00075B0BDE8F08F000044960020AC96002096
:1015B0009C850008257300002DE9F04FF5B04148E7
:1015C00040880A2190FBF1F03F492890C86BFEF754
:1015D0008BFF04460D463C49086BFEF785FF064627
:1015E0000F463949C86AFEF77FFF8046894636496B
:1015F000886AFEF779FF82468B4633498869FEF791
:1016000073FFCDE9260130494869FEF76DFFCDE94A
:1016100024012D490869FEF767FFCDE922012A4917
:10162000C868FEF761FFCDE9200127498868FEF709
:101630005BFFCDE91E0124494868FEF755FFCDE95F
:101640001C0121490868FEF74FFFCDE91A011D482A
:10165000C0881C4989881B4B1B88289ACDE9153204
:10166000CDE917100120CDE90CABCDE90E89CDE90C
:101670001067CDE912451490DDE92601CDE90A0194
:10168000DDE92401CDE90801DDE92201CDE906010A
:10169000DDE92001CDE90401DDE91E01CDE902010A
:1016A000DDE91C01CDE90001084929A8DDE91A237B
:1016B00002F0F0FC29A906A005F010FB75B0BDE80A
:1016C000F08F000070960020EC96002078860008CD
:1016D0002573000000B58DB0FE4880880990FEF7A4
:1016E000D1FE0B90FB4800880790FEF7CBFE0990D7
:1016F000F84800890790FEF7C5FE08900999FEF7A3
:10170000D6FD0A900B99FEF7D2FDF3490C90FEF737
:1017100000FEF2490860EF4880880990FEF7B2FEAB
:101720000B90EC4800880790FEF7ACFE0990E94862
:1017300040890790FEF7A6FE08900999FEF7B7FDCD
:101740000A900B99FEF7B3FDE3490C90FEF7E1FD1B
:10175000E2494860DF4880880990FEF793FE0B90CD
:10176000DC4800880790FEF78DFE0990D9488089F3
:101770000790FEF787FE08900999FEF798FD0A90FA
:101780000B99FEF794FDD4490C90FEF7C2FDD349A6
:101790008860D048C0880990FEF774FE0B90CD4851
:1017A00040880690FEF76EFE0890CA48C0890690F1
:1017B000FEF768FE07900899FEF779FDC849099081
:1017C000FEF7A7FD0A900B99FEF771FDC2490C9038
:1017D000FEF79FFDC149C860BE48C0880990FEF76A
:1017E00051FE0B90BB4840880690FEF74BFE0890D8
:1017F000B848008A0690FEF745FE07900899FEF764
:1018000056FDB7490990FEF784FD0A900B99FEF743
:101810004EFDB1490C90FEF77CFDB0490861AD4822
:10182000C0880990FEF72EFE0B90AA4840880690CB
:10183000FEF728FE0890A748408A0690FEF722FE91
:1018400007900899FEF733FDA5490990FEF761FD61
:101850000A900B99FEF72BFD9F490C90FEF759FD5E
:101860009E4948619B48C0880890FEF70BFE0A908D
:10187000984840880590FEF705FE079095488088B7
:101880000390FEF7FFFD0590924800880190FEF757
:10189000F9FD03908F48B0F914000190FEF7E9FDBF
:1018A00002900399FEF703FD04900599FEF7FFFCF3
:1018B00006900799FEF7FBFC89490890FEF729FD81
:1018C00009900A99FEF7F3FC86490B90FEF7EFFCAE
:1018D00081490C90FEF71DFD804988617D48C088D4
:1018E0000990FEF7CFFD0B907A4840880690FEF7EE
:1018F000C9FD0890774880880490FEF7C3FD0690E4
:10190000744800880290FEF7BDFD04907148B0F95C
:101910001C000290FEF7ADFD03900499FEF7C7FC92
:1019200005900699FEF7C3FC07900899FEF7BFFCE7
:101930006B490990FEF7EDFC0A900B99FEF7B7FC96
:1019400065490C90FEF7E5FC644988626148C088EF
:101950000990FEF797FD0B905E4840880690FEF7D1
:1019600091FD08905B4880880490FEF78BFD0690FF
:10197000584800880290FEF785FD04905548B0F95C
:101980001E000290FEF775FD03900499FEF78FFC90
:1019900005900699FEF78BFC07900899FEF787FCE7
:1019A0004F490990FEF7B5FC0A900B99FEF77FFCB2
:1019B00049490C90FEF7ADFC4849C8624548C088CB
:1019C0000990FEF75FFD0B90424840880690FEF7B5
:1019D00059FD08903F4880880490FEF753FD06901B
:1019E0003C4800880290FEF74DFD04903948B0F95C
:1019F00020000290FEF73DFD03900499FEF757FC8E
:101A000005900699FEF753FC07900899FEF74FFCE6
:101A100033490990FEF77DFC0A900B99FEF747FCCD
:101A20002D490C90FEF775FC2C4908632948C088A5
:101A30000990FEF727FD0B90264880880790FEF757
:101A400021FD0990234840880490FEF71BFD069075
:101A5000204800880290FEF715FD04901D48406A5A
:101A60000290FEF70FFD03900499FEF720FC05900D
:101A70000699FEF71CFC1A490790FEF74AFC0890ED
:101A80000999FEF714FC0A900B99FEF710FC164911
:101A90000C90FEF73EFC114948630E48C08809903F
:101AA000FEF7F0FC0B900B4880880790FEF7EAFCED
:101AB0000990084840880490FEF7E4FC0690054829
:101AC00000880290FEF7DEFC04900248806A0290D3
:101AD0000CE000004496002000401C46AC9600201C
:101AE000000020410000404080CB244BFEF7CAFCA0
:101AF00003900499FEF7DBFB05900699FEF7D7FBF0
:101B00000F490790FEF705FC08900999FEF7CFFBF7
:101B10000A900B99FEF7CBFB0A490C90FEF7F9FBF4
:101B2000094988630846806B0C900846406B0B900F
:101B30000C99FEF7B6FB0449C8630DB000BD000068
:101B40000000204180CB244BAC96002000B58DB026
:101B5000FE4880880990FEF795FC0B90FB480088B2
:101B60000790FEF78FFC0990F84800890790FEF770
:101B700089FC08900999FEF79AFB0A900B99FEF7E9
:101B800096FBF3490C90FEF7C4FBF2490860EF485E
:101B900080880990FEF776FC0B90EC48008807904F
:101BA000FEF770FC0990E94840890790FEF76AFC4F
:101BB00008900999FEF77BFB0A900B99FEF777FBDB
:101BC000E3490C90FEF7A5FBE2494860DF488088B6
:101BD0000990FEF757FC0B90DC4800880790FEF751
:101BE00051FC0990D94880890790FEF74BFC08907A
:101BF0000999FEF75CFB0A900B99FEF758FBD44954
:101C00000C90FEF786FBD3498860D048C0880990C5
:101C1000FEF738FC0B90CD4840880690FEF732FC6A
:101C20000890CA48C0890690FEF72CFC07900899D6
:101C3000FEF73DFBC8490990FEF76BFB0A900B9934
:101C4000FEF735FBC2490C90FEF763FBC149C86043
:101C5000BE48C0880990FEF715FC0B90BB48408831
:101C60000690FEF70FFC0890B848008A0690FEF731
:101C700009FC07900899FEF71AFBB7490990FEF78F
:101C800048FB0A900B99FEF712FBB1490C90FEF746
:101C900040FBB0490861AD48C0880990FEF7F2FBEF
:101CA0000B90AA4840880690FEF7ECFB0890A748E6
:101CB000408A0690FEF7E6FB07900899FEF7F7FAD0
:101CC000A5490990FEF725FB0A900B99FEF7EFFA5C
:101CD0009F490C90FEF71DFB9E4948619B48C088B8
:101CE0000890FEF7CFFB0A90984840880590FEF7D1
:101CF000C9FB0790954880880390FEF7C3FB0590C9
:101D0000924800880190FEF7BDFB03908F48B0F920
:101D100014000190FEF7ADFB02900399FEF7C7FA9D
:101D200004900599FEF7C3FA06900799FEF7BFFAEB
:101D300089490890FEF7EDFA09900A99FEF7B7FA7B
:101D400086490B90FEF7B3FA81490C90FEF7E1FA51
:101D5000804988617D48C0880990FEF793FB0B900D
:101D60007A4840880690FEF78DFB08907748808877
:101D70000490FEF787FB0690744800880290FEF7F7
:101D800081FB04907148B0F91C000290FEF771FBD2
:101D900003900499FEF78BFA05900699FEF787FAEF
:101DA00007900899FEF783FA6B490990FEF7B1FA9C
:101DB0000A900B99FEF77BFA65490C90FEF7A9FA99
:101DC000644988626148C0880990FEF75BFB0B900C
:101DD0005E4840880690FEF755FB08905B48808877
:101DE0000490FEF74FFB0690584800880290FEF7DB
:101DF00049FB04905548B0F91E000290FEF739FBEC
:101E000003900499FEF753FA05900699FEF74FFAEE
:101E100007900899FEF74BFA4F490990FEF779FAB7
:101E20000A900B99FEF743FA49490C90FEF771FAB4
:101E30004849C8624548C0880990FEF723FB0B90CB
:101E4000424840880690FEF71DFB08903F48808876
:101E50000490FEF717FB06903C4800880290FEF7BE
:101E600011FB04903948B0F920000290FEF701FB05
:101E700003900499FEF71BFA05900699FEF717FAEE
:101E800007900899FEF713FA33490990FEF741FAD3
:101E90000A900B99FEF70BFA2D490C90FEF739FAD0
:101EA0002C4908632948C0880990FEF7EBFA0B908B
:101EB000264880880790FEF7E5FA09902348408875
:101EC0000490FEF7DFFA0690204800880290FEF7A3
:101ED000D9FA04901D48406A0290FEF7D3FA0390A5
:101EE0000499FEF7E4F905900699FEF7E0F91A491E
:101EF0000790FEF70EFA08900999FEF7D8F90A90B4
:101F00000B99FEF7D4F916490C90FEF702FA114925
:101F100048630E48C0880990FEF7B4FA0B900B484E
:101F200080880790FEF7AEFA099008484088049030
:101F3000FEF7A8FA0690054800880290FEF7A2FA7C
:101F400004900248806A02900CE000007096002025
:101F500000401C46EC96002000002041000040405C
:101F600080CB244BFEF78EFA03900499FEF79FF97D
:101F700005900699FEF79BF90F490790FEF7C9F9FE
:101F800008900999FEF793F90A900B99FEF78FF9DB
:101F90000A490C90FEF7BDF9094988630846806B31
:101FA0000C900846406B0B900C99FEF77AF90449A7
:101FB000C8630DB000BD00000000204180CB244B61
:101FC000EC96002000BFFEE710B51048006820F036
:101FD00070400E4908600846006840F040500860B4
:101FE00001200B490860052002F0BEFF01200949CD
:101FF000C1F81802052002F0B7FF01200449091FAB
:102000000860052002F0B0FF10BD0000000C014088
:102010009C8221420080214210B5002413480068B0
:1020200020F07040114908600846006840F0004008
:102030000860052002F098FF01200D4908600AE0C1
:10204000601CC4B2012002F08FFF142C03DD00F0ED
:1020500097F8012010BD0648FC3800680028EFD131
:1020600001200349803108600020F3E7000C0140A3
:102070001882214210B51048006820F070400E49C7
:1020800008600846006840F04050086001200B4995
:102090000860052002F068FF01200949C1F8180214
:1020A000052002F061FF012004497C310860052011
:1020B00002F05AFF10BD0000000C01401C822142BA
:1020C0000080214270B5054600241648006820F0C3
:1020D0007040144908600846006840F000400860FD
:1020E000002615E06006040E01200F490860052057
:1020F00002F03AFF0D48D0F81C012043C4B2012081
:10210000094980310860052002F02EFF701CC6B21C
:10211000082EE7DB15B1FFF7ADFF01E0FFF754FF35
:10212000204670BD000C01401882214200802142EF
:1021300010B51048006820F070400E49086008464D
:10214000006840F04050086001200B4908600B49CE
:10215000C1F81802052002F007FF0120064980316E
:102160000860052002F000FF01200449C1F8980230
:1021700010BD0000000C01401C8221420080214261
:1021800010B50E48006820F070400C490860084601
:10219000006840F040500860012009490860094982
:1021A000C1F81802052002F0DFFE01200449803941
:1021B0000860052002F0D8FE10BD0000000C0140B0
:1021C0009C8221420080214270B504461848006874
:1021D00020F07040164908600846006840F0405002
:1021E000086000251FE004F0800018B101201149AB
:1021F000086003E001200F4980310860052002F0EB
:10220000B3FE01200B49091F0860052002F0ACFE57
:1022100001200949C1F89802052002F0A5FE6006D8
:10222000040E681CC5B2082DDDDBFFF7F5FE70BD9E
:10223000000C01401C822142008021420C48806930
:1022400040F008000A4988610A48006820F07F4091
:10225000084908600846006840F04C50086005488E
:102260000C30006840F0C00002490C310860704733
:1022700000100240000C014008B50121082000F0C8
:10228000ABFB4FF48070ADF8000048208DF80300E0
:1022900069460348FFF764F8FEF7A6FE08BD000094
:1022A000000C014000B54FF48C620021064800F09C
:1022B0009BFA4FF40C420021044800F095FA0120EB
:1022C0000349087000BD0000F08C0020F0000020E1
:1022D0006800002010B56148007820B10C287DD03E
:1022E00040287CD12AE013215D48FEF7E7FB5C49DA
:1022F000097D5B4AD27C41EA0221884219D1584CBF
:10230000E41D2046FEF7C5FB56490880A41C204664
:10231000FEF7BFFB53494880241D2046FEF7B9FB5A
:1023200050498880A41C2046FEF7B3FB4D49C88065
:1023300003E015214A4801F08DFA89E0252148483B
:10234000FEF7BCFB464991F82610454A92F8252035
:1023500041EA0221884258D1414CE41C2046FEF754
:1023600098FB40490881A41C2046FEF792FB3D499A
:102370004881A41C2046FEF78CFB3A498881A41CA6
:102380002046FEF786FB3749C881A41C2046FEF78D
:1023900080FB34490882A41C2046FEF77AFB3149B1
:1023A0004882A41C2046FEF774FB00B22D498882A7
:1023B000A41C2046FEF76DFB00B22A49C882A41C6B
:1023C0002046FEF766FB27490883A41C2046FEF73B
:1023D00060FB00B2234948830A3401E019E036E08B
:1023E0002046FEF756FB00B21E498883A41C2046F7
:1023F000FEF74FFB00B21B49C883A41C2046FEF722
:1024000048FB00B21749088402E017A001F032FE31
:102410001EE00B211248FEF751FB1149097B104ABF
:10242000D27A41EA022188420DD10D4CE41C2046AB
:10243000FEF735FB0B494862241D2046FEF72FFBB3
:102440000849886202E008A001F014FE00E000BF25
:1024500000BF40210248FDF7A0FE10BD6F00002024
:10246000C2950020449600203438350010B56148EC
:10247000007820B10C287DD040287CD12AE013219F
:102480005D48FEF71BFB5C49097D5B4AD27C41EA53
:102490000221884219D1584CE41D2046FEF7F9FA72
:1024A00056490880A41C2046FEF7F3FA5349488099
:1024B000241D2046FEF7EDFA50498880A41C2046D2
:1024C000FEF7E7FA4D49C88003E015214A4801F0BC
:1024D000C1F989E025214848FEF7F0FA464991F80C
:1024E0002610454A92F8252041EA0221884258D117
:1024F000414CE41C2046FEF7CCFA40490881A41C5C
:102500002046FEF7C6FA3D494881A41C2046FEF746
:10251000C0FA3A498881A41C2046FEF7BAFA374926
:10252000C881A41C2046FEF7B4FA34490882A41CD2
:102530002046FEF7AEFA31494882A41C2046FEF739
:10254000A8FA00B22D498882A41C2046FEF7A1FA01
:1025500000B22A49C882A41C2046FEF79AFA2749ED
:102560000883A41C2046FEF794FA00B2234948834E
:102570000A3401E019E036E02046FEF78AFA00B29C
:102580001E498883A41C2046FEF783FA00B21B492B
:10259000C883A41C2046FEF77CFA00B217490884C1
:1025A00002E017A001F066FD1EE00B211248FEF7C5
:1025B00085FA1149097B104AD27A41EA0221884200
:1025C0000DD10D4CE41C2046FEF769FA0B49486218
:1025D000241D2046FEF763FA0849886202E008A03D
:1025E00001F048FD00E000BF00BF40210248FDF7B8
:1025F000D4FD10BD6F000020C29500207096002011
:10260000343835000448007804490978884202D1FA
:102610000120034908707047C29500206C0000201B
:102620007100002070B506460C46154600201C4976
:102630000870084601780078401C194A1070194843
:1026400046540322164801780078401C144B187039
:10265000144842542112184602780078401C187021
:1026600010488154184602780078401C18700D48B4
:1026700084542A12184601780078401C18700948C2
:102680004254184602780078401C1870054885545A
:1026900000F06AF804490D7004490C7070BD000028
:1026A0006B000020029600206E0000206F000020CA
:1026B0002DE9F04107460D4614469846002028496A
:1026C0000870084601780078401C254A107025489B
:1026D00047541021104602780078401C204B187097
:1026E000204881542912184602780078401C18703E
:1026F0001C488154184602780078401C187019480C
:1027000085542112184602780078401C187015482C
:102710008154184601780078401C1A461070114800
:1027200044546006010E104602780078401C187070
:102730000C48815400260BE018F80610084802786F
:102740000078401C064B187006488154701C86B2F5
:102750006000B042F0DC00F007F8BDE8F081000056
:102760006B0000200296002010B50E4801780E483C
:10277000FEF7A4F9044621120A4802780078401CAA
:10278000084B187008488154184602780078401C9D
:1027900018700548845418460178034800F030FA50
:1027A00010BD00006B0000200296002000BFFEE775
:1027B00030B50446002524B10248251A284604F005
:1027C0007DFE30BDF000002030B5054600242846CF
:1027D00004F09CFE04460CB9002030BD01482044A2
:1027E000FBE70000F000002030B5034601E003F8ED
:1027F000011B1400A2F10102F9D130BD704710B5E0
:102800004FF4A06000F090F810BD00F01F0201210D
:1028100091404209920002F1E022C2F80011704793
:1028200000F01F02012191404209920002F1E022D2
:10283000C2F800117047F0B503460C4603F00701DB
:10284000C1F10700042801D9042001E0C1F107000B
:102850000646081D072801D2002000E0C81E0546D4
:102860000120B040401E2040A8400127AF407F1EFD
:1028700017403843F0BDF0B503460C4603F007019E
:10288000C1F10700042801D9042001E0C1F10700CB
:102890000646081D072801D2002000E0C81E054694
:1028A0000120B040401E2040A8400127AF407F1EBD
:1028B00017403843F0BD000070B5002100230F22FF
:1028C000C47804B3154C246804F4E064C4F5E064EF
:1028D000210AC1F10403CA40447804FA03F1847860
:1028E0001440214309010E4C0678A155047804F0E8
:1028F0001F050124AC4005786D11AD0005F1E02500
:10290000C5F8004109E0047804F01F050124AC403B
:10291000044D0678761145F8264070BD0CED00E0B8
:1029200000E400E080E100E002490143024A116056
:10293000704700000000FA050CED00E010B500281B
:1029400007DA0A07140E054A00F00F031B1FD454C0
:1029500003E00A07130E024A135410BD18ED00E0FD
:1029600000E400E010B5002807DA0A07140E054A53
:1029700000F00F031B1FD45403E00A07130E024A92
:10298000135410BD18ED00E000E400E0014601F032
:102990000702064B18684FF6FF031840044B034329
:1029A00043EA0220014B1860704700000CED00E084
:1029B0000000FA057047000029B1064AD2690243B7
:1029C000044BDA6104E0034AD2698243014BDA61C5
:1029D000704700000010024029B1064A9269024384
:1029E000044B9A6104E0034A92698243014B9A6165
:1029F000704700000010024030B500210022002482
:102A000000232D4D6D6805F00C0121B1042905D07E
:102A1000082923D105E0294D056022E0274D0560F6
:102A20001FE0254D6D6805F47012234D6D6805F4A7
:102A30008034022505EB92421CB9214D55430560B7
:102A40000BE01D4D6D6805F400351DB11C4D55435F
:102A5000056002E0194D5543056002E0174D056021
:102A600000BF00BF144D6D6805F0F0010909154D58
:102A70006B5C0568DD4045600F4D6D6805F4E061F5
:102A8000090A104D6B5C4568DD4085600A4D6D6834
:102A900005F46051C90A0B4D6B5C4568DD40C560AB
:102AA000054D6D6805F44041890B074D6B5CC568A9
:102AB000B5FBF3F5056130BD0010024000127A004D
:102AC00000093D0014000020240000202DE9F05FE3
:102AD00004460D46464844434648806940F0040099
:102AE000444988614448006820F4706042490860A5
:102AF0000846006840F4306008600846006820F42A
:102B0000704008600846006840F48040086039481A
:102B1000C06940F400303749C8610846006940F494
:102B2000003008610846006920F40030086133482D
:102B3000008840F40050314908800846008820F49D
:102B400080500880081D008820F44050091D08802E
:102B50002846FDF797FC82462046FDF793FC834606
:102B60005146FDF7D6FB81464FF08341FDF7D1FB7F
:102B700006463046FDF7A4FC87B23846FDF782FCD6
:102B800083463146FDF790FB82464FF08341FDF7C7
:102B90008EFB8146FDF794FC804608EB0710174931
:102BA000091F0880022211460520FFF764FE8146B6
:102BB00049462620FFF7D6FE2620FFF731FE0F48B4
:102BC000008840F020000D4908800846008840F049
:102BD000080008800846008840F00400088041F69C
:102BE0001F41632000F078FD05F016F8BDE8F09F66
:102BF00040420F0000100240000801400C44004019
:102C000010B5024600200CE000BF074B1B8803F004
:102C10004003002BF9D0135C034C241D2380431C7C
:102C2000D8B28842F0DB10BD0044004010B5044625
:102C3000082200212046FFF7F5FC642002F052F93B
:102C40000948007801280BD1012C02D1FFF742FB83
:102C500001E0FFF70BFC00200349087003490870EE
:102C6000322002F03FF910BD690000206A00002008
:102C700010B5044604220C212046FFF7D3FC642043
:102C800002F030F90948007801280BD1012C02D15B
:102C9000FFF720FB01E0FFF7E9FB00200349087084
:102CA00003490870322002F01DF910BD69000020B0
:102CB0006A00002010B50446112240212046FFF78B
:102CC000B1FCC82002F00EF90948007801280BD1A8
:102CD000012C02D1FFF7FEFA01E0FFF7C7FB00204D
:102CE0000349087003490870322002F0FBF810BD58
:102CF000690000206A00002008B5012141F20400AB
:102D0000FFF76AFE01210820FFF766FEE020ADF81C
:102D1000000018208DF8030003208DF8020069469A
:102D20001848FEF71DFBE0211648FEF7ADFB012019
:102D3000ADF8000010208DF8030069461248FEF738
:102D40000FFB01211048FEF79FFB00200F49088070
:102D50004FF482704880002088800220C8800120C3
:102D6000088140024881382088810020C8810720DE
:102D70000882074800F057FA0121054800F039FAA7
:102D800008BD000000080140000C0140B095002083
:102D90000030014010B504460548848101460548CD
:102DA00000F041FA0121034800F023FA10BD0000B1
:102DB000B09500200030014070B505464FF48064A6
:102DC00000BF0221124800F020FA20B92000A4F12F
:102DD00001018CB2F5D10CB9012070BD4FF48064B3
:102DE00029460B4800F01DFA00BF0121084800F0F9
:102DF0000CFA20B92000A4F101018CB2F5D10CB974
:102E00000120EAE7024800F009FAC0B2E5E7000055
:102E10000030014010B5012002490860FF20FFF793
:102E2000CBFF10BD8081214270B5044600250122F0
:102E30000021092000F052F920B91021204600F0AD
:102E4000D7F80546FFF7E6FF802D01D0812070BD41
:102E50008020FCE71FB50024002000900190029024
:102E600003906846FFF7E0FF812801D104B010BD50
:102E70009DF8000000F0C00040280CD19DF809002A
:102E80009DF8081000EB01209DF8071001F03F01AC
:102E900000EB0140441C2046E8E7F8B5002500207F
:102EA00000900027002414260090FFF725FF00BFA4
:102EB00004E0FF20FFF780FF601C84B20A2CF8DBDF
:102EC00000BF95220021084600F008F90546012DB3
:102ED00004D03000A6F101018EB2F2D1012D48D10B
:102EE00087224FF4D571082000F0F8F8012840D16E
:102EF000002406E0FF20FFF75FFF0DF80400601CD0
:102F000084B2042CF6DB9DF80200012831D19DF833
:102F10000300AA282DD14FF6FE7600BF0122002122
:102F2000372000F0DBF801229107292000F0D6F8C5
:102F3000054625B13000A6F101018EB2EED1C6B131
:102F4000012200213A2000F0C9F890B9002406E0DF
:102F5000FF20FFF731FF0DF80400601C84B2042C41
:102F6000F6DB9DF8000000F0400008B1022700E009
:102F70000127FFF74FFF0020FFF70CFF022F01D1C1
:102F80008020F8BD8120FCE72DE9F04106460F4680
:102F900015460024012D0BD13946112000F09EF872
:102FA000044604BB6902304600F022F804461AE0E9
:102FB00001223946122000F091F8044674B900BF8E
:102FC0004FF40071304600F013F8044606F5007621
:102FD000681EC0B2050001D0802CF1D00122002172
:102FE0000C2000F07BF8FFF715FF2046BDE8F081CC
:102FF0002DE9F04105460E4600274FF6FF7401E02B
:10300000601E84B2FF20FFF7D7FEFE2801D0002CFF
:10301000F6D114B98220BDE8F08104E0FF20FFF76B
:10302000CBFEE8557F1C3000A6F101018EB2F5D130
:10303000FF20FFF7C1FEFF20FFF7BEFE8020EAE77A
:1030400010B5002400200949086000BFFF20FFF7E9
:10305000B3FEFF2801D1802010BD641C6FF07F40BB
:103060008442F3D3FFF7D6FE8120F5E78081214229
:103070002DE9F04107460C460025A8466FF07F4633
:1030800000E0761EFF20FFF797FEFF2801D0002EFC
:10309000F7D116B98220BDE8F0812046FFF78CFEFB
:1030A000FD2C19D0002504E0785DFFF785FE681C33
:1030B00085B2B5F5007FF7DBFF20FFF77DFEFF202F
:1030C000FFF77AFEFF20FFF777FE804608F01F002B
:1030D000052801D08320DEE78020DCE72DE9F041E0
:1030E00005460C4616460027B846FFF793FEFFF745
:1030F000A7FF812802D18220BDE8F08145F0400081
:10310000FFF75AFE200EFFF757FEC4F30740FFF704
:1031100053FEC4F30720FFF74FFEE0B2FFF74CFE6B
:103120003046FFF749FE0C2D02D1FF20FFF744FE89
:103130004FF0FF0800BFFF20FFF73EFE074607F0F5
:10314000800030B15FEA0800A8F1010101F0FF083A
:10315000F1D13846D0E710B5002400BFFF20FFF7BB
:103160002BFEFF2801D1802010BD641C6FF07F4032
:103170008442F3D38120F7E72DE9F04106460F465C
:1031800014460025012C0BD139461820FFF7A6FF65
:1031900005464DBBFE213046FFF76AFF054623E09A
:1031A000012200213720FFF799FF01222146172035
:1031B000FFF794FF012239461920FFF78FFF0546DC
:1031C00095B900BFFC213046FFF752FF054606F5D2
:1031D0000076601EC0B2040001D0802DF2D0FD2127
:1031E0000020FFF745FF0546FFF714FE2846BDE81F
:1031F000F08121B1028842F04002028004E002889E
:103200004FF6BF731A4002807047024600201389B0
:103210000B400BB1012000E0002070470146888977
:1032200070478181704710B50022028802F4415234
:103230000B884C8823438C882343CC8823430C89F8
:1032400023434C8923438C892343CC8923431A434A
:103250000280838B4FF2FF74234083830B8A0382A7
:1032600010BD704710B500F001F810BD0CB500207E
:10327000019000903348006840F480303149086084
:1032800000BF3048006800F4003000900198401CF6
:103290000190009818B90198B0F5A06FF1D12948B4
:1032A000006800F4003010B10120009001E000201F
:1032B00000900098012843D12348006840F0100096
:1032C000214908600846006820F0030008600846AD
:1032D000006840F0020008601A48406819494860D8
:1032E0000846406848600846406840F4806048608E
:1032F0000846406820F47C1048600846406840F466
:10330000E81048600846006840F08070086000BF20
:103310000C48006800F000700028F9D009484068A7
:1033200020F00300074948600846406840F002006A
:10333000486000BF0348406800F00C000828F9D13D
:103340000CBD00000010024000200240042808D1FB
:103350004FF0E021096941F004014FF0E0221161D2
:1033600007E04FF0E021096921F004014FF0E0226D
:10337000116170477047000010B51348006840F0B5
:1033800001001149086008464068104908400E498C
:103390004860084600680E4908400B490860084626
:1033A000006820F4802008600846406820F4FE0091
:1033B00048604FF41F008860FFF754FF4FF0006033
:1033C0000449086010BD0000001002400000FFF832
:1033D000FFFFF6FE08ED00E00C48008800F0010059
:1033E00098B10A48008820F0010008490880084880
:1033F0000088401C0649088008460088372804DDFC
:103400000020088001200349087070471004004024
:10341000340000203200002070B504460D461A48E2
:10342000C06940F002001849C86118480480001DB6
:10343000058016482838008840F080001349283954
:10344000088012481438008840F001000F491439F0
:1034500008804FF6FE70091F0880081F008840F0A2
:103460000100091F08800520FFF790FA022211468B
:103470000520FFF7E0F9064631461D20FFF75EFA0A
:103480001D20FFF7C2F970BD001002402804004063
:1034900000B50A48008800F0010068B108480088BB
:1034A00040F40040064908800448008820F00100EC
:1034B0000249088004F094FB00BD000010080040A1
:1034C000E600002070B504460D461A48C06940F079
:1034D00004001849C86118480480001D058016487A
:1034E0002838008840F080001349283908801248A5
:1034F0001438008840F001000F49143908804FF655
:10350000FE70091F0880081F008840F00100091F95
:1035100008800520FFF73AFA022211460520FFF73E
:103520008AF9064631461E20FFF708FA1E20FFF7EB
:103530006CF970BD001002402808004000B5084832
:10354000008A00F0010050B10120064908700448CB
:10355000008A20F001000249088204F05DFB00BDF2
:10356000001000406900002010B51248008800F0EB
:103570000100F0B10F48008820F001000D490880DB
:103580000D48008840F400400B49088004F062FBBD
:1035900009480178094800F05DF90948007840B908
:1035A000002005490988C1F30E01044A505402491C
:1035B000088010BD10140040DC0000203B9B002060
:1035C000DB0000202DE9F0413F48C06940F02000B9
:1035D0003D49C8613D48008840F080003B49088073
:1035E0000846008840F0080008800846008840F03F
:1035F000040008800846008820F002000880372078
:103600000522022425461346C3F1070CBCF1040F22
:1036100002D94FF0040C01E0C3F1070C674603F137
:10362000040CBCF1070F02D24FF0000C01E0A3F133
:10363000030C66464FF0010C0CFA07FCACF1010CD0
:103640000CEA040C0CFA06FC4FF0010808FA06F824
:10365000A8F1010808EA05084CEA080100BF0028A3
:1036600007DA0A07140E1A4A00F00F031B1FD4547E
:1036700003E00A07130E174A135400BF372000F067
:103680001F02012191404209920002F1E022C2F89A
:10369000001100BF0D480C30008840F001000B49BC
:1036A0000C31088041F61F4008492831088063200A
:1036B000091D088005481430008840F001000349C6
:1036C00014310880BDE8F081001002400014004071
:1036D00018ED00E000E400E070B504460D46144823
:1036E000C06940F010001249C86112480585848500
:1036F000008840F080000F4908800846808A40F02A
:10370000010088824FF6FE7008820846808940F0EA
:1037100001008881022211460520FFF7ACF8064619
:1037200031463620FFF71EF93620FFF779F870BDD5
:10373000001002400010004010B51248008800F050
:103740002000F0B10F48001D0088C4B20E48008868
:10375000C82810DA00200D4908800B48008808B9F5
:1037600004F030FA084801880088401C064A10809E
:103770000748445405E00448008840F400400249EA
:10378000088010BD004C0040E600002024080040E6
:103790003B9F002010B586B0044601211120FFF7A1
:1037A0001BF90121C804FFF707F94FF48060ADF859
:1037B000140018208DF8170003208DF8160005A9B5
:1037C0002148FDF7CDFD4FF40060ADF8140048200E
:1037D0008DF8170005A91C48FDF7C2FD01940020D3
:1037E000ADF80800ADF80A00ADF80C00ADF8100017
:1037F0000C20ADF80E0001A9144800F0EDF83420BB
:103800008DF8000002208DF801008DF802000120E3
:103810008DF803006846FFF74FF8012240F225516A
:103820000A4800F0B3F80121084800F0A3F841F677
:103830001F416320FFF746FE00200549088004F081
:10384000CFF906B010BD000000100140004C004050
:10385000E600002010B5024600200BE000BF074B39
:103860001B8803F04003002BF9D0135C034CA380AA
:10387000431CD8B28842F1DB10BD0000005000406C
:1038800010B51248008800F02000F0B10F48001D6C
:103890000088C4B20E480088B0F5806F0FDA04F0DB
:1038A000C5F90B48008808B904F0C6F90848018832
:1038B0000088401C064A10800648445405E004482D
:1038C000008840F400400249088010BD00380140E3
:1038D000DC0000203B9B002000BF0549098801F067
:1038E00040010029F9D00249091D088070470000F5
:1038F0000038014000B51048008800F02000D0B129
:103900000D48001D0088C2B20C48007840280FDA2C
:1039100004F070F90A48007808B904F071F9074812
:1039200001780078401C054B18700648425402E0AC
:1039300001200349087000BD004400406A000020D7
:1039400069000020C295002010B5024600200CE05E
:1039500000BF074B1B8803F04003002BF9D0135C1A
:10396000034C241D2380431CD8B28842F0DB10BDD9
:10397000004C004021B1828942F40052828104E06F
:1039800082894DF6FF731A4082817047F0B5034675
:10399000002400260025002040F66A17B94200D115
:1039A00000BF1846C1F3421401F01F06012707FAB1
:1039B00006F5012C01D10C3004E0022C01D11030AD
:1039C00000E014301AB107682F43076002E007686F
:1039D000AF430760F0BD00002DE9F04786B0054613
:1039E0000E460024A24600BFA1460027B08900B1C0
:1039F00000BF2F462C8A4CF6FF700440F088044329
:103A00002C82AC894EF6F3100440B088318908430B
:103A1000718908430443AC81AC8A4FF6FF400440EF
:103A2000B0890443AC8201A8FEF7E6FF1F48874235
:103A300002D1DDF810A001E0DDF80CA0A88900F4A7
:103A4000004040B10AEBCA0000EB0A10316849009F
:103A5000B0FBF1F807E00AEBCA0000EB0A1031688E
:103A60008900B0FBF1F86420B8FBF0F004012009F4
:103A7000642101FB1089A88900F4004040B1322084
:103A800000EBC900B0FBF1F000F00700044308E0D0
:103A9000322000EB09106421B0FBF1F000F00F00C0
:103AA00004432C8106B0BDE8F087000000380140D7
:103AB00010B58AB000245BA000F0DCFA2021684633
:103AC000FCF76BFB012309AA03210020FCF77FFF11
:103AD0009DF8241056A000F0CDFA9DF824000A2885
:103AE00010DB9DF8240028280CDC9DF824306A4661
:103AF00064210020FCF76BFF6A4650A1544800F097
:103B0000C9FA04E053A25BA1514800F0C3FA202196
:103B10006846FCF742FB012308AA04210020FCF7B9
:103B200056FF9DF8201054A000F0A4FA9DF8200044
:103B30000A2810DB9DF8200028280CDC9DF8203096
:103B40006A4696210020FCF742FF6A464DA1524882
:103B500000F0A0FA01244FF4967250A150A003F097
:103B600077F84FF496724DA151A003F071F84FF41D
:103B700096724AA1364803F06BF84FF4967247A14B
:103B80004FA003F065F84FF4967244A151A003F0E2
:103B90005FF8012C19D100244FF496723FA151A077
:103BA00003F056F84FF496723CA13B4803F050F8EE
:103BB0004FF4967239A14FA003F04AF84FF4967271
:103BC00036A151A003F044F805E04FF4967233A1FA
:103BD00051A003F03DF84FF4967230A153A003F0CA
:103BE00037F84FF496722DA154A003F031F84FF43A
:103BF00096722AA155A003F02BF84FF4967227A1D4
:103C000057A003F025F84FF4967224A158A003F0B2
:103C10001FF84FF4967221A158A003F019F80AB0CA
:103C200010BD0000BDF8C8EBC5E4D6C30D0A000006
:103C300069705F6C656E313D2564000041542B5303
:103C40004F434B413D5443502C25730D0A00000057
:103C50007600002041542B534F434B413D54435079
:103C60002C746573742E7573722E636E2C3233311F
:103C7000370D0A002573000069705F6C656E323D78
:103C80002564000041542B534F434B423D54435055
:103C90002C25730D0A000000A80000204F4B0000E7
:103CA00041542B574B4D4F443D4E45540D0A000097
:103CB00041542B534F434B41454E3D4F4E0D0A004F
:103CC00041542B534F434B41534C3D4C4F4E470DAA
:103CD0000A00000041542B534F434B41544F3D3198
:103CE000300D0A0041542B534F434B42454E3D4F3C
:103CF0004E0D0A0041542B534F434B42534C3D4C05
:103D00004F4E470D0A00000041542B534F434B4286
:103D1000544F3D31300D0A0041542B534F434B4219
:103D2000454E3D4F46460D0A0000000041542B48C9
:103D300045415254454E3D4F4E0D0A0041542B48CB
:103D40004541525444543D36360D0A0041542B48E7
:103D500045415254534E443D4E45540D0A00000017
:103D600041542B4845415254544D3D33300D0A00C7
:103D700041542B43464754460D0A000041542B5AE8
:103D80000D0A000070B50A2500BFC8220DA10EA0C3
:103D900002F05EFF044624B94FF47A7001F0A2F8F5
:103DA00007E04FF4487001F09DF8681EC0B20500AE
:103DB000EBD100BFC82205A102A002F049FF0446D2
:103DC000204670BD610000002B2B2B006F6B0000A4
:103DD00000BFFEE72DE9F04F8BB000240025002640
:103DE0000027A046A146A246A34600200A90202113
:103DF00001A8FCF7D2F9012309AA19460020FCF713
:103E0000E6FD9DF82400002823DD9DF82400052808
:103E10001FDA9DF8243001AA1E210020FCF7D7FDEF
:103E20009DF80400B0B14FF0010900BF08E001A8FF
:103E3000005D05EB850100EB4100303885B2641C64
:103E40009DF824008442F2DB294675A000F012F9A7
:103E500000E00125012309AA02210020FCF7B7FD9B
:103E60009DF82400002823DD9DF8240005281FDA92
:103E70009DF8243001AA28210020FCF7A8FD9DF818
:103E80000400B0B14FF0010A002408E001A8005D71
:103E900006EB860100EB4100303886B2641C9DF8C9
:103EA00024008442F2DB314661A000F0E3F800E038
:103EB0000126012309AA05210020FCF788FD9DF8B1
:103EC0002400002823DD9DF8240005281FDA9DF832
:103ED000243001AA32210020FCF779FD9DF804006E
:103EE000B0B14FF0010B002408E001A8005D07EB22
:103EF000870100EB4100303887B2641C9DF8240034
:103F00008442F2DB39464EA000F0B4F800E001270D
:103F1000012309AA06210020FCF759FD9DF8240081
:103F2000002824DD9DF82400052820DA9DF824309F
:103F300001AA3C210020FCF74AFD9DF80400C0B115
:103F40004FF0010A002409E001A8005D08EB880198
:103F500000EB410030381FFA80F8641C9DF8240003
:103F60008442F1DB41463AA000F084F801E04FF0D2
:103F70000108B9F1010F02D0BAF1010F21D14FF0C0
:103F80000009CA463012364908704E7028128870EF
:103F9000CD700B460222052132480078FEF788FBDF
:103FA000642000F09FFF30480078012806D1FEF71A
:103FB00029FB00202C4908702C490870322000F0A1
:103FC00091FFBBF1010F02D00A98012824D14FF0D4
:103FD000000B00200A904FEA28202149087081F840
:103FE000018038128870CF700B46022205212048CC
:103FF0000078FEF75DFB642000F074FF1A4800783B
:10400000012806D1FEF7FEFA00201749087017496B
:104010000870322000F066FF0BB0BDE8F08F0000A2
:10402000496269616E6269313D25640D0A000000D4
:10403000556269616E6269313D25640D0A000000B8
:10404000496269616E6269323D25640D0A000000B3
:10405000556269616E6269323D25640D0A00000097
:10406000720000206C000020690000206A0000201F
:104070006D0000200FB4054B10B503A9044A029847
:1040800000F0DEF810BC5DF814FB00008D6800083D
:104090002C0000200FB4084B10B504A902AA039805
:1040A00000F0CEF8044602A9002000F060FC204693
:1040B00010BC5DF814FB00006F49000802E008C85E
:1040C000121F08C1002AFAD170477047002001E092
:1040D00001C1121F002AFBD1704700002DE9FF5FCC
:1040E000DDE90220010DDDF838B0024318D044F6B6
:1040F0001050A1F2FF3141430D140F98012820D038
:10410000A5EB0B00401C5FEA000A4FF00004474E8D
:10411000DFF81C91A046504616D5CAF1000728E0EA
:104120000F98012443A2012808D0002100980F9B7A
:10413000C0E90021C0E90243BDE8FF9F6FEA0B011F
:10414000F4E7CBF10000DEE7074612E0F80707D0FE
:104150002246334640464946FCF719F980468946CF
:104160002246334610461946FCF711F904460E461E
:104170007F10002FEAD1DDE90201BAF1000F4246BB
:104180004B4602DAFCF703F901E0FCF765FB044655
:104190000E460022284BFCF7BBF903D84FF0FF3046
:1041A000014607E00022254B20463146FCF7ADFAD8
:1041B000FCF7C1FB102409E0002C0ADB0A220023D3
:1041C000FCF7D0F9019B30321A55641E50EA010207
:1041D000F2D1641C019AC4F1110314440F9A012A0C
:1041E00003D0012208430DD10AE0084304D0002087
:1041F0004FF0110B0F9080E7A3EB0B056D1E0DE048
:104200005B4504DD4FF0000205F1010504E003DA2F
:104210004FF00002A5F10105002AECD000980F999B
:10422000C0E90231C0E9004586E7000000002440F3
:104230000000F03F300000000000F0430000E03FCD
:104240002DE9FF4F95B09B468946064600250FE2B3
:10425000252877D100242746F84A0121059400E05B
:10426000044316F8013F203B01FA03F01042F7D156
:1042700030782A2811D06FF02F033078A0F1300267
:10428000092A16D8059A44F0020402EB820203EBD5
:1042900042021044761C0590EFE759F8042B059272
:1042A000002A03DA504244F40054059044F002041A
:1042B000761C30782E2816D116F8010F44F004042D
:1042C0002A280DD06FF02F023078A0F13003092B8F
:1042D00009D807EB870302EB4303C718761CF3E703
:1042E00059F8047B761C30786C280FD006DC4C28FB
:1042F00017D068280DD06A2814D104E0742810D093
:104300007A280FD10DE044F400140AE044F480143C
:1043100001E044F440147278824202D104F5801422
:10432000761C761C307866280BD013DC582877D0A2
:1043300009DC002875D04528F6D04628F4D0472857
:104340001AD19DE118E0632835D0642879D065281A
:1043500012D195E1702873D008DC6728F1D0692864
:104360006FD06E280DD06F2806D1B5E073282CD001
:10437000752875D0782874D05A46179990476D1CC7
:1043800075E1C4F30250022809D003280DD0D9F8F2
:10439000001004280DD00D6009F1040967E1D9F877
:1043A0000010EA17C1E90052F6E7D9F800100D80B5
:1043B000F2E70D70F0E719F8041B8DF800100020EB
:1043C0008DF80100EA46012003E059F804AB4FF0F4
:1043D000FF3061074FF0000102D40DE008F1010148
:1043E0008846B9420FDA8045F8DB1AF80810002930
:1043F000F4D108E008F1010188468142FADB1AF89D
:1044000008100029F6D105985B46A0EB0807214665
:104410003846179A00F094FA284400EB080507E0A4
:104420004DE029E10DE01AF8010B5A461799904723
:10443000B8F10108F7D25B4621463846179A13E1D6
:1044400042E00A220092C4F302524FF0000A022A0C
:1044500008D059F804CB032A4FEAEC710AD00DE0DA
:1044600029E02AE009F1070121F00702F2E802C180
:10447000914609E00FFA8CFC4FEAEC71042A03D153
:104480004FFA8CFC4FEAEC71002907DA0A4600214A
:10449000DCF1000C61EB02012D2202E0220504D5C3
:1044A0002B228DF80420012203E0E20701D0202214
:1044B000F7E7904659E00A2102E010220DE01021B2
:1044C0004FF0000A00910BE010224FF0000A44F078
:1044D00004040827009203E008224FF0000A00922B
:1044E000C4F30252022A05D059F804CB0021032A52
:1044F00008D009E009F1070121F00702F2E802C142
:10450000914605E01FFA8CFC042A01D10CF0FF0C47
:104510004FF00008220728D5702806D0009B83F0B2
:10452000100353EA0A0305D00EE040228DF8042060
:10453000012208E05CEA010206D030228DF8042056
:104540008DF8050002229046009B83F0080353EA91
:104550000A030AD15CEA010201D1620705D53022C3
:104560008DF804204FF001087F1E582804D034A095
:1045700003900EA802900DE036A0F9E7534660467E
:10458000009AFBF7EFFF84460398825C0298401E76
:10459000029002705CEA0100F0D1029806A9081AA4
:1045A00000F1200A600702D524F4803400E00127DE
:1045B000574502DDA7EB0A0000E0002000EB0A01EE
:1045C000009005984144401A0590E00306D45B46EC
:1045D0002146179A059800F0B3F90544002706E034
:1045E00001A85A46C05D179990476D1C7F1C47452E
:1045F000F6DBE0030CD55B462146179A059800F0E0
:104600009FF9054404E030205A46179990476D1CE5
:104610000099481E00900029F5DC08E002980299F4
:104620005A460078491C0291179990476D1CBAF1BF
:104630000001AAF1010AF1DC65E10000092801008E
:104640003031323334353637383961626364656608
:1046500000000000303132333435363738394142CA
:10466000434445460000000000F058F90544761C1C
:10467000307800287FF4ECAD19B02846BDE8F08F03
:10468000620700D4062709F1070222F0070CFCE8B4
:104690000223E14603F000485FEA080C02D00FF263
:1046A000702C0DE05FEA045C02D50FF2682C07E085
:1046B0005FEAC47C02D00FF2602C01E0AFF2700C14
:1046C0004FF0FF3823F00043CDF850C065280CD0E0
:1046D00006DC452809D046281DD047283DD13DE0BD
:1046E000662818D067287ED138E00021112F01DB21
:1046F000112000E0781CCDE9000106A90EA8FFF703
:10470000EDFCDDE90F010E9A03910021009207F103
:10471000010A04914DE04FF000400097CDE90110EF
:1047200006A90EA8FFF7DAFCDDE90F0203920E9B43
:1047300011990022DDF80CA00093049211B9791CA4
:1047400000EB010AB7EB0A0004D4C0F1FF3007F117
:10475000010A0490AAEB0700019044E0012F00DA5F
:1047600001270021112F01DD112000E03846CDE99D
:10477000000106A90EA8FFF7B1FCDDE90F010E9AB2
:104780000391002104910092BA4621070CD40399A9
:10479000514500DA8A46BAF1010F05DD009AAAF107
:1047A0000101515C302908D0B84202DA10F1040F3F
:1047B00006DA0121CDE9011015E0AAF10101E9E7CE
:1047C000002805DC049901440491AAEB000102E0F1
:1047D000411C514500DD8A460499401A401C019055
:1047E0004FF000400290200704D40198504501DBAF
:1047F000CDF8048000208DF84F0002980DF14F078E
:10480000B0F1004F25D02B200E9002984FF00208F7
:1048100000280CDA404202902D200E9007E00A2179
:104820000298FBF789FE3031029007F8011DB8F1BC
:104830000001A8F10108F2DC02980028EFD1791EEE
:104840000E980870307800F0200040F0450007F81E
:10485000020D12A8C01B00F107081498007800B1DF
:10486000012000EB0A01019801EBE0710598414439
:10487000401A401E0590E00306D45B462146179A75
:10488000059800F05DF805441498007818B15A4670
:10489000179990476D1CE00324D55B462146179A73
:1048A000059800F04DF805441CE00498002807DB4B
:1048B000DDE90301884203DD0098405C179901E0BF
:1048C000179930205A469047049805F10105401C7D
:1048D00004900198401E019004D12E205A46179949
:1048E00090476D1CBAF10001AAF1010ADDDC05E078
:1048F00017F8010B5A46179990476D1CB8F1000143
:10490000A8F10108F4DC5B462146179A0598ABE64E
:104910002D0000002B000000200000002DE9F041D8
:10492000044600251E461746880404D405E039468F
:104930002020B0476D1C641EF9D52846BDE8F081E3
:104940002DE9F041044600251E469046C80301D5D6
:10495000302700E02027880404D505E0414638468A
:10496000B0476D1C641EF9D52846BDE8F0810A6881
:10497000531C0B601070704710B50548008800F498
:10498000004020B1002002490880FCF771F910BDF9
:10499000E600002070B504460D460020E070401E81
:1049A00020632946204602F0F2FD08B1042070BDC4
:1049B00004F2322002F06BFA4AF65521884201D007
:1049C0000320F4E794F83400E92807D094F8340081
:1049D000EB2803D094F83400E82811D1032209A170
:1049E00004F16A0002F04AFD08B90020DFE7052261
:1049F00005A104F1860002F041FD08B90020D6E7C8
:104A00000220D4E7464154004641543332000000AE
:104A1000024600E0521C107810B110788842F9D19B
:104A200010787047F0B503460D461E68986A021D5F
:104A3000680A7789B0FBF7F400BF02CA09B9002001
:104A4000F0BD8C4200D202E0641A121DF5E700BFEF
:104A500010682044F4E70246891E9069801E88424F
:104A600001D8002070475389D06A03FB0100F9E7A1
:104A70002DE9F04780460C4604F11A0002F007FACF
:104A800010B10020BDE8F087207800F03F00401E04
:104A900000EB800101EBC0054FF00109002621E089
:104AA0001849895D081902F0F2F90746B9F1000FBB
:104AB00011D0FF2D0BD2384601F0BAFC82462946B0
:104AC0006D1C38F8110001F0B3FC824501D00020C4
:104AD000D8E7B94605E04FF6FF70874201D00020C5
:104AE000D0E7761C0D2EDBD3207800F0400038B1E3
:104AF000B9F1000F04D038F8150008B10020C1E763
:104B00000120BFE7587F00082DE9F047824688461C
:104B1000DAF80040B8F1000F06D1276917B1A06993
:104B2000B84215D8012713E04146504601F022FF54
:104B30000546022D02D20120BDE8F087681C08B9A5
:104B40002846F9E7A069A84201D92846F4E7474674
:104B5000606908B90020EFE70026474518D17E1CA0
:104B6000A069B04200D802263146504601F002FF4B
:104B70000546012D01D0681C08B92846DCE73DB187
:104B80002569022D03D3A069A84200D92F4600262B
:104B9000E6B93E4600BF761CA069B04204D80226A2
:104BA000BE4201D90020C7E73146504601F0E2FE7F
:104BB000054605B909E0012D01D0681C08B9284651
:104BC000BAE7BE42E7D10020B6E700BF4FF0FF32A0
:104BD0003146204602F03AFD8146B9F1000F08D176
:104BE000B8F1000F05D032464146204602F02EFDB6
:104BF0008146B9F1000F0DD12661D4E90510801E60
:104C0000814202D86069401E6061207940F0010055
:104C1000207107E0B9F1010F02D14FF0FF3000E041
:104C200001200646304687E72DE9F34F83B08146E1
:104C3000049800680090D9F80000D0F80CA0002576
:104C400000BF684602F07FFF83460BF1010018B9F0
:104C5000062005B0BDE8F08FBBF5803F05D34FEAD5
:104C60001B4228466D1C2AF810201FFA8BF4202CBA
:104C700003DB2F2C01D05C2C00D111E0802C06DA54
:104C800021467BA0FFF7C4FE08B10620E1E7FF2D17
:104C900001D30620DDE728466D1C2AF81040D0E736
:104CA00000BF02E00098401C0090009800782F2878
:104CB000F8D0009800785C28F4D00099049801603E
:104CC000202C01DA042000E00020064608E0681EDF
:104CD0003AF81040202C02D02E2C00D002E06D1E9D
:104CE000002DF4D100BF00202AF815000DB90620D0
:104CF000AFE7002700E07F1C3AF817002028FAD021
:104D00001FB93AF817002E2801D146F0030600E03B
:104D10006D1E25B1681E3AF810002E28F8D10B221E
:104D2000202109F1200002F029FC4FF00008CDF805
:104D300008800820019000BF38467F1C3AF81040D8
:104D400004B96AE0202C03D02E2C04D1AF4202D04B
:104D500046F00306F0E7DDE90110884201D2AF42D8
:104D600016D101980B2802D146F0030655E0AF4258
:104D700001D046F00306AF4200D94EE02F4608208E
:104D800002900B2001904FEA88604FEA1068D3E749
:104D9000802C0EDB46F0020640F2B511204601F0F1
:104DA00027FB044604F0800018B104F07F0033496B
:104DB0000C5CFF2C11DD0198401E0299884204D83A
:104DC00046F0030601980290B6E722120298411CB1
:104DD000029109F120010A5418E024B1214628A0CB
:104DE000FFF716FE18B15F2446F003060EE0412CD3
:104DF00003DB5A2C01DC48F00208612C06DB7A2C1C
:104E000004DC48F00108A4F1200084B20298411C9F
:104E1000029109F120010C548EE700BF99F820009F
:104E2000E52802D1052089F820000198082803D13F
:104E30004FEA88604FEA106808F00C000C2803D095
:104E400008F00300032801D146F0020606F0020034
:104E500048B908F0010008B146F0100608F0040057
:104E600008B146F008062B2000F809600020F0E6A3
:104E7000222A3A3C3E3F7C7F00000000657F00080C
:104E80002B2C3B3D5B5D0000014609B100207047C3
:104E90000020FCE7014609B1002070470020FCE734
:104EA00010B56FF00400FEF751FA0A4800680A498D
:104EB000B0FBF1F0094908700846007800EB4001AA
:104EC000C1EBC0104FF6FF7101EAC0000449088031
:104ED00010BD00000000002000127A002800002011
:104EE0002A00002070B504464FF47A7094FBF0F06D
:104EF000C6B24FF47A7094FBF0F100FB114085B21A
:104F000005E04FF47A7000F009F8701EC6B2002E6A
:104F1000F7D115B1284600F001F870BD0146114ADD
:104F200012884A434FF0E0235A6100229A611A46E0
:104F3000126942F001021A6100BF4FF0E0221069CD
:104F400000F001021AB100F48032002AF5D04FF0CF
:104F5000E022126922F001024FF0E0231A610022E0
:104F60009A6170472A0000200146114A12784A438C
:104F70004FF0E0235A6100229A611A46126942F00A
:104F800001021A6100BF4FF0E022106900F0010237
:104F90001AB100F48032002AF5D04FF0E0221269F5
:104FA00022F001024FF0E0231A6100229A6170475B
:104FB000280000202DE9F04104460E46D4F8008078
:104FC0000021204600F0A4FA0546EDB9002700BFF5
:104FD0004046A16902F0DBFA054605B113E0E0693D
:104FE0000078E52802D0E069007820B9781C0746EF
:104FF000B04201D107E000270121204600F0EBF884
:105000000546002DE4D000BF042D00D10725284619
:10501000BDE8F0812DE9F04704468946204602F0BC
:105020006DFD10B10120BDE8F08749462046FFF72D
:1050300012FD074627634FF40072002104F134008B
:1050400002F09CFA60894FF40041B1EB402F01D887
:10505000084601E06089400206464FF0000800E083
:105060007608B6F5007F05D9304601F09FF95FEA72
:105070000008F5D0B6F5007F17D93246002140462A
:1050800002F07CFA760A002500E035446089A842E7
:1050900007D97A1960783346414600F0FFFA0028B4
:1050A000F3D0404601F088F910E004F134080126FD
:1050B000002500E035446089A84207D97A19607854
:1050C0003346414600F0EAFA0028F3D06089A8424E
:1050D00001D00120A7E70020A5E72DE9F04704460D
:1050E000D4F800A00021204600F012FA064616B1BE
:1050F0003046BDE8F0874FF0FF08C1464FF0FF3063
:10510000E06200BF5046A16902F041FA064606B1CE
:105110005EE0E06905780DB9042659E0E069C07ADF
:1051200000F03F07A771E52D04D007F0080038B163
:105130000F2F05D04FF0FF084FF0FF30E06240E046
:105140000F2F22D12B20005D00F0400098BB05F00E
:10515000400038B1E06990F80D9005F0BF05A84611
:105160002069E06245450CD1E069407B484508D1A3
:10517000E169DAF80C00FFF77BFC10B1A8F101003F
:1051800000E0FF2000F0FF081BE0B8F1000F05D1A0
:10519000E06902F05BFC484500D119E02B20005D7E
:1051A00000F0010040B90B2204F12001E06902F097
:1051B00065F908B90CE004E04FF0FF084FF0FF304C
:1051C000E0620021204600F006F80646002E99D045
:1051D00000BF30468DE72DE9F04104468846276838
:1051E000206900F12006A06910B1B6F5001F02D3B6
:1051F0000420BDE8F081C6F30800002845D1A0696D
:10520000401CA061606938B93889B0EB561F3CD8A2
:105210000020A0610420ECE77889401E00EA5620B7
:1052200098BB2046616901F0A5FB0546012D01D818
:105230000220DEE7681C08B90120DAE7B869A84255
:105240001DD8B8F1000F03D10020A0610420D0E7E1
:1052500020466169FFF758FC05460DB90720C8E7ED
:10526000012D01D10220C4E7681C08B90120C0E764
:1052700029463846FFF7CEFE08B10120B9E765613F
:1052800029463846FFF7E7FBA0612661C6F308010F
:1052900007F134000844E0610020AAE72DE9F05F3F
:1052A000044689460426D4F800A04FF0FF08C34600
:1052B00053E05046A16902F06AF9064606B14FE094
:1052C000E06905780DB904264AE0E069C07A00F08B
:1052D0003F07A771E52D0AD02E2D08D027F020001A
:1052E000082801D1012000E00020484502D04FF0FD
:1052F000FF082BE00F2F1DD105F0400038B1E06909
:1053000090F80DB005F0BF05A8462069E06245455C
:105310000CD1E069407B584508D1E169DAF80C000E
:1053200002F050F910B1A8F1010000E0FF2000F0F8
:10533000FF080BE0B8F1000F04D1E06902F086FB32
:10534000584502D04FF0FF30E06209E000212046CE
:10535000FFF741FF064606B102E0A0690028A8D188
:1053600000BF0EB10020A0613046BDE8F09F2DE9DE
:10537000FE4F044626682B20005D00F0A00010B10F
:105380000620BDE8FE8F4FF0000901E009F1010998
:10539000F06830F819000028F8D10C2204F120013F
:1053A000684602F07DF89DF80B0000F0010028B37C
:1053B00040212B2001554FF001080EE0434669467D
:1053C00004F12000F26801F06FFA2046FFF785FE35
:1053D000054605B104E008F10108B8F1640FEDD30A
:1053E00000BFB8F1640F01D10720CAE7042D01D036
:1053F0002846C6E79DF80B102B2001559DF80B00A1
:1054000000F0020030B109F10C000D21B0FBF1F009
:10541000401C00E00120074639462046FFF7CAFD40
:1054200005464DBB781E070026D02069A0EB47112A
:10543000204600F06DF80546F5B904F1200002F0B1
:1054400005FB824600BF3046A16902F0A0F8054680
:1054500005B110E0FAB2E1695346F06802F092F942
:105460000120F07000212046FFF7B5FE054615B972
:10547000781E0700E7D100BFC5B93046A16902F028
:1054800086F8054695B920220021E06902F076F8F9
:105490000B2204F12001E06902F002F82B20005DEC
:1054A00000F01800E16908730120F070284668E7F1
:1054B0002DE9F041044626682769E06A401C08B9D6
:1054C000002003E02046E16A00F022F80546E5B935
:1054D00000BF3046A16902F05AF8054605B110E058
:1054E00000BFE520E16908700120F0702069B84232
:1054F00000D306E000212046FFF76DFE0546002D93
:10550000E7D000BF042D00D102252846BDE8F08178
:105510002DE9F04104460D462668B5F5001F02D27C
:1055200005F01F0010B10220BDE8F0812561A768D9
:105530001FB93078032800DBB76A47B93089B0EB70
:10554000551F01D80220EFE7B06AA0611CE0708906
:105550004FEA402811E03946204601F00BFA074691
:10556000781C08B90120DFE7022F02D3B069B842E6
:1055700001D80220D8E7A5EB08054545EBD239460E
:105580003046FFF768FAA0616761A06908B9022098
:10559000CAE7A06900EB5520A061C5F3080106F138
:1055A00034000844E0610020BEE770B504460025E1
:1055B00074B9FDF772FC0546802D08D03820FDF740
:1055C000E9FBFF20FDF7F8FB0020FDF7E3FB00E01F
:1055D00000BF00BF802D01D0012070BD0020FCE77E
:1055E0002DE9F04106460F4615462EBB37B1012F77
:1055F0001AD0022F0FD0032F1BD111E00020104929
:105600000860FDF7A8FD08B9002400E0012401208E
:105610000B4908600FE04FF40070288000240AE076
:1056200008202880002406E0FDF714FC28600024F0
:1056300001E0042400BF00BF2046BDE8F081000067
:10564000808121422DE9F04105460E4617461C4651
:105650004FF0000814B90420BDE8F08195B9E2B21A
:1056600039463046FDF790FC8046B8F1800F08D0EF
:105670003820FDF78FFBFF20FDF79EFB0020FDF794
:1056800089FB00E000BF00BFB8F1800F01D001200E
:10569000E2E70020E0E70146002070472DE9F041F5
:1056A00005460E4617461C464FF0000814B9042064
:1056B000BDE8F08135B9E2B239463046FDF75CFD10
:1056C000804600E000BF00BFB8F1800F01D001208C
:1056D000EEE70020ECE710B54FF4E130FEF75AF8A2
:1056E00010BD000070B505460C4600202C4908701E
:1056F0005A212B4802780078401C294B1870294801
:105700008154A522184601780078401C187025485D
:1057100042540721184602780078401C187021482E
:1057200081548221184602780078401C18701D4868
:1057300081542A12184601780078401C18701948C4
:105740004254184602780078401C18701548855459
:10575000210E184602780078401C187011488154B8
:10576000C4F30741184602780078401C18700D48B1
:105770008154C4F30721184602780078401C187041
:1057800008488154184602780078401C1870054873
:105790008454184601780348FEF7D6F870BD00001F
:1057A000E400002003A000202DE9F04F8FB0BA499B
:1057B0000868BA49FAF77BFD0090FAF768FE0446DC
:1057C000B5494868B549FAF772FD0090FAF75FFEEF
:1057D0000546B1498868B149FAF769FD0090FAF7C2
:1057E00056FE0646AC49C868AC49FAF760FD009021
:1057F000FAF74DFE0746A8490869A849FAF757FD88
:105800000090FAF744FE8046A3494869A349FAF795
:105810004EFD0090FAF73BFE81469F49886A9F49FA
:10582000FAF745FD0090FAF732FE82469A49C86AB7
:105830009A49FAF73CFD0090FAF729FE834696490B
:10584000086B9649FAF733FD0090FAF720FE0E90A8
:10585000914988699149FAF72AFD0090FAF717FEF5
:105860000D908D49C86BFAF712FE0C908C490868B0
:105870008A49FAF71CFD0090FAF709FE0B90884957
:1058800048688649FAF713FD0090FAF700FE0A907F
:10589000834988688149FAF70AFD0090FAF7F7FD15
:1058A00009907F49C8687D49FAF701FD0090FAF731
:1058B000EEFD08907A4908697849FAF7F8FC0090FB
:1058C000FAF7E5FD0790764948697449FAF7EFFC65
:1058D0000090FAF7DCFD06907149886A6F49FAF783
:1058E000E6FC0090FAF7D3FD05906D49C86A6B4954
:1058F000FAF7DDFC0090FAF7CAFD04906849086BDE
:105900006649FAF7D4FC0090FAF7C1FD03906449A8
:1059100088696249FAF7CBFC0090FAF7B8FD02906B
:105920005F49C86BFAF7B3FD0190214643F270005E
:10593000FFF7D8FE1420FFF7D5FA29464FF442505E
:10594000FFF7D0FE1420FFF7CDFA314643F2900066
:10595000FFF7C8FE1420FFF7C5FA394643F21000DE
:10596000FFF7C0FE1420FFF7BDFA414643F22000C6
:10597000FFF7B8FE1420FFF7B5FA494643F23000AE
:10598000FFF7B0FE1420FFF7ADFA51464FF4445034
:10599000FFF7A8FE1420FFF7A5FA594643F21010AE
:1059A000FFF7A0FE1420FFF79DFA43F220100E9996
:1059B000FFF798FE1420FFF795FA43F230100D9987
:1059C000FFF790FE1420FFF78DFA4FF445500C9925
:1059D000FFF788FE1420FFF785FA44F270000B9958
:1059E000FFF780FE1420FFF77DFA4FF481400A99FB
:1059F000FFF778FE1420FFF775FA44F2900009993A
:105A0000FFF770FE1420FFF76DFA44F210000899BA
:105A1000FFF768FE1420FFF765FA44F220000799AB
:105A2000FFF760FE1420FFF75DFA44F2300006999C
:105A3000FFF758FE1420FFF755FA4FF482400599FE
:105A4000FFF750FE1420FFF74DFA44F210100499AE
:105A5000FFF748FE1420FFF745FA44F2201003999F
:105A6000FFF740FE1420FFF73DFA44F23010029990
:105A7000FFF738FE1420FFF735FA44F24010019981
:105A8000FFF730FE1420FFF72DFA002005490880AB
:105A90000FB0BDE8F08F0000AC9600200000204160
:105AA000EC960020E600002038B50546284600F0B8
:105AB000D4FA04463CB96946284602F015F9044672
:105AC0000CB900202860204638BD2DE9F04F89B080
:105AD00004460D4607A9204602F006F908900898EA
