:020000040800F2
:100000008027002061540008393A00083B3A000874
:100010003F3A0008433A0008473A00080000000051
:100020000000000000000000000000004B3A000843
:100030004D3A0008000000004F3A0008513A00080D
:100040007B5400087B5400087B5400087B54000854
:100050007B5400087B5400087B5400087B54000844
:100060007B5400087B5400087B5400087B54000834
:100070007B5400087B5400087B5400087B54000824
:100080007B5400087B5400087B5400087B54000814
:100090007B5400087B5400087B5400087B54000804
:1000A0007B5400087B5400087B5400087B540008F4
:1000B0007B540008CD520008E55300087B5400082B
:1000C0007B5400087B5400087B5400087B540008D4
:1000D0007B540008FF5000087B540008EF3F0008E5
:1000E0007B5400087B5400087B5400087B540008B4
:1000F0007B5400087B5400087B5400087B540008A4
:100100007B5400087B5400087B5400087B54000893
:100110001141000825460008AF400008ED490008DD
:100120007B5400087B5400087B5400087B54000873
:1001300000F002F800F06DF80AA090E8000C82448C
:100140008344AAF10107DA4501D100F062F8AFF269
:10015000090EBAE80F0013F0010F18BFFB1A43F0A5
:1001600001031847A88F0000C88F00000A444FF011
:10017000000C10F8013B13F0070408BF10F8014B06
:100180001D1108BF10F8015B641E05D010F8016B4B
:10019000641E01F8016BF9D113F0080F1EBF10F8AF
:1001A000014BAD1C0C1B09D16D1E58BF01F801CBD2
:1001B000FAD505E014F8016B01F8016B6D1EF9D555
:1001C0009142D6D37047000000230024002500266A
:1001D000103A28BF78C1FBD8520728BF30C148BFAA
:1001E0000B607047662908F0E083642906F06E848E
:1001F000732907F03080002070471FB507F06AF8B8
:1002000004000020002107F0A9FDE0601FBD10B52B
:1002100010BD07F05FF91146FFF7EFFF01F0CFFEC9
:1002200007F07DF903B4FFF7F2FF03BC04F00CFF05
:100230002DE9F041FA48007801287DD10020F849E5
:100240000870F8490870F848C079012823D1F649A8
:100250004A7A897A02EB012008F0CAF90646F34986
:1002600008F0C8F80446F049087A08F0D9F90546BC
:10027000214608F051F8EE490860EE49EC48006864
:1002800008F016FA054608F077F904B221464FF453
:10029000AC5003F0DBFFE448C07938BBE2494A7A4E
:1002A000897A02EB012008F0A3F90746DF4908F03C
:1002B000A1F80546DC49087A08F0B2F90646294655
:1002C00008F02AF80446002108F0EFFAD84908603F
:1002D000D849D748006808F0EBF9054608F04CF912
:1002E00004B221464FF4AC5003F0B0FFCE48407B3F
:1002F000012815D1CC49CA7B097C02EB012008F00A
:1003000077F90646C94908F075F80446C649887B5E
:1003100008F086F90546214607F0FEFFC649086049
:10032000C148407B40B9C049CA7B097C02EB01202F
:1003300008F05EF9074600E011E0BC4908F05AF801
:100340000546B949887B08F06BF90646294607F04F
:10035000E3FF0446002108F0A8FAB7490860B44852
:10036000006807F0ADFF21F00041044607F00CFDE6
:10037000B2490860B2480168B048006808F064FA01
:100380000ED2B048007808BB0C22AFA141F25060F9
:1003900003F0A8FF0120AB490870AF4908701DE0C9
:1003A000AE480168A548006808F04EFA0FD2A4488C
:1003B0000168A248006808F047F908D20120A8495E
:1003C00008700020A44908709E49087006E00020CB
:1003D000A1490870A24908709A490870BDE8F081E7
:1003E00010B58F480078012856D100208C4908703C
:1003F0008C4908708C488078022850D18A4801794D
:10040000C07801EB0020974908800846008801B2B7
:1004100041F2705003F01AFF924800880A2190FBC5
:10042000F1F4204608F0E4F88F4908608F4801682D
:100430008D48006808F008FA0FD28D48007800282F
:100440002DD10C228BA141F2506003F04BFF012013
:10045000874908708B49087021E08B480168824801
:10046000006808F0F1F90FD2804801687E48006802
:1004700008F0EAF808D20120844908700020814978
:1004800008707B4908700AE000207E4908707F49A7
:1004900008707749087002E07DA006F0CDFA10BD23
:1004A00070B5E0B0002300247B4D2C606C60AC6024
:1004B00000211AE001EB4104784D35F8144040ADBD
:1004C00025F8114001EB4104744D05EB44046488A8
:1004D00020AD25F8114001EB4104704D05EB4404BB
:1004E000A4882DF811404C1CE1B24029E2DB002227
:1004F0001EE0002016E040AC34F8105040AE441C22
:1005000036F81440A5420BDD40AC34F8103040AD55
:10051000441C35F8144025F81040441C25F81430CC
:10052000441CE0B2C2F13F048442E4DC541CE2B259
:100530003F2ADEDB00221EE0002016E020AC34F86B
:10054000105020AE441C36F81440A5420BDD20AC00
:1005500034F8103020AD441C35F8144025F8104014
:10056000441C25F81430441CE0B2C2F13F0484421C
:10057000E4DC541CE2B23F2ADEDB00221AE0002059
:1005800012E03DF81050441C3DF81440A54209DD2E
:100590003DF81030441C3DF814402DF81040441C28
:1005A0002DF81430441CE0B2C2F13F048442E8DC70
:1005B000541CE2B23F2AE2DB0A2118E0364C2468E0
:1005C00040AD35F811502C44334D2C602C466468F6
:1005D00020AD35F811502C442F4D6C602C46A4688A
:1005E0003DF811502C442C4DAC604C1CE1B2362926
:1005F000E4DB294C24682C25B4FBF5F4264D2C6053
:100600002C4664682C25B4FBF5F4234D6C602C4615
:10061000A4682C25B4FBF5F41F4DAC6060B070BD30
:1006200038010020390100203006002000007A4403
:10063000240000200000204128000020E0000020CD
:100640009C00002011010020CBFEBBFAC7E3BDC710
:10065000B1A8BEAF0000000006010020A0000020ED
:100660000701002018000020DC000020940000207A
:1006700010010020BBB7BEB3B7E7CBD9B1A8BEAF5E
:100680000000000004010020980000200501002067
:100690006572726F720D0A00A4040020B00400207D
:1006A0002DE9F041F848C07883287DD1F64840799B
:1006B000F549097940EA0120F44908800846008894
:1006C00041F25872811A90426FD031DC41F242728D
:1006D000A0EB0201904269D019DC41F23472A0EB28
:1006E000020190426FD00BDCB0F5B45F6CD0A0F586
:1006F000B850283880B3082867D00A2879D134E167
:10070000022963D0042975D00C29F7D14EE10E29B6
:1007100071D006DC022977D004296ED00629EDD1EC
:100720005AE110296AD0122969D01429E6D174E15E
:1007300028297DD011DC1A297BD006DC0A2979D042
:100740000E2978D01029D9D1E1E21C2974D01E29B4
:1007500073D02029D2D184E310E03A296ED006DC90
:100760002A296CD02C296BD03829C7D156E33C29D3
:1007700067D03E2966D04029C0D1FCE3C248C47985
:10078000057AC34804704570BF490A7AC97902EBFB
:10079000012007F02DFF0646BE4907F02BFEBE499B
:1007A00008600120BD4902E0E6E354E21CE2087063
:1007B000B948006807F084FD064632460B46B8A0EB
:1007C00006F03AF925E23EE1FAE360E0AE48C4798A
:1007D000057AAF488470C570AB48017AC07901EBE7
:1007E0000020B44908800120AC490870B148018854
:1007F00006E0E6E36CE00DE206E07FE031E09EE03B
:10080000ADA006F019F9DDE79F48C479057AA04844
:10081000047145719C490A7AC97902EB012007F0FD
:10082000E7FE06469B4907F0E5FDA74908600AE098
:100830005DE38FE225E247E2AAE2CCE234E39FE304
:10084000C0E377E3BFE30120944908709E48006845
:1008500007F036FD064632460B469CA006F0ECF843
:10086000B0E78948C479057A89488471C57186489A
:10087000017AC07901EB00209A490880012087495C
:1008800008709848018898A006F0D6F89AE77E4844
:10089000C479057A7E48047245727B490A7AC9791F
:1008A00002EB012007F0A4FE06467A4907F0A2FDFC
:1008B000924908600120794908709048006807F063
:1008C000FFFC064632460B468DA006F0B5F879E7E8
:1008D0006D48C479057A6E488472C5726A48017A97
:1008E000C07901EB00208B49088001206B4908701A
:1008F0008848018888A006F09FF863E76248C479B9
:10090000057A6348047345735F490A7AC97902EB33
:10091000012007F06DFE06465E4907F06BFD824937
:10092000086001205D4908707F48006807F0C8FC36
:10093000064632460B467DA006F07EF842E7524856
:10094000C479057A52488473C5734F48017AC079D7
:1009500001EB00207A49088001205049087078484E
:10096000018878A006F068F82CE74748C479057A32
:1009700047480474457444490A7AC97902EB012056
:1009800007F036FE0646434907F034FD714908601A
:100990000120424908706F48006807F091FC064644
:1009A00032460B466CA006F047F80BE73648C47990
:1009B000057A37488474C5743348017AC07901EBED
:1009C00000206B490880012034490870684801887C
:1009D00068A006F031F8F5E62B48C479057A2C4872
:1009E0000475457528490A7AC97902EB012007F098
:1009F000FFFD0646274907F0FDFC65490860012018
:100A0000264908706248006807F05AFC06463246DC
:100A10000B4660A006F010F8D4E61B48C479057AAE
:100A20001B488475C5751848017AC07901EB002010
:100A30005E4908800120194908705C4801885CA063
:100A400005F0FAFFBEE61048C479057A104804762E
:100A500045760D490A7AC97902EB012007F0C8FDF5
:100A600006465A4907F0C6FC5949086001200B495F
:100A700008705748006807F023FC064632460B46CC
:100A800054A005F0D9FFEEE3B006002010000020CE
:100A900017040020000020412C0000201A00002034
:100AA000746F705F706F736974696F6E3D252E315E
:100AB000660D0A0030000020746F705F73616D7006
:100AC0006C3D25640D0A000034000020626F7474D0
:100AD0006F6D5F706F736974696F6E3D252E31663F
:100AE0000D0A000038000020626F74746F6D5F7330
:100AF0006D61706C3D25640D0A0000003C00002013
:100B00006E6561725F72616E67653D252E31660D9F
:100B10000A000000400000206E6561725F736D6125
:100B2000706C3D25640D0A00440000206661725F10
:100B300072616E67653D252E31660D0A000000006A
:100B4000480000206661725F736D61706C3D2564C2
:100B50000D0A00004C00002063757272656E745FB0
:100B6000726F746174696F6E3D252E31660D0A00D7
:100B70005000002063757272656E745F726F7461ED
:100B800074696F6E736D61706C3D25640D0A0000B1
:100B90005400002072696768745F726F74617469D1
:100BA0006F6E3D252E31660D0A00000058000020B2
:100BB00072696768745F726F746174696F6E736D68
:100BC00061706C3D25640D0A0000000000007A444D
:100BD0005C000020656D7074795F77656967687483
:100BE0003D252E33660D0A00F748C479057AF7488B
:100BF0008476C576F448017AC07901EB0020F44987
:100C000008800120F3490870F1480188F2A005F03E
:100C100013FF28E3EC48C479057AEC48047745775C
:100C2000E9490A7AC97902EB012007F0E1FC06469E
:100C3000EF4907F0DFFBEF4908600120E549087044
:100C4000EC48006807F03CFB064632460B46EAA03B
:100C500005F0F2FE07E3DC48C479057ADB488477C7
:100C6000C577D948017AC07901EB0020E8490880AE
:100C70000120D8490870E6480188E6A005F0DCFEAE
:100C8000F1E2D148C479057AD04880F8204080F854
:100C90002150CD490A7AC97902EB012007F0A8FC5E
:100CA0000646E34907F0A6FBE24908600120C9496E
:100CB0000870E048006807F003FB064632460B4622
:100CC000DDA005F0B9FECEE2BF48C479057ABF4881
:100CD00080F8224080F82350BB490A7AC97902EB98
:100CE000012007F085FC0646D14907F083FBD74970
:100CF00008600120B7490870D448006807F0E0FA9E
:100D0000064632460B46D2A005F096FEABE2AE4850
:100D1000C479057AAD4880F8244080F82550AA4966
:100D20000A7AC97902EB012007F062FC0646C04945
:100D300007F060FBCB4908600120A6490870C9484C
:100D4000006807F0BDFA064632460B46C6A005F01D
:100D500073FE88E29C48C479057A9C4880F8264056
:100D600080F827509848017AC07901EB002000B242
:100D70000A2190FBF1F000B2C0490880012095499A
:100D80000870BE48B0F90010BDA005F055FE6AE23B
:100D90008D48C479057A8D4880F8284080F829501C
:100DA00089490A7AC97902EB012007F021FC07463C
:100DB0009F4907F01FFB064607F0DEFB00B2B4496F
:100DC0000880012083490870B148B0F90010B1A033
:100DD00005F032FE47E27C48C479057A7B4880F80A
:100DE0002A4080F82B5078490A7AC97902EB012011
:100DF00007F0FEFB06468E4907F0FCFAAA49086098
:100E0000012074490870A848006807F059FA06469E
:100E100032460B46A5A005F00FFE24E26A48C479CD
:100E2000057A6A4880F82C4080F82D5066490A7A85
:100E3000C97902EB012007F0DBFB06467C4907F08D
:100E4000D9FA9F4908600120624908709C480068EF
:100E500007F036FA064632460B469AA005F0ECFD3E
:100E600001E25948C479057A584880F82E4080F844
:100E70002F5055490A7AC97902EB012007F0B8FBD7
:100E800006466B4907F0B6FA9349086001205149BC
:100E900008709148006807F013FA064632460B4680
:100EA0008EA005F0C9FDDEE14748C479057A4748C0
:100EB00080F8304080F8315043490A7AC97902EB12
:100EC000012007F095FB0646594907F093FA894936
:100ED000086001203F4908708648006807F0F0F973
:100EE000064632460B4684A005F0A6FDBBE1364817
:100EF000C479057A354880F8324080F83350324959
:100F00000A7AC97902EB012007F072FB06464849CC
:100F100007F070FA7E49086001202E4908707C486D
:100F2000006807F0CDF9064632460B4679A005F079
:100F300083FD98E12448C479057A244880F8344038
:100F400080F8355020490A7AC97902EB012007F070
:100F50004FFB0646364907F04DFA734908600120F9
:100F60001C4908707048006807F0AAF90646324626
:100F70000B466EA001E02FE189E105F05DFD72E115
:100F80001148C479057A114880F8364080F8375006
:100F90000D490A7AC97902EB012007F029FB0646C0
:100FA000234907F027FA66490860012009490870BB
:100FB0006348006807F084F9064632460B46C1E0F4
:100FC0002DE14FE1E5E0C1E0B0060020170400206C
:100FD000600000201A000020656D7074795F7765ED
:100FE00069676874736D61706C3D25640D0A00005B
:100FF00000007A446400002063757272656E745F4D
:101000007765696768743D252E33660D0A00000018
:101010006800002063757272656E745F776569673A
:101020006874736D61706C3D25640D0A00000000EA
:10103000000020416C00002075707065725F6C6963
:101040006D69743D252E31660D0A00007000002088
:101050006E6561725F6C696D69743D252E31660D38
:101060000A0000007400002072656D6F74655F6C8B
:10107000696D69743D252E31660D0A0078000020E7
:101080006C6566745F6C696D69743D25640D0A005A
:101090007A00002072696768745F6C696D69743DDD
:1010A00025640D0A000000007C0000206C65766558
:1010B0006C5F6C696D6974303D252E31660D0A00D8
:1010C000800000206C6576656C5F6C696D697431B9
:1010D0003D252E31660D0A0084000020766572746D
:1010E0006963616C5F6C696D6974303D252E316692
:1010F0000D0A000088000020766572746963616CD7
:101100005F6C696D6974313D252E31660D0A0000F2
:101110008C000020726174655F6C696D6974303D8C
:10112000252E31660D0A0000900000207261746562
:101130005F6C696D6974313D252E31660D0A0000C2
:1011400094000020FAA005F077FC8CE0FE48C479FA
:10115000057AFE4880F8384080F83950FA490A7A12
:10116000C97902EB012007F043FA0646F84907F077
:1011700041F9F84908600120F7490870F54800680E
:1011800007F09EF8064632460B46F4A005F054FCE4
:1011900069E0ED48C479057AEC4880F83A4080F877
:1011A0003B50E9490A7AC97902EB012007F020FA9D
:1011B0000646E74907F01EF9EE4908600120E649B6
:1011C0000870EC48006807F07BF8064632460B468C
:1011D000E9A005F031FC46E0DB48C479057ADB483C
:1011E00080F83C4080F83D50D7490A7AC97902EB33
:1011F000012007F0FDF90646D54907F0FBF8E34961
:1012000008600120D4490870E048006807F058F8E9
:10121000064632460B46DEA005F00EFC23E0CA4827
:10122000C479057AC94880F83E4080F83F50C649E5
:101230000A7AC97902EB012007F0DAF90646C449B7
:1012400007F0D8F8D74908600120C3490870D5488D
:10125000006807F035F8064632460B46D2A005F086
:10126000EBFB00E000BF00BFBB48007801280ED1B7
:101270005A20B64981F84000CF480068A0F16401C7
:101280004122B24803F05AFD0020B3490870BDE87E
:10129000F081F8B5C9480168C948006807F010FB3B
:1012A0000446C8490988C84A1288881A07F0A0F974
:1012B0000546214607F09EF8C4490860C048016809
:1012C000C248006807F0F4F90546BE48008807F0F8
:1012D000A7F90646294607F0F3FA044607F04CF949
:1012E000BB490860B948006806F0EAFF0446B84800
:1012F000006822460B460090B6A005F09DFBB8485A
:101300000168B848006807F0DBFA0446B649098866
:10131000B64A1288881A07F06BF90546214607F08D
:1013200069F8B3490860AF480168B148006807F040
:10133000BFF90546AC48008807F072F90646294611
:1013400007F0BEFA044607F017F9AA490860A84852
:10135000006806F0B5FF0446A648006822460B4622
:101360000090A5A005F068FBA6480168A6480068A3
:1013700007F0A6FA0446A5490988A54A1288881AE2
:1013800007F036F90546214607F034F8A149086010
:101390009D4801689F48006807F08AF905469B4808
:1013A000008807F03DF90646294607F089FA044609
:1013B00007F0E2F8984908609648006806F080FF58
:1013C00004469548006822460B4600908AA005F026
:1013D00033FB924801689248006807F071FA0446AE
:1013E00090490988904A1288881A07F001F9054641
:1013F000214606F0FFFF8D490860894801688B4847
:10140000006807F055F905468648008807F008F996
:101410000646294607F054FA044607F0ADF8844919
:1014200008608248006806F04BFF04468048006868
:1014300022460B46009070A005F0FEFAF8BD1FB5DD
:101440007CA005F0F9FA5C48006864384122014646
:1014500003907F4803F0DAFB7D4890F840005A285B
:1014600064D10020039008E079490398095C374A69
:1014700011540398401CC0B2039003984128F3DB39
:1014800073484178007801EB0020019007F0B0F834
:101490002F49029006F0AEFF514908602C49504890
:1014A000006807F005F9019007F066F800B2014600
:1014B000029041F2287002F0C9FE4948006806F027
:1014C000FFFE02460B46CDE90001AFF62C2005F0E9
:1014D000B3FA5F48C178807801EB00204349088067
:1014E0000846008801B241F2367002F0AFFE3F4874
:1014F0000188AFF63C2005F09FFA55484179007904
:1015000001EB0020019007F073F81149029006F0FA
:1015100071FF344908600E493248006807F0C8F886
:10152000019007F029F800B2014693E0FEE30000C5
:1015300077696E6473706565645F6C696D6974303A
:101540003D252E31660D0A00B0060020170400204C
:1015500000002041980000201A00002077696E6486
:1015600073706565645F6C696D6974313D252E31FA
:10157000660D0A009C000020616E676C655F6C69F7
:101580006D6974303D252E31660D0A00A0000020E3
:10159000616E676C655F6C696D6974313D252E31D4
:1015A000660D0A00A40000206865696768743D251F
:1015B0002E31660D0A000000140000205C0000209F
:1015C000640000206800002060000020E40000208B
:1015D000F400002025302E31662D3E25640D0A00D2
:1015E0002C000020340000203800002030000020B3
:1015F000E8000020F800002025302E33662D3E251F
:10160000640D0A003C000020440000204800002037
:1016100040000020EC000020FC0000204C000020D6
:10162000540000205800002050000020F00000204E
:10163000000100202D2D2D2DBFAACABCCAFDBEDD84
:10164000BFBDB1B42D2D2D2D2D2D0D0A0000000094
:1016500058040020029041F2447002F0F7FDFE4869
:10166000006806F02DFE02460B46CDE90001AFF6FC
:10167000A43005F0E1F9F948C179807901EB002047
:10168000F74908800846008801B241F2527002F022
:10169000DDFDF3480188AFF6B03005F0CDF9EF4835
:1016A000417A007A01EB0020019006F0A1FFED499C
:1016B000029006F09FFEEC490860EA49EA4800689B
:1016C00006F0F6FF019006F057FF00B201460290C7
:1016D00041F2307002F0BAFDE348006806F0F0FD18
:1016E00002460B46CDE90001AFF6EC3005F0A4F957
:1016F000DA48C17A807A01EB0020DC49088008468C
:10170000008801B241F2387002F0A0FDD74801888C
:10171000AFF6FC3005F090F9D048417B007B01EB3F
:101720000020019006F064FFCE49029006F062FEB0
:10173000CF490860CB49CE48006806F0B9FF019058
:1017400006F01AFF00B20146029041F2467002F024
:101750007DFDC748006806F0B3FD02460B46CDE9A3
:101760000001AFF6384005F067F9BC48C17B807BCB
:1017700001EB0020BF4908800846008801B241F211
:10178000547002F063FDBB480188AFF6484005F095
:1017900053F9B248417C007C01EB0020019006F037
:1017A00027FFB049029006F025FEB3490860AD4915
:1017B000B148006806F07CFF019006F0DDFE00B243
:1017C0000146029041F2327002F040FDAA480068E2
:1017D00006F076FD02460B46CDE90001AFF68840E3
:1017E00005F02AF99D48C17C807C01EB0020A349CB
:1017F00008800846008801B24FF4BA5002F026FD76
:101800009E480188AFF6944005F016F99348417D53
:10181000007D01EB0020019006F0EAFE9149029064
:1018200006F0E8FD964908608E499548006806F084
:101830003FFF019006F0A0FE00B20146029041F287
:10184000487002F003FD8E48006806F039FD02463C
:101850000B46CDE90001AFF6C44005F0EDF87F4836
:10186000C17D807D01EB0020864908800846008804
:1018700001B241F2567002F0E9FC82480188AFF6ED
:10188000D04005F0D9F87548417E007E01EB00207C
:10189000019006F0ADFE7C49029006F0ABFD7B495D
:1018A000086079497948006806F002FF019006F067
:1018B00063FE00B20146029041F2347002F0C6FCB1
:1018C0007248006806F0FCFC02460B46CDE90001B8
:1018D000AFF6005005F0B0F86048C17E807E01EBA5
:1018E00000206B4908800846008801B241F242702E
:1018F00002F0ACFC66480188AFF6241005F09CF8B5
:101900005648417F007F01EB0020019006F070FEF9
:101910005D49029006F06EFD5E4908605A495D48D7
:10192000006806F0C5FE019006F026FE00B20146F2
:10193000029041F2507002F089FC5648006806F0AF
:10194000BFFC02460B46CDE9000153A005F074F838
:101950004248C17F807F01EB00205549088008463E
:10196000008801B241F2587002F070FC50480188C2
:10197000AFF6601005F060F8384890F8211090F844
:10198000200001EB0020019006F032FE3549029064
:1019900006F030FD4749086032494648006806F0C5
:1019A00087FE019006F0E8FD00B20146029041F288
:1019B000627002F04BFC3F48006806F081FC024672
:1019C0000B46CDE90001AFF6901005F035F823483D
:1019D00090F8231090F8220001EB0020019006F00F
:1019E00007FE2049029006F005FD334908601D49B5
:1019F0003148006806F05CFE019006F0BDFD00B2C3
:101A00000146029041F2667002F020FC2A4800680C
:101A100006F056FC02460B46CDE90001AFF6D010A9
:101A200005F00AF80D4890F8251090F8240001EB15
:101A30000020019006F0DCFD0A49029006F0DAFC75
:101A40001E49086007491D48006806F031FE0190F4
:101A500006F092FD00B233E034000020580400206C
:101A600038000020000020413C0000204000002001
:101A700044000020480000204C00002050000020BE
:101A8000540000205800002000007A445C00002030
:101A9000600000206400002063757272656E745FE0
:101AA0007765696768743D252E31660D0A00000070
:101AB000680000206C0000207000002074000020EE
:101AC0000146029041F2687002F0C0FBFE480068D7
:101AD00006F0F6FB02460B46CDE90001AFF6782092
:101AE00004F0AAFFF94890F8271090F8260001EBBF
:101AF000002000B20A2190FBF1F000B2F449088006
:101B00000846008800EB8000400000B201460290C9
:101B100041F2727002F09AFBED48B0F90010AFF696
:101B2000A02004F089FFE94890F8291090F82800D7
:101B300001EB0020009006F05BFDE649019006F005
:101B400059FC029006F018FD00B2E34908800846EF
:101B5000008800EB8000400000B20146029041F294
:101B6000747002F073FBDC48B0F90010DBA004F0E5
:101B700063FFD64890F82B1090F82A0001EB002064
:101B8000019006F035FDD349029006F033FCD849A8
:101B90000860D049D648006806F08AFD019006F03A
:101BA000EBFC00B20146029041F2767002F04EFB6F
:101BB000CF48006806F084FB02460B46CDE90001E1
:101BC000AFF6183004F038FFC04890F82D1090F8A8
:101BD0002C0001EB0020019006F00AFDBD490290A7
:101BE00006F008FCC3490860BA49C248006806F01C
:101BF0005FFD019006F0C0FC00B20146029041F288
:101C0000907002F023FBBB48006806F059FB0246C7
:101C10000B46CDE90001AFF6543004F00DFFAB48A0
:101C200090F82F1090F82E0001EB0020019006F0A4
:101C3000DFFCA849029006F0DDFBAF490860A5492A
:101C4000AD48006806F034FD019006F095FC00B246
:101C50000146029041F2787002F0F8FAA648006856
:101C600006F02EFB02460B46CDE90001AFF694309C
:101C700004F0E2FE954890F8311090F8300001EB46
:101C80000020019006F0B4FC9249029006F0B2FBED
:101C90009A4908608F499948006806F009FD01904B
:101CA00006F06AFC00B20146029041F2927002F026
:101CB000CDFA9248006806F003FB02460B46CDE9D8
:101CC0000001AFF6CC3004F0B7FE804890F8331036
:101CD00090F8320001EB0020019006F089FC7D496C
:101CE000029006F087FB864908607A4984480068BC
:101CF00006F0DEFC019006F03FFC00B201460290C7
:101D00004FF4BC5002F0A2FA7D48006806F0D8FA01
:101D100002460B46CDE90001AFF6084004F08CFE08
:101D20006A4890F8351090F8340000E026E101EBA5
:101D30000020019006F05CFC6649029006F05AFB18
:101D40007049086063496F48006806F0B1FC019073
:101D500006F012FC00B20146029041F2947002F0CB
:101D600075FA6848006806F0ABFA02460B46CDE902
:101D70000001AFF6484004F05FFE544890F8371079
:101D800090F8360001EB0020019006F031FC51493B
:101D9000029006F02FFB5C4908604E495A480068E3
:101DA00006F086FC019006F0E7FB00B201460290C7
:101DB00041F2827002F04AFA5348006806F080FA55
:101DC00002460B46CDE90001AFF69C0004F034FE5C
:101DD0003E4890F8391090F8380001EB002001904F
:101DE00006F006FC3B49029006F004FB47490860F8
:101DF00038494648006806F05BFC019006F0BCFBE1
:101E000000B20146029041F2967002F01FFA3F487C
:101E1000006806F055FA02460B46CDE90001AFF620
:101E2000C40004F009FE294890F83B1090F83A00ED
:101E300001EB0020019006F0DBFB2649029006F042
:101E4000D9FA3349086023493148006806F030FC6C
:101E5000019006F091FB00B20146029041F28470BD
:101E600002F0F4F92A48006806F02AFA02460B4606
:101E7000CDE90001AFF6001004F0DEFD134890F844
:101E80003D1090F83C0001EB0020019006F0B0FB03
:101E90001049029006F0AEFA1E4908600D491D482F
:101EA000006806F005FC019006F066FB00B20146F2
:101EB000029041F2987002F0C9F91648006806F0E5
:101EC000FFF902460B4627E074000020580400206A
:101ED00078000020000020417A00002072696768C5
:101EE000745F6C696D69743D2564660D0A000000BD
:101EF0007C0000208000002084000020880000205A
:101F00008C00002090000020940000209800002009
:101F10009C000020A0000020CDE90001AFF6901049
:101F200004F08AFDFE4890F83F1090F83E0001EB67
:101F30000020019006F05CFBFA49029006F05AFA84
:101F4000F9490860F749F848006806F0B1FB0190CC
:101F500006F012FB00B2014602904FF4B45002F0BA
:101F600075F9F148006806F0ABF902460B46CDE979
:101F70000001AFF6CC1004F05FFD00BF4FF47A70A3
:101F800003F03DF8E9A004F057FDEF480068C838B9
:101F90000B2201460390ED4802F038FEEB48007832
:101FA00054280BD1EAA004F047FD0B22E74941F287
:101FB000105002F097F90120E84908701FBDBAB02F
:101FC00002F0BCFF4FF4A06003F0EEFF01F056FEFC
:101FD00001F030FE4FF4E13003F045F84FF41651B4
:101FE000242001F05FFF4FF4E13002F0B7F802F077
:101FF00070FC02F0B1FD0EE0D9A004F01DFD4FF41D
:10200000FA7002F0FCFFDA48006808B9012000E02D
:102010000020D749086002F07FFD4EF61671884215
:10202000EAD14FF40000C849086001F0D0FE02F088
:1020300017FF41F61F4140F2E73003F0F9F84FF483
:10204000FA6002F0DCFF02F04AFA03F029F9FFF728
:10205000F6F9FFF71EF901F0BABCC648007801286E
:102060007DD10020C3490870BC480078002835D1D4
:102070006422C1A1C2A002F057FC78BB00203990B5
:102080000AE039981230C249095C37AA39981154CC
:102090003998401CC0B2399039980628F1DB0020ED
:1020A0008DF8E20037AABBA1A84804F0D1FCA749EB
:1020B000B9A004F0C1FC0B22A44941F2105002F077
:1020C00011F9A1480068C8380B22014636909F4894
:1020D00002F034FE0120A149087000BF6422AFA1C4
:1020E000B1A002F021FC48B9B4A004F0A5FC022282
:1020F000B5A14FF4A95002F0F5F808E0B3A004F040
:102100009BFC0222B4A14FF4A95002F0EBF88648E0
:10211000006806F0D5F8CDE93801B048806B1D9015
:1021200006F0CEF8CDE93601AD48006806F0C8F8F3
:10213000CDE93401AB48006806F0C2F8CDE93201C0
:10214000A948006806F0BCF8CDE93001A74800684E
:1021500006F0B6F8CDE92E01A548006800E076E06B
:1021600006F0AEF8CDE92C01A248006806F0A8F808
:10217000CDE92A01A048006806F0A2F8CDE92801BF
:102180009E48006806F09CF8CDE926019C4800684E
:1021900006F096F8CDE924019A48006806F090F818
:1021A000CDE922019848006806F08AF8CDE92001BF
:1021B0009648006806F084F8CDE91E01DDE9380193
:1021C000CDE91C01DDE93601CDE91A01DDE9340173
:1021D000CDE91801DDE93201CDE916018C48B0F9ED
:1021E00000008C49B1F90010CDE91410DDE930018F
:1021F000CDE91201DDE92E01CDE91001DDE92C0167
:10220000CDE90E01DDE92A01CDE90C01DDE9280166
:10221000CDE90A01DDE92601CDE90801DDE9240166
:10222000CDE90601DDE92201CDE90401DDE9200166
:10223000CDE90201DDE91E01444ACDE900017649FC
:10224000764804F005FC754953A002F02BFA744857
:10225000008800F4004020B1002071490880FEF79A
:102260001FFA70480078012856D1FEF719F96E4818
:1022700000686E490968401A3990002801DB3998D6
:1022800001E039984042042847DD6748006800B201
:10229000014639904FF4B95001F0D8FF6248006808
:1022A000624908606248008806F0BAF937905E48D3
:1022B0000068359006F0B4F93690379906F000FBC7
:1022C00038905C480168389806F094F839905A487C
:1022D0000168399806F020F84B49086000214A4807
:1022E000006806F0B1F902D200204749086053495E
:1022F0004548006806F0A8FA07D24FF07E515048D2
:10230000006806F009F84049086000213E4800686E
:1023100006F09AFA02D895E06CE373E10DE1000053
:102320005804002000002041A40000202D2D2D2D58
:10233000BFAACABCB6C1C8A14944BAC52D2D2D2D0E
:102340002D2D0D0A00000000140000200C040020B8
:10235000BCD3D4D8CDEAB3C9000000001B000020D4
:10236000666C617368206572726F720D0A000000FE
:10237000A0012142FB0100202B494D45493A0000B4
:102380007573722E636E41542B494D45490D0A00F9
:10239000400C002054484859257300002B534F43EC
:1023A0004B414C4B3A4F4E007573722E636E415445
:1023B0002B534F434B414C4B0D0A0000C1AACDF8A3
:1023C000B3C9B9A60D0A00004F4B0000C1AACDF851
:1023D000CAA7B0DC0D0A00004E4F00003C010020EF
:1023E0009C00002094000020740000207000002059
:1023F0006C000020E0000020DC000020D80000205D
:10240000D0000020C8000020C00000206400002090
:102410007A00002078000020388C00081802002084
:10242000E6010020FC010020A4040020140100208B
:1024300030000020E80000202C0000200000FA43BB
:1024400034000020F749F848006806F0FDF874D21F
:10245000F649F548006806F02BF9389006F08CF83C
:1024600000B20146399041F2305001F0EFFEF048E1
:102470000168ED48006806F023FA379005F020FF68
:1024800021F000410022EB4BCDE9380105F0E2FEDE
:102490004FD8E948006805F013FFCDE93801E74857
:1024A000006805F00DFFCDE93601E548006805F04C
:1024B00007FFCDE93401E348006805F001FFCDE9ED
:1024C0003201E148006805F0FBFECDE93001D64855
:1024D000006805F0F5FECDE92E01DC48006805F046
:1024E000EFFECDE92C01DDE93801CDE90C01DDE994
:1024F0003601CDE90A01DDE93401CDE90801DDE964
:102500003201CDE90601DDE93001CDE90401DDE963
:102510002E01CDE90201DDE92C01CD4ACDE9000112
:10252000CC49CD4804F094FACB49AFF2941002F0B4
:10253000B9F8BD480068BE490860C8480168BA4893
:10254000006806F0BDF90021399006F07DF812D838
:10255000C348007878B9002141F2905001F076FE2E
:102560000C22C0A141F2506001F0BCFE0120C14923
:102570000870BB490870C0480168AB48006806F0A5
:102580009FF90021399006F05FF912D8B44800781D
:1025900078B900214FF4B05001F058FE0C22B1A1DF
:1025A00041F2506001F09EFE0120B2490870AC4932
:1025B0000870AA4801689C48006806F081F900216B
:1025C000399006F041F91DD2AB4801689648006881
:1025D00006F076F90021399006F036F812D2A048BC
:1025E0000078012809D1012141F2905001F02EFE1E
:1025F00001214FF4B05001F029FE002098490870E5
:102600009C4908709D4840689D494968401A399026
:10261000002801DB399801E03998404204287DDD2B
:102620009648406800B20146399041F2227001F0AC
:102630000DFE92484068924948609248008805F033
:10264000EFFF37908D484068359005F0E9FF3690F0
:10265000379906F035F938908B480168389805F0BD
:10266000C9FE399089480168399805F055FE7649C8
:10267000086000217448006805F0E6FF02D20020DF
:102680007149086067497048006806F0DDF807D2B4
:102690004FF07E517E48006805F03EFE6A490860B2
:1026A00000216948006806F0CFF87CD85D4966488B
:1026B000006805F0C9FF76D25C496348006805F000
:1026C000F7FF389005F058FF00B2014639904FF4FB
:1026D000AA5001F0BBFD6F4801685B48006806F036
:1026E000EFF8379005F0ECFD21F000410022514B4E
:1026F000CDE9380105F0AEFD51D84F48006805F02E
:10270000DFFDCDE938014D48006805F0D9FDCDE980
:1027100036014B48006805F0D3FD00E080E0CDE9CC
:1027200034014848006805F0CBFDCDE93201464848
:10273000006805F0C5FDCDE930013B48006805F0B3
:10274000BFFDCDE92E014148006805F0B9FDCDE996
:102750002C01DDE93801CDE90C01DDE93601CDE9D7
:102760000A01DDE93401CDE90801DDE93201CDE9F5
:102770000601DDE93001CDE90401DDE92E01CDE9F5
:102780000201DDE92C01324ACDE90001314932482C
:1027900004F05EF93049AFF2004001F083FF2A48AF
:1027A00000683C4908603C4801682748006806F01A
:1027B00087F80021399005F047FF13D23748007899
:1027C00070BB00214FF4B15001F040FD0C2234A148
:1027D00041F2506001F086FD0120354908702F4913
:1027E00008707AE02A4801681748006806F068F81F
:1027F0000021399006F028F85CD22848007878B992
:10280000002141F2106001F021FD0C2224A141F2CF
:10281000506001F067FD0120254908701F490870CC
:102820005BE000000000FA43C000002000002041EF
:10283000C40000200000F83FE0000020DC00002081
:10284000D8000020D0000020C80000206400002034
:102850000C040020A48B0008180200206C0000204B
:102860000C010020B8DFB6C8D7B4CCACB1A8BEAF5D
:10287000000000000801002034000020A404002013
:102880001401002040000020EC0000203C0000204B
:1028900074000020CC000020700000200D010020FA
:1028A000D0A1B3B5D0D0BDF8B1A8BEAF0000000034
:1028B00009010020FE480078012809D1012141F2D8
:1028C000106001F0C3FC01214FF4B15001F0BEFCD7
:1028D0000020F8490870F6490870F7488068F74901
:1028E0008968401A3990002801DB399801E039984D
:1028F000404204287EDDF048806800B201463990ED
:1029000041F2247001F0A2FCEB488068EB4988603A
:10291000E9488068EA490988401A379005F068FE5E
:102920003890E8480168389805F064FD3990E64829
:102930000168399805F0F0FCE44908600846006831
:1029400005F01AFE00EB8000400000B2014639900D
:1029500041F2455001F07AFC0021DC48006805F0A6
:1029600073FF11D8D948006805F006FE4FF4B47122
:1029700090FBF1F201FB120000B2014639904FF4D6
:10298000907001F063FC12E0D048006805F0F4FD9F
:1029900000F5B4604FF4B47190FBF1F201FB12004A
:1029A00000B2014639904FF4907001F04FFCC848D6
:1029B0000168C648006805F083FF379005F080FC89
:1029C00021F000410022C34BCDE9380105F042FC63
:1029D00051D8C148006805F073FCCDE93801BF4803
:1029E000006805F06DFCCDE93601BD48006805F0D2
:1029F00067FC00E089E0CDE93401B448006805F0E7
:102A00005FFCCDE93201B748006805F059FCCDE91B
:102A10003001B548006805F053FCCDE92E01B348FC
:102A2000006805F04DFCCDE92C01DDE93801CDE968
:102A30000C01DDE93601CDE90A01DDE93401CDE91A
:102A40000801DDE93201CDE90601DDE93001CDE91A
:102A50000401DDE92E01CDE90201DDE92C01A44AE2
:102A6000CDE90001A349A44803F0F2FFA249AFF267
:102A7000D86001F017FE95480068954908609F48A6
:102A8000B0F9000005F0B4FD39909048016839981C
:102A900005F0DAFE16D29A480078B0BB01209949B9
:102AA0000860002141F2306001F0D0FB0C2296A1B9
:102AB00041F2506001F016FC0120974908709049DE
:102AC00008703CE09548B0F9000005F091FD3990A0
:102AD0007E480168399805F0B7FD17D2884800781C
:102AE00098B901208749091D086000214FF4B250B0
:102AF00001F0ACFB0C2284A141F2506001F0F2FB2A
:102B00000120854908707E49087018E07C480078EB
:102B100001280FD100207B4908608149C1F8A0013C
:102B2000012141F2306001F091FB01214FF4B250DC
:102B300001F08CFB002078490870714908707948D1
:102B4000007801287ED102F0B8FB0020754908709A
:102B50004021754804F0C3F80821744801F084FA54
:102B6000642002F04CFAFDF73BFC40216E4804F073
:102B7000B6F807216E4801F077FA642002F03FFAB8
:102B8000FDF756FB6B48007810B94948007808B14A
:102B9000012000E0002000287ED1674967480068D6
:102BA00005F086FD349066480168349805F022FCF3
:102BB0006449359005F0B0FB369005F0F9FC80B221
:102BC000614939906148006805F072FD60493490B0
:102BD00005F010FC5F49359005F09EFB369005F03E
:102BE000E7FC80B2584938905848006805F060FD0D
:102BF0005749349005F0FEFB5749359005F08CFBA2
:102C0000369005F0D5FC80B23790399800905A2262
:102C10004FF40050DDE9371301F0B1FB4649474856
:102C2000006805F045FD339045480168339805F08C
:102C3000E1FB4A49349005F06FFB359005F0B8FC94
:102C400080B200E0F0E3404939904048006805F068
:102C50002FFD3F49339005F0CDFB4149349005F0FD
:102C60005BFB359005F0A4FC80B2334938903348C3
:102C7000006805F01DFD339031480168339805F078
:102C8000B9FB3049349005F047FB359005F090FCD6
:102C900080B22D49379000E075E02C48006805F0BF
:102CA00007FD2B49339005F0A5FB2E4934905BE0DE
:102CB0000D01002009010020A404002014010020BF
:102CC00050000020F00000204C000020D000002028
:102CD000D400002000002E40E0000020DC00002096
:102CE000D8000020C8000020C000002064000020A0
:102CF0000C040020A48B000818020020780000209B
:102D00000E0100209C812142B4F3B1DBBBD8D7AACD
:102D1000B1A8BEAF000000000A0100207A00002028
:102D200000802142FA010020300600200700002028
:102D3000000000200C01002000009643C400002089
:102D4000340000200000B44200008243CC00002088
:102D50000000484200000843000006430000DC4237
:102D6000000011430000FA4205F0D6FA359005F054
:102D70001FFC80B23690399800904FF4045036A969
:102D80000EC901F0FCFA02F08DF8359005F0BFF99C
:102D9000FD4AFE4BCDE9360105F034F8CDE93801A6
:102DA00005F088F9FA4908600846008801B241F246
:102DB000267001F04BFAF6480068F6490988884207
:102DC00003D2F4480088F2490860F1480068F149EC
:102DD0000988401A389005F023FC3990EE480168C4
:102DE000399805F007FBED490860ED49EB480068AC
:102DF00005F05EFC389005F0BFFB00B2014639904B
:102E000041F2505001F022FA0021E648006805F036
:102E10001BFD4CD2E448406801463990E148006807
:102E200005F012FC43D2DF480168DC48006805F079
:102E30003FFC3890DC48406801463790389805F0F0
:102E4000D9FA3990D848806B01463890399805F006
:102E5000D1FAD6490860D249D448006805F028FC68
:102E6000389005F089FB00B2014639904FF4AB5021
:102E700001F0ECF9CC48806B01463990C7480068F6
:102E800005F0E2FB05D20020C9490870C949087065
:102E90000DE00C22C8A141F2506001F023FAC448B1
:102EA000007820B90120C3490870C1490870BE48A4
:102EB000406801463990BB48006805F0C5FC4CD21B
:102EC000B948806801463990B648006805F0BCFBF7
:102ED00043D2B4480168B148006805F0E9FB389076
:102EE000B148806801463790389805F083FA3990E8
:102EF000AD48C06B01463890399805F07BFAAB4974
:102F00000860A749A948006805F0D2FB389005F091
:102F100033FB00B2014639904FF4AB5001F096F903
:102F2000A148C06B014639909C48006805F08CFBB5
:102F300005D200209E4908709E4908700DE00C22C1
:102F40009DA141F2506001F0CDF99948007820B977
:102F50000120984908709649087093488068014696
:102F600039909048006805F06FFC4CD28E48C068DC
:102F7000014639908B48006805F066FB43D28948CA
:102F800001688648006805F093FB38908648C06861
:102F900001463790389805F02DFA39908248006C38
:102FA00001463890399805F025FA804908607C4937
:102FB0007E48006805F07CFB389005F0DDFA00B231
:102FC000014639904FF4AB5001F040F97648006C5F
:102FD000014639907148006805F036FB05D20020A3
:102FE00073490870734908700DE00C2272A141F218
:102FF000506001F077F96E48007820B901206D49E2
:1030000008706B4908706848C06801463990654887
:10301000006805F019FC4CD26348006901463990FC
:103020006048006805F010FB43D25E4801685B48C9
:10303000006805F03DFB38905B4800690146379019
:10304000389805F0D7F939905748406C01463890C8
:10305000399805F0CFF9554908605149534800683F
:1030600005F026FB389005F087FA00B2014639904A
:103070004FF4AB5001F0EAF84B48406C01463990F0
:103080004648006805F0E0FA05D20020484908707B
:10309000484908700DE00C2247A141F2506001F050
:1030A00021F94348007820B901204249087040497D
:1030B00008703D480069014639903A48006805F0BB
:1030C000C3FB4CD238484069014639903548006806
:1030D00005F0BAFA43D2334801683048006805F079
:1030E000E7FA38903048406901463790389805F043
:1030F00081F939902C48806C01463890399805F058
:1031000079F92A49086026492848006805F0D0FA6C
:10311000389005F031FA00B2014639904FF4AB50C7
:1031200001F094F82048806C014639901B480068F3
:1031300005F08AFA05D200201D4908701D49087063
:103140000DE00C221CA141F2506001F0CBF81848B0
:10315000007820B9012017490870154908701248F5
:103160004069014639900F48006805F06DFB6ED24A
:103170000D488069014639900A48006805F064FAF4
:1031800065D2084801681FE02D431CEBE2368A40F7
:103190002001002060000020E400002064000020E6
:1031A00000007A44C80000203C010020D800002024
:1031B0000F0100200B010020B5F5B9B3B3ACD6D890
:1031C000B1A8BEAF00000000FE48006805F070FA2C
:1031D0003890FD48806901463790389805F00AF923
:1031E0003990F948C06C01463890399805F002F9D9
:1031F000F6490860F649F548006805F059FA389034
:1032000005F0BAF900B2014639904FF4AB5001F025
:103210001DF8ED48C06C01463990EA48006805F099
:1032200013FA05D20020EB490870EB4908700EE054
:103230000C22AFF27C0141F2506001F053F8E548F6
:10324000007820B90120E4490870E2490870DE489E
:10325000806901463990E148006805F0F5FA4DD2E1
:10326000D948C06901463990DC48006805F0ECF99E
:1032700044D2DA480168D348006805F019FA38905A
:10328000D148C06901463790389805F0B3F83990B5
:10329000CD48006D01463890399805F0ABF8CB4920
:1032A0000860CB49C948006805F002FA389005F07B
:1032B00063F900B2014639904FF4AB5000F0C6FFFD
:1032C000C148006D01463990BE48006805F0BCF960
:1032D00005D20020BF490870BF4908700EE00C22DB
:1032E000AFF22C1141F2506000F0FCFFB9480078B9
:1032F00020B90120B8490870B6490870B248C069C1
:1033000001463990B548006805F09EFA4DD2AE48A6
:10331000006A01463990B148006805F095F944D239
:10332000AE480168A748006805F0C2F93890A64881
:10333000006A01463790389805F05CF83990A24849
:10334000406D01463890399805F054F89F4908605F
:103350009F499E48006805F0ABF9389005F00CF9DC
:1033600000B2014639904FF4AB5000F06FFF964821
:10337000406D014639909348006805F065F905D223
:10338000002094490870944908700EE00C22AFF2B6
:10339000D81141F2506000F0A5FF8E48007820B9A6
:1033A00001208D4908708B4908708748006A0146E2
:1033B00039908A48006805F047FA45D28848016884
:1033C0008048006805F074F938907F48006A01462B
:1033D0003790389805F00EF839907B48406D0146DB
:1033E0003890399805F006F87849086078497748A8
:1033F000006805F05DF9389005F0BEF800B20146AE
:1034000039904FF4AB5000F021FF6F48406D0146FA
:1034100039906C48006805F017F906D200206D4914
:1034200008706D4908700FE072E00C22AFF278214D
:1034300041F2506000F056FF6648007820B9012044
:1034400065490870634908706248007870B965483A
:10345000007858B96448007840B96448007828B9C1
:103460006348007810B96348007808B1012000E093
:10347000002028B90C2260A141F2506000F032FF18
:103480005448007828B95A48007810B9594800784B
:1034900008B1012000E0002060BB524800780128FC
:1034A0000AD159480078022806D10C22AFF64C41C7
:1034B00041F2506000F016FF4B48007801280AD115
:1034C00051480078042806D10C22AFF62C4141F275
:1034D000506000F007FF4548007801280AD14A48AB
:1034E0000078062806D10C22AFF2E47141F2506058
:1034F00000F0F8FE44480078062802D10020424936
:10350000087041480078401C3F49087001F0C8FE2F
:103510003E48007870B93E48007858B93D48007878
:1035200040B93D48007828B93C48007810B92A488D
:10353000007808B1012000E00020012878D133484C
:103540000078012875D13648006804F0B9FECDE94D
:1035500038013448006804F0B3FECDE936011B4859
:10356000006804F0ADFECDE934012F48006804F096
:10357000A7FECDE932011948006804F0A1FECDE9AB
:1035800030012A48006804F09BFECDE92E010D4869
:10359000006804F095FECDE92C01DDE93801CDE9A4
:1035A0000C01DDE93601CDE90A01DDE93401CDE99F
:1035B0000801DDE93201CDE90601DDE93001CDE99F
:1035C000040137E0640000203C010020D800002006
:1035D00000007A440F0100200B010020C8000020E9
:1035E000740000200C0100200D0100200E010020BD
:1035F0001001002011010020202020202020202068
:1036000020202020000000001C00002004010020D9
:103610000601002008010020090100200A01002005
:10362000E0000020DC000020D0000020C0000020CE
:10363000BDE110E0DDE92E01CDE90201DDE92C015B
:10364000E44ACDE90001E449E44803F001FAE34922
:10365000E3A001F027F8E348007801284ED1E248C2
:10366000006804F02DFECDE93801E048006804F060
:1036700027FECDE93601DE48006804F021FECDE9E1
:103680003401DC48006804F01BFECDE93201DA4861
:10369000006804F015FECDE93001D848006804F058
:1036A0000FFECDE92E01D648006804F009FECDE9F1
:1036B0002C01DDE93801CDE90C01DDE93601CDE968
:1036C0000A01DDE93401CDE90801DDE93201CDE986
:1036D0000601DDE93001CDE90401DDE92E01CDE986
:1036E0000201DDE92C01BB4ACDE90001C549BB4817
:1036F00003F0AEF9B949BAA000F0D4FFC24800788F
:1037000001284ED1B848006804F0DAFDCDE938014F
:10371000B648006804F0D4FDCDE93601B44800682D
:1037200004F0CEFDCDE93401B248006804F0C8FDD4
:10373000CDE93201B048006804F0C2FDCDE93001A6
:10374000AE48006804F0BCFDCDE92E01AC4800682D
:1037500004F0B6FDCDE92C01DDE93801CDE90C011D
:10376000DDE93601CDE90A01DDE93401CDE90801E1
:10377000DDE93201CDE90601DDE93001CDE90401E1
:10378000DDE92E01CDE90201DDE92C01914ACDE907
:1037900000019E49914803F05BF9904990A000F028
:1037A00081FF9B48007801284ED18F48006804F0C3
:1037B00087FDCDE938018D48006804F081FDCDE931
:1037C00036018B48006804F07BFDCDE9340189485F
:1037D000006804F075FDCDE932018748006804F007
:1037E0006FFDCDE930018548006804F069FDCDE941
:1037F0002E018348006804F063FDCDE92C01DDE96A
:103800003801CDE90C01DDE93601CDE90A01DDE938
:103810003401CDE90801DDE93201CDE90601DDE938
:103820003001CDE90401DDE92E01CDE90201DDE938
:103830002C01684ACDE900017649684803F008F98F
:10384000664967A000F02EFF7348007801284ED12A
:103850006548006804F034FDCDE93801634800682C
:1038600004F02EFDCDE936016148006804F028FD22
:10387000CDE934015F48006804F022FDCDE9320152
:103880005D48006804F01CFDCDE930015B4800682C
:1038900004F016FDCDE92E015948006804F010FD32
:1038A000CDE92C01DDE93801CDE90C01DDE9360176
:1038B000CDE90A01DDE93401CDE90801DDE9320194
:1038C000CDE90601DDE93001CDE90401DDE92E0194
:1038D000CDE90201DDE92C013E4ACDE900014F4965
:1038E0003E4803F0B5F83D493DA000F0DBFE4C48F2
:1038F000007801284ED13C48006804F0E1FCCDE995
:1039000038013A48006804F0DBFCCDE9360138485C
:10391000006804F0D5FCCDE934013648006804F0B5
:10392000CFFCCDE932013448006804F0C9FCCDE990
:1039300030013248006804F0C3FCCDE92E01304864
:10394000006804F0BDFCCDE92C01DDE93801CDE9CA
:103950000C01DDE93601CDE90A01DDE93401CDE9EB
:103960000801DDE93201CDE90601DDE93001CDE9EB
:103970000401DDE92E01CDE90201DDE92C01154A42
:10398000CDE900012749154803F062F8134914A056
:1039900000F088FE002024490870124908701A4976
:1039A00008701B4908701C4908701D4908701F48A1
:1039B0000078012805D11E4908601E49C1F8980108
:1039C00005E000201A4908601A49C1F89801FEF77D
:1039D00044BB00000C040020548A00081802002098
:1039E0002573000006010020E0000020DC0000201C
:1039F000D8000020D0000020C8000020C000002017
:103A000064000020FC8A000808010020848D000862
:103A100009010020788F00080A010020288E000884
:103A20000B010020D08E0008040100200F010020AF
:103A30009481214200802142704700BFFEE700BF11
:103A4000FEE700BFFEE700BFFEE770477047704724
:103A5000704700000CB50020019000906C48006891
:103A600040F480306A49086000BF6948006800F48B
:103A7000003000900198401C0190009818B90198FE
:103A8000B0F5A06FF1D16248006800F4003010B1C9
:103A90000120009001E0002000900098012843D10F
:103AA0005C48006840F010005A4908600846006809
:103AB00020F0030008600846006840F0020008603B
:103AC0005348406852494860084640684860084684
:103AD000406840F4806048600846406820F47C10EC
:103AE00048600846406840F4E810486008460068AE
:103AF00040F08070086000BF4548006800F000702A
:103B00000028F9D04248406820F00300404948604E
:103B10000846406840F00200486000BF3C484068EA
:103B200000F00C000828F9D10CBD10B5FFF792FF8A
:103B300010BD10B53648006840F0010034490860F7
:103B400008464068344908403149486008460068E2
:103B5000324908402E4908600846006820F4802059
:103B600008600846406820F4FE0048604FF41F00DB
:103B70008860FFF7DAFF4FF000602949086010BD48
:103B800010B5002100200022214B5B6803F00C01DE
:103B900021B1042906D0082928D107E0214B224C65
:103BA000236027E01F4B204C236023E0184B5B6809
:103BB00003F47010164B5B6803F48032022303EBAE
:103BC000904022B9194B4343174C23600DE0104B32
:103BD0005B6803F4003323B1144B4343124C23605E
:103BE00003E0104B4343104C236003E00D4B0E4C9D
:103BF000236000BF00BF064B5B68C3F303130C4C8C
:103C0000E15C094B1B68CB40074C236010BD0000F2
:103C100000100240002002400000FFF8FFFFF6FE07
:103C200008ED00E000127A002401002000093D00A8
:103C30002801002008B50121242001F04DFF4FF498
:103C40008070ADF8000010208DF8030003208DF87F
:103C500002006946134801F083FC4FF4807111485B
:103C600001F02BFD0420ADF8000069460E4801F07C
:103C700077FC04210C4801F020FD08BD08B50121A6
:103C8000082001F029FF4FF4F070ADF8000010207B
:103C90008DF8030003208DF802006946034801F007
:103CA0005FFC08BD0008014000140140000C014009
:103CB00008B50121102001F00FFF0720ADF800002A
:103CC00000208DF803006946444801F049FC08BD16
:103CD00000B591B00121480201F0FEFE0121084625
:103CE00001F0EDFE3E4802F0F5FB3E4801903E48F3
:103CF000029000200390C0200490002005908020B6
:103D00000690400007908000089020200990000253
:103D10000A9000200B9001A9314802F07DFC01219E
:103D20002F4802F0A4FC00200C9001208DF83400F4
:103D30008DF835004FF460200E9000200F90032086
:103D40008DF840000CA927484C3802F0C2F94FF416
:103D5000404001F025FE052301220A2121484C386C
:103D600002F04FFA052302220B211E484C3802F0C4
:103D700048FA052303220C211A484C3802F041FA74
:103D8000012118484C3802F0DBF9012115484C3864
:103D900002F0CBF913484C3802F0E9F900BF1148A2
:103DA0004C3802F0E9F90028F9D10E484C3802F0FD
:103DB000EDF900BF0B484C3802F0EDF90028F9D1BD
:103DC000012108484C3802F0F0F911B000BD10B5DF
:103DD000FFF76EFFFFF77CFF10BD000000100140F1
:103DE000080002404C240140B004002010B5002817
:103DF00007DA0A07140EBC4A00F00F031B1FD45445
:103E000003E00A07130EB94A135410BDF0B5034678
:103E10000C4603F00701C1F10700042801D9042072
:103E200001E0C1F107000646081D072801D2002065
:103E300000E0C81E05460120B040401E2040A840BA
:103E40000127AF407F1E17403843F0BD70B50446D0
:103E50000D46A748C06940F01000A549C861A548B3
:103E600005858485008840F08000A24908800846C6
:103E7000808A40F0010088824FF6FE700882084672
:103E8000808940F001008881022211460520FFF759
:103E9000BDFF064631463620FFF7A8FF362000F06A
:103EA00018F970BD2DE9F05F04460D469248444371
:103EB0008F48806940F008008D4988618F4800680C
:103EC00020F470608D4908600846006840F4306056
:103ED00008600846006820F47040086008460068E2
:103EE00040F40040086085480830006840F40060F5
:103EF0008249083108607E48C06940F480207C49CE
:103F0000C8610846006940F48020086108460069DD
:103F100020F4802008617A48008840F400507849F5
:103F200008800846008820F480500880081D00881A
:103F300020F44050091D0880284604F071FB824699
:103F4000204604F06DFB8346514604F053FA814647
:103F50004FF0834104F04EFA0646304604F028FB49
:103F600087B2384604F05CFB8346314604F09DFC82
:103F700082464FF0834104F09BFB814604F018FB1E
:103F8000804608EB07105E49091F0880022211468F
:103F90000520FFF73BFF814649462720FFF726FF14
:103FA000272000F096F85648008840F02000544939
:103FB00008800846008840F008000880084600880D
:103FC00040F00400088041F61F416320FFF73EFFE8
:103FD000BDE8F09F0020474988840846008840F0EB
:103FE000010008807047002042498884704700B56E
:103FF00043480C38008800F02000D0B14048083811
:104000000088C2B23F48007840280FDAFFF7EBFF84
:104010003D48007808B9FFF7DDFF3A48017800789D
:10402000401C384B18703948425402E00120364990
:10403000087000BD0146002000BF04E0334A125C56
:104040000A54421CD0B22F4A12789042F6DB7047D5
:1040500000BF2B490C39098801F040010029F8D034
:10406000274908390880704710B5024600200DE046
:1040700000BF234B0C3B1B8803F04003002BF8D000
:10408000135C1F4C083C2380431CD8B28842EFDBF2
:1040900010BD1848008820F00100164908807047BC
:1040A00000EB80014904090C124A9185704700B564
:1040B0001048008A00F0010050B101201249087038
:1040C0000C48008A20F001000A490882FFF7E1FF4E
:1040D00000BD00F01F02012191404209920002F14F
:1040E000E022C2F80011704718ED00E000E400E0A3
:1040F000001002400010004040420F00040C01403C
:104100000C48004039010020380100203006002012
:1041100010B5FE48008800F02000F0B1FB48001DFB
:104120000088C4B2FA480088C82810DA0020F9498B
:104130000880F748008808B901F03EF9F448018882
:104140000088401CF24A1080F348445405E0F048CF
:10415000008840F40040EE49088010BD10B586B0DC
:1041600004460121112001F0B7FC0121C80401F02F
:10417000C0FC4FF48060ADF8140018208DF81700D3
:1041800003208DF8160005A9E44801F0E9F94FF481
:104190000060ADF8140048208DF8170005A9DF482D
:1041A00001F0DEF901940020ADF80800ADF80A0036
:1041B000ADF80C00ADF810000C20ADF80E0001A910
:1041C000D24801F030FD34208DF8000002208DF837
:1041D00001008DF8020001208DF80300684601F00F
:1041E000E8FE012240F22551C84801F0B4FD01214A
:1041F000C64801F0A4FD41F61F41632001F0A4F878
:104200000020C349088001F0E4F806B010BD00BFEB
:10421000BE49098801F040010029F9D0BB49091DB8
:104220000880704710B5024600200CE000BFB74B75
:104230001B8803F04003002BF9D0135CB34C241D02
:104240002380431CD8B28842F0DB10BD30B5044651
:104250000D460020B24908705A21B1480278007812
:10426000401CAF4B1870AF488154A5221846017806
:104270000078401C1870AB4842540522184601785B
:104280000078401C1870A7484254822218460178D2
:104290000078401C1870A348425421121846027836
:1042A0000078401C18709F488154184601780078A7
:1042B000401C18709B484454C5F3072118460278E7
:1042C0000078401C1870974881541846017800788F
:1042D000401C187093484554184601789148FFF7E0
:1042E000A1FF30BDF0B504460F46154600208C49AD
:1042F00008705A218A4802780078401C884B187050
:1043000088488154A521184602780078401C18700E
:1043100084488154E81CC1B2184602780078401CD9
:104320001870804881548221184602780078401C19
:1043300018707C4881542112184602780078401C7D
:10434000187078488154184602780078401C18701C
:104350007448845400260AE0B95D714802780078F8
:10436000401C6F4B18706F488154701CC6B2AE422F
:10437000F2DB6B4801786B48FFF754FFF0BD2DE985
:10438000F04104460D4616461F46DDF81880002011
:10439000634908705A21624802780078401C604BDB
:1043A000187060488154A521184602780078401C96
:1043B00018705C4881541121184602780078401C1E
:1043C0001870584881548221184602780078401CA1
:1043D0001870544881542112184602780078401C05
:1043E000187050488154184602780078401C1870A4
:1043F0004C4884540021184602780078401C1870FC
:10440000484881540421184602780078401C1870EE
:10441000444881540022184601780078401C1870E6
:10442000404842540121184602780078401C187018
:104430003C4881542912184602780078401C1870B4
:1044400038488154184602780078401C1870354866
:1044500085543212184601780078401C1870314893
:104460004254184601780078401C18702D48465474
:104470003912184602780078401C18702948815477
:10448000184602780078401C1870264887544FEA76
:104490002821184602780078401C18702148815461
:1044A000184602780078401C18701E4800F80280F8
:1044B0000421184602780078401C1870194881546D
:1044C0001F21184602780078401C18701548815446
:1044D000184601781348FFF7A5FEBDE8F08110B536
:1044E0001148006802F0DCFBC4B222460E480168A5
:1044F0004FF48850FFF7F6FE642000F080FD0B4873
:10450000006802F0CDFBC4B2224611E0004C00402E
:10451000E601002024080040B00600200010014001
:10452000E401002078070020D8010020DC010020F1
:104530000A48016841F22710FFF7D4FE642000F01A
:104540005EFD0748006802F0ABFBC4B22246044897
:10455000016841F24E10FFF7C5FE10BDDC010020DE
:10456000E001002010B586B004460121080501F0E5
:10457000C0FA0121302001F0AFFAF74801F010FB3A
:104580004FF48050ADF8140001208DF8160018206B
:104590008DF8170005A9F14800F0E2FF0420ADF8FE
:1045A00014008DF8170005A9ED4800F0D9FF35205B
:1045B0008DF8000002208DF801008DF80200012026
:1045C0008DF80300684601F0F4FC01940020ADF87A
:1045D0000800ADF80A00ADF80C00ADF810000C2092
:1045E000ADF80E0001A9DC4801F01DFB012240F2EC
:1045F0002551D94801F0AFFB0121D74801F09FFBBD
:1046000006B010BD0020D7490880D648243800885D
:1046100040F00100D3492439088070470020D14977
:104620000880704700B5CC48008800F02000E8B151
:10463000C9488088C2B2CC480088B0F5806F0FDAD4
:10464000FFF7ECFFC848008808B9FFF7DBFFC64852
:1046500001880088401CC44B1880C448425405E0BF
:10466000C148008840F40040BF49088000BD00BF39
:10467000B949098801F040010029F9D0B64988807C
:10468000704700B5024603E01078FFF7F0FF521CB8
:1046900010780028F8D100BD00B502461046FFF79B
:1046A000E6FF00BD0FB42DE9F04186B00DA80090E3
:1046B00081E00C9800785C281BD10C98401C0C9071
:1046C0000C9800786E2808D072280DD10D20FFF7C5
:1046D000CEFF0C98401C0C900AE00D20FFF7C7FF9E
:1046E0000C98401C0C9003E00C98401C0C9000BFF0
:1046F00061E00C980078252857D10C98401C0C904C
:104700000C980078642804D066281BD0732847D101
:1047100037E0009850F8048B0090424694A101A81D
:1047200002F096F9002404E001A9085DFFF7B4FF48
:10473000641C01A802F0B4FAA042F5D80C98401C01
:104740000C9031E00098C01D20F007000090D0E9E7
:1047500000670830009032463B4686A101A802F06F
:1047600077F9002404E001A9085DFFF795FF641CB8
:1047700001A802F095FAA042F5D80C98401C0C90C4
:1047800012E0009820C8009003E015F8010BFFF735
:1047900083FF28780028F8D10C98401C0C9003E087
:1047A0000C98401C0C9000BF05E00C9911F8010B0F
:1047B0000C91FFF771FF0C98007800287FF479AF17
:1047C00006B0BDE8F0015DF814FB2DE9F0416A4840
:1047D000C06940F020006849C861624824380088F8
:1047E00040F080005F49243908800846008840F086
:1047F000080008800846008840F004000880084649
:10480000008820F002000880372005220224254677
:104810001346C3F1070CBCF1040F02D94FF0040C8E
:1048200001E0C3F1070C674603F1040CBCF1070F6C
:1048300002D24FF0000C01E0A3F1030C66464FF0EA
:10484000010C0CFA07FCACF1010C0CEA040C0CFA9C
:1048500006FC4FF0010808FA06F8A8F1010808EA7A
:1048600005084CEA080100BF002807DA0A07140E01
:10487000424A00F00F031B1FD45403E00A07130E33
:104880003F4A135400BF372000F01F02012191401E
:104890004209920002F1E022C2F8001100BF314843
:1048A0001838008840F001002E491839088041F678
:1048B0001F402C49091D08806320091D08802948D4
:1048C0001038008840F00100264910390880BDE802
:1048D000F08110B54FF4E130FFF744FEFFF775FFAC
:1048E00010BD70B504460D462946204602F0C6F9B3
:1048F00008B1002070BD4FF0FF30FBE770B50446F3
:1049000000251948008800F4004058B100201649DD
:104910000988C1F30E01154A50542146104602F091
:10492000ADF90546284670BD2DE9F04104460E4616
:104930001546002700200C49088001201149087005
:10494000FF2C02D804498C8003E021460EA0FFF71B
:10495000A9FEA6B39DB32BE000500040001001401B
:104960000014014024140040EA010020400C002003
:1049700025640000256600000010024018ED00E0EC
:1049800000E400E0E801002025730D0A00000000AB
:104990000B2000F034FB2448008800F4004038B1BC
:1049A0003046FFF7ABFF00B106E000201E4908804B
:1049B000681E80B2051EEBD100BF05B9012700209B
:1049C00019490880194908703846BDE8F08118482F
:1049D000008820F0010016490880704700EB800134
:1049E0004904090C124A2C321180704710B5104846
:1049F0001030008800F00100A0B10D481030008890
:104A000020F001000A49103108800748008840F46E
:104A1000004005490880FFF7DAFF034801780548A0
:104A200000F0AAFB10BD0000EA010020E801002010
:104A300000140040400C002070B50546002405E03D
:104A4000601CC4B2C82C01DD002070BD02212F48BB
:104A500001F0B9FF0028F3D029462C4801F060FF8F
:104A6000002405E0601CC4B2C82C01DD0020ECE786
:104A70000121264801F0A7FF0028F3D0234801F0C8
:104A800051FFC0B2E1E708B5012141F2040001F095
:104A900023F8E020ADF8000018208DF80300032073
:104AA0008DF8020069461A4800F05AFDE0211848C6
:104AB00000F003FE0020174908804FF48270488000
:104AC000002088800220C88001200881400248819F
:104AD000382088810020C881072008820B4801F017
:104AE00049FE0121094801F0EAFEFF20FFF7A4FF7B
:104AF00008BD10B50446074884810146034801F00B
:104B000039FE0121014801F0DAFE10BD00300140FC
:104B1000000801404010002010B500240020CB49BF
:104B200008609020FFF788FF0020FFF785FF002036
:104B3000FFF782FF0020FFF77FFFFF20FFF77CFFDA
:104B400044EA0024FF20FFF777FF04430120C04917
:104B5000C1F88801204610BD08B50121042000F0ED
:104B6000BBFF1C20ADF8000010208DF803000320CF
:104B70008DF802006946B74800F0F2FC1C21B548E8
:104B800000F09BFDFFF77FFF0820FFF7B2FFFFF764
:104B9000C3FFB149088008BD10B500240020AB490F
:104BA00008600520FFF748FFFF20FFF745FF044698
:104BB0000120A749C1F88801204610BD10B5044660
:104BC0000020A24908600120FFF736FF2046FFF7CA
:104BD00033FF01209E49C1F8880110BD10B50020A7
:104BE0009A4908600620FFF727FF01209849C1F87D
:104BF000880110BD10B50020944908600420FFF71B
:104C00001BFF01209249C1F8880110BD2DE9F04138
:104C100006460C46174600208C4908600320FFF723
:104C20000BFFC4F30740FFF707FFC4F30720FFF7AC
:104C300003FFE0B2FFF700FF002505E0FF20FFF7CC
:104C4000FBFE7055681C85B2BD42F7DB01207F4931
:104C50000860BDE8F08110B500BFFFF79DFF00F0D0
:104C600001000028F9D110BD2DE9F04106460C469F
:104C70001746FFF7B3FF0020744908600220FFF7D2
:104C8000DBFEC4F30740FFF7D7FEC4F30720FFF7AE
:104C9000D3FEE0B2FFF7D0FE002504E0705DFFF721
:104CA000CBFE681C85B2BD42F8DB01206749086075
:104CB000FFF7D1FFBDE8F0812DE9F04107460E4630
:104CC0001446F0B2C0F58075AC4200DC254612E017
:104CD0002A4631463846FFF7C7FFAC4200D10BE009
:104CE0002F442E44601B84B2B4F5807F02DD4FF464
:104CF000807500E02546EBE700BFBDE8F08110B508
:104D000004462403FFF76AFFFFF7A5FF00204F4981
:104D100008602020FFF790FEC4F30740FFF78CFEE9
:104D2000C4F30720FFF788FEE0B2FFF785FE0120FD
:104D30004749C1F88801FFF78EFF10BD2DE9F04704
:104D400081460F4616464FEA1738C7F30B0ACAF5D5
:104D50008054A64200DC344644E04FEA08314FF468
:104D600080523E48FFF752FF002508E00AEB05009D
:104D70003A49085CFF2800D003E0681C85B2A542D0
:104D8000F4DB00BFA54216DA4046FFF7B8FF002566
:104D900007E019F8050005EB0A01304A5054681C79
:104DA00085B2A542F5DB4FEA08314FF480522B481B
:104DB000FFF782FF04E0224639464846FFF77CFFB2
:104DC000A64200D10FE008F101084FF0000AA1440B
:104DD0002744301B86B2B6F5805F02DD4FF4805465
:104DE00000E03446B9E700BFBDE8F08710B5FFF733
:104DF000F5FEFFF730FF002014490860C720FFF7D9
:104E00001BFE01201249C1F88801FFF724FF10BDE5
:104E100010B500200D490860B920FFF70DFE0120F4
:104E20000B49C1F88801032000F0A1F810BD10B5AE
:104E3000002006490860AB20FFF7FEFD0120044971
:104E4000C1F88801032000F092F810BD88012142CA
:104E50000000214200080140EC0100205210002017
:104E600008B50121042000F037FE4FF40060ADF8D2
:104E7000000010208DF8030003208DF80200694621
:104E80002D4800F06DFB4FF48050ADF80000042079
:104E90008DF8030003208DF802006946264800F0D3
:104EA0005FFB08BD70B5002400254FF480512248F7
:104EB00000F003FC4FF400611F4800F000FC00BF4D
:104EC0004FF480511C4800F0DEFB0028F8D101208F
:104ED00000F04DF8002519E04FF40061164800F08D
:104EE000ECFB6400012000F042F84FF4006112482E
:104EF00000F0E5FB4FF480510F4800F0C4FB00B117
:104F0000641C012000F033F8681CC5B2182DE3DBE7
:104F10004FF40061084800F0D0FB84F40004012045
:104F200000F025F84FF40061034800F0C8FB0120B1
:104F300000F01DF8204670BD0008014010B56FF06C
:104F4000040001F080F83C4800683C49B0FBF1F0F7
:104F50003B4908700846007800EB4001C1EBC010E7
:104F60004FF6FF7101EAC0003649088010BD0146C6
:104F7000334A12784A434FF0E0235A6100229A6183
:104F80001A46126942F001021A6100BF4FF0E02296
:104F9000106900F001021AB100F48032002AF5D045
:104FA0004FF0E022126922F001024FF0E0231A6173
:104FB00000229A6170470146224A12884A434FF004
:104FC000E0235A6100229A611A46126942F00102F6
:104FD0001A6100BF4FF0E022106900F001021AB11F
:104FE00000F48032002AF5D04FF0E022126922F05E
:104FF00001024FF0E0231A6100229A61704770B5F8
:1050000004464FF47A7094FBF0F0C6B24FF47A7015
:1050100094FBF0F100FB114085B205E04FF47A708B
:10502000FFF7C9FF701EC6B2002EF7D115B1284692
:10503000FFF7C1FF70BD00002401002000127A00BC
:10504000EE010020F0010020014600BF704700BFC4
:10505000534A128802F04002002AF9D0C2B2504BE3
:105060001B1D1A80704710B586B00446012144F21A
:10507000040000F031FD4FF40070ADF8140003207F
:105080008DF8160018208DF8170005A9454800F086
:1050900067FA4FF48060ADF8140004208DF8170013
:1050A00005A9404800F05CFA25208DF80000032097
:1050B0008DF801008DF8020001208DF8030068468C
:1050C00000F077FF01940020ADF80800ADF80A0069
:1050D000ADF80C00ADF810000C20ADF80E0001A9E1
:1050E0002F4800F0A0FD012240F225512C4800F08D
:1050F00032FE01212A4800F022FE06B010BD10B594
:1051000040F22551264800F00BFF10B3244800F070
:1051100087FEC4B22448008800F40040C8B9224881
:10512000008800F4804060B10A2C03D000201E49A2
:10513000088020E01C48008840F400401A4908809C
:1051400019E00D2C06D11848008840F4804016491B
:10515000088010E014480088C0F30D0013490C5477
:1051600011480088401C1049088008460088C7285C
:1051700001DD0020088010BD10B5024600200CE0C3
:1051800000BF074B1B8803F04003002BF9D0135CD2
:10519000034C241D2380431CD8B28842F0DB10BD91
:1051A0000038014000080140F80100205220002092
:1051B000014601F007029D4B18684FF6FF031840A7
:1051C0009B4B034343EA0220984B1860704710B58D
:1051D000002808DA0A07140E944A0C3200F00F0374
:1051E0001B1FD45403E00A07130E924A135410BD38
:1051F000F0B503460C4603F00701C1F1070004288F
:1052000001D9042001E0C1F107000646081D072866
:1052100001D2002000E0C81E05460120B040401E1B
:105220002040A8400127AF407F1E17403843F0BD03
:1052300070B504460D468048C06940F002007E49C2
:10524000C8617E480480001D05807C48283800889D
:1052500040F080007949283908807848143800885F
:1052600040F001007549143908804FF6FE70091F9F
:105270000880081F008840F00100091F08800520F1
:10528000FFF796FF022211460520FFF7B1FF064601
:1052900031461D20FFF79BFF1D2000F0BBF870BDBD
:1052A00000206649091F088064482838008840F0BB
:1052B0000100624928390880704760482838008812
:1052C00020F001005D492839088070475B48183894
:1052D000008800F00100002835D0584818380088B0
:1052E00020F0010055491839088055480088401CB5
:1052F0005349088053480088401C5249088052484E
:105300000088401C504908804D4800880A2805DB69
:1053100000204B49088001204C490870494800880A
:10532000B0F5967F05DB00204649088001204849FA
:10533000087045480088022805DB002042490880A3
:10534000012044490870704770B504460D463A483C
:10535000C06940F004003849C8613F480480001D1E
:1053600005803D482838008840F080003A492839B7
:10537000088039481438008840F001003649143953
:1053800008804FF6FE70091F0880081F008840F053
:105390000100091F08800520FFF70AFF02221146BD
:1053A0000520FFF725FF064631461E20FFF70FFFB9
:1053B0001E2000F02FF870BD00202749091F08802B
:1053C00025482838008840F0010023492839088002
:1053D000704721482838008820F001001E492839EC
:1053E0000880704700B51C481838008800F001009C
:1053F00078B11A48008840F40040184908801648DF
:105400001838008820F00100134918390880FFF788
:10541000E0FF00BD00F01F0201219140420992000F
:1054200002F1E022C2F80011704700000CED00E02C
:105430000000FA0500E400E00010024028040040EB
:10544000FE0100200002002002020020FA010020DC
:10545000FB010020FC01002028080040E60100209C
:105460000948804709480047FEE7FEE7FEE7FEE7F8
:10547000FEE7FEE7FEE7FEE7FEE7FEE70448054934
:10548000054A064B70470000333B00083101000815
:1054900080210020802700208023002080230020FE
:1054A00010B50446CC48844208D10121042000F004
:1054B0002DFB0021042000F029FB46E0C748844270
:1054C00008D10121082000F021FB0021082000F074
:1054D0001DFB3AE0C248844208D10121102000F0AF
:1054E00015FB0021102000F011FB2EE0BD48844286
:1054F00008D10121202000F009FB0021202000F02C
:1055000005FB22E0B848844208D10121402000F088
:10551000FDFA0021402000F0F9FA16E0B348844279
:1055200008D10121802000F0F1FA0021802000F054
:10553000EDFA0AE0AE48844207D10121801500F05F
:10554000E5FA0021A01500F0E1FA10BD10B5012127
:10555000084600F0DBFA0021012000F0D7FA10BD68
:105560002DE9F041024600250026002000230024FA
:10557000002791F803C00CF00F0591F803C00CF060
:10558000100CBCF1000F03D091F802C04CEA0505E5
:1055900091F800C0BCF1000F31D0146800202BE05E
:1055A0004FF0010C0CFA00F3B1F800C00CEA03064E
:1055B0009E4220D183004FF00F0C0CFA03F7BC433E
:1055C00005FA03FC4CEA040491F803C0BCF1280F6F
:1055D00006D14FF0010C0CFA00FCC2F814C00AE02E
:1055E00091F803C0BCF1480F05D14FF0010C0CFA43
:1055F00000FCC2F810C0401C0828D1D31460B1F8D8
:1056000000C0BCF1FF0F34DD546800202EE000F133
:10561000080C4FF0010808FA0CF3B1F800C00CEACE
:1056200003069E4221D183004FF00F0C0CFA03F7C2
:10563000BC4305FA03FC4CEA040491F803C0BCF136
:10564000280F05D100F1080C08FA0CF8C2F81480F4
:1056500091F803C0BCF1480F07D100F1080C4FF0DE
:10566000010808FA0CF8C2F81080401C0828CED3B4
:105670005460BDE8F0814FF6FF7101800221817016
:105680000421C17070470246002093680B400BB1A3
:10569000012000E0002070470146886880B2704712
:1056A00002460020D3680B400BB1012000E000202F
:1056B00070470146C86880B2704701617047416118
:1056C00070470AB1016100E041617047C1607047F5
:1056D0004FF480320A43826181618261826982690A
:1056E000704702460020434B18684FF680731840FD
:1056F00040EA021008433F4B186070473E49C861BA
:105700007047F0B50A46002300240021002500F070
:105710000046B6F1004F02D1364EF16901E0354E38
:105720007168C0F3034583B200F44016B6F5401F1C
:1057300008D121F070612F4E766826F070662D4FEB
:105740007E6012E000F48016B6F5801F06D10326B5
:1057500006FA05F4A14341F0706106E0460D3601FA
:1057600003FA06F6B14341F0706122B1460D3601ED
:1057700003FA06F6314300F00046B6F1004F02D1BD
:105780001C4EF16101E01B4E7160F0BD30B500228E
:105790008B071C0F0F2303FA04F2164B08338C10EF
:1057A00053F824309343134C08348D1044F82530BB
:1057B00023468C1053F824308C07240F00FA04F48D
:1057C00023430C4C08348D1044F8253030BD0A4971
:1057D000DC3108607047000000080140000C014007
:1057E000001001400014014000180140001C01405D
:1057F000002001400000014000002042DF48006816
:1058000040F00100DD49086008464068DC49084076
:10581000DA49486008460068DA490840D749086014
:105820000846006820F4802008600846406820F49C
:10583000FE0048604FF41F0088607047CF49096838
:1058400021F48031CD4A11601146096821F480218C
:105850001160B0F5803F03D0B0F5802F0ED106E087
:10586000C649096841F48031C44A116007E0C34960
:10587000096841F4A021C14A116000E000BF00BFE7
:10588000704710B501460022002300204A11012A6A
:1058900002D1BA4C236806E0022A02D1B74C236A2F
:1058A00001E0B64C636A01F01F02012494401C40E1
:1058B0000CB1012000E0002010BD38B500200090A0
:1058C0000024002500BF3120FFF7DBFF05460098CC
:1058D000401C00900098B0F5A06F01D0002DF2D0D0
:1058E0003120FFF7CEFF08B1012400E0002420465C
:1058F00038BD01460020A14A106820F0F80040EAB7
:10590000C10010607047A04908607047024600203F
:105910009A4B586820F47C1042EA01031843974BD5
:105920005860704798490866704701460020934ABE
:10593000506820F003000843506070478F4840686B
:1059400000F00C007047014600208C4A506820F09F
:10595000F00008435060704701460020874A5068B5
:1059600020F4E06008435060704701460020834AFD
:10597000506820F4605040EAC1005060704729B17F
:105980007E4A527A02437D4B5A7204E07B4A527A35
:1059900082437A4B5A7270477B49D831086070470E
:1059A00001460020754A506820F44040084350608A
:1059B00070470021714A20321170704A82F820101D
:1059C000012802D004280AD104E001216B4A2032C8
:1059D000117005E00521694A2032117000E000BF16
:1059E00000BF70476949086070476449096A01430C
:1059F000624A11627047654944390860704730B5A2
:105A000000210022002400235C4D6D6805F00C018C
:105A100021B1042905D0082923D105E05C4D05609A
:105A200022E05B4D05601FE0544D6D6805F4701277
:105A3000524D6D6805F48034022505EB92421CB985
:105A4000544D554305600BE04C4D6D6805F4003531
:105A50001DB1504D5543056002E04D4D5543056065
:105A600002E04B4D056000BF00BF444D6D6805F07E
:105A7000F0010909484D6B5C0568DD4045603F4D0C
:105A80006D6805F4E061090A434D6B5C4568DD40D3
:105A900085603A4D6D6805F46051C90A3E4D6B5CF6
:105AA0004568DD40C560354D6D6805F44041890BA2
:105AB0003A4D6B5CC568B5FBF3F5056130BD29B1A6
:105AC0002E4A526902432D4B5A6104E02B4A526917
:105AD00082432A4B5A61704729B1284A926902438E
